{
  "contractName": "Tent_Token",
  "abi": [
    {
      "inputs": [],
      "stateMutability": "nonpayable",
      "type": "constructor"
    },
    {
      "anonymous": false,
      "inputs": [
        {
          "indexed": true,
          "internalType": "address",
          "name": "owner",
          "type": "address"
        },
        {
          "indexed": true,
          "internalType": "address",
          "name": "spender",
          "type": "address"
        },
        {
          "indexed": false,
          "internalType": "uint256",
          "name": "value",
          "type": "uint256"
        }
      ],
      "name": "Approval",
      "type": "event"
    },
    {
      "anonymous": false,
      "inputs": [
        {
          "indexed": true,
          "internalType": "address",
          "name": "delegator",
          "type": "address"
        },
        {
          "indexed": true,
          "internalType": "address",
          "name": "fromDelegate",
          "type": "address"
        },
        {
          "indexed": true,
          "internalType": "address",
          "name": "toDelegate",
          "type": "address"
        }
      ],
      "name": "DelegateChanged",
      "type": "event"
    },
    {
      "anonymous": false,
      "inputs": [
        {
          "indexed": true,
          "internalType": "address",
          "name": "delegate",
          "type": "address"
        },
        {
          "indexed": false,
          "internalType": "uint256",
          "name": "previousBalance",
          "type": "uint256"
        },
        {
          "indexed": false,
          "internalType": "uint256",
          "name": "newBalance",
          "type": "uint256"
        }
      ],
      "name": "DelegateVotesChanged",
      "type": "event"
    },
    {
      "anonymous": false,
      "inputs": [
        {
          "indexed": true,
          "internalType": "address",
          "name": "previousOwner",
          "type": "address"
        },
        {
          "indexed": true,
          "internalType": "address",
          "name": "newOwner",
          "type": "address"
        }
      ],
      "name": "OwnershipTransferred",
      "type": "event"
    },
    {
      "anonymous": false,
      "inputs": [
        {
          "indexed": true,
          "internalType": "address",
          "name": "from",
          "type": "address"
        },
        {
          "indexed": true,
          "internalType": "address",
          "name": "to",
          "type": "address"
        },
        {
          "indexed": false,
          "internalType": "uint256",
          "name": "value",
          "type": "uint256"
        }
      ],
      "name": "Transfer",
      "type": "event"
    },
    {
      "inputs": [],
      "name": "DOMAIN_SEPARATOR",
      "outputs": [
        {
          "internalType": "bytes32",
          "name": "",
          "type": "bytes32"
        }
      ],
      "stateMutability": "view",
      "type": "function",
      "constant": true
    },
    {
      "inputs": [],
      "name": "airdropWalletAddress",
      "outputs": [
        {
          "internalType": "address",
          "name": "",
          "type": "address"
        }
      ],
      "stateMutability": "view",
      "type": "function",
      "constant": true
    },
    {
      "inputs": [],
      "name": "airdropsAmount",
      "outputs": [
        {
          "internalType": "uint256",
          "name": "",
          "type": "uint256"
        }
      ],
      "stateMutability": "view",
      "type": "function",
      "constant": true
    },
    {
      "inputs": [
        {
          "internalType": "address",
          "name": "owner",
          "type": "address"
        },
        {
          "internalType": "address",
          "name": "spender",
          "type": "address"
        }
      ],
      "name": "allowance",
      "outputs": [
        {
          "internalType": "uint256",
          "name": "",
          "type": "uint256"
        }
      ],
      "stateMutability": "view",
      "type": "function",
      "constant": true
    },
    {
      "inputs": [
        {
          "internalType": "address",
          "name": "spender",
          "type": "address"
        },
        {
          "internalType": "uint256",
          "name": "amount",
          "type": "uint256"
        }
      ],
      "name": "approve",
      "outputs": [
        {
          "internalType": "bool",
          "name": "",
          "type": "bool"
        }
      ],
      "stateMutability": "nonpayable",
      "type": "function"
    },
    {
      "inputs": [
        {
          "internalType": "address",
          "name": "account",
          "type": "address"
        }
      ],
      "name": "balanceOf",
      "outputs": [
        {
          "internalType": "uint256",
          "name": "",
          "type": "uint256"
        }
      ],
      "stateMutability": "view",
      "type": "function",
      "constant": true
    },
    {
      "inputs": [
        {
          "internalType": "uint256",
          "name": "amount",
          "type": "uint256"
        }
      ],
      "name": "burn",
      "outputs": [],
      "stateMutability": "nonpayable",
      "type": "function"
    },
    {
      "inputs": [
        {
          "internalType": "address",
          "name": "account",
          "type": "address"
        },
        {
          "internalType": "uint256",
          "name": "amount",
          "type": "uint256"
        }
      ],
      "name": "burnFrom",
      "outputs": [],
      "stateMutability": "nonpayable",
      "type": "function"
    },
    {
      "inputs": [
        {
          "internalType": "address",
          "name": "account",
          "type": "address"
        },
        {
          "internalType": "uint32",
          "name": "pos",
          "type": "uint32"
        }
      ],
      "name": "checkpoints",
      "outputs": [
        {
          "components": [
            {
              "internalType": "uint32",
              "name": "fromBlock",
              "type": "uint32"
            },
            {
              "internalType": "uint224",
              "name": "votes",
              "type": "uint224"
            }
          ],
          "internalType": "struct ERC20Votes.Checkpoint",
          "name": "",
          "type": "tuple"
        }
      ],
      "stateMutability": "view",
      "type": "function",
      "constant": true
    },
    {
      "inputs": [],
      "name": "decimals",
      "outputs": [
        {
          "internalType": "uint8",
          "name": "",
          "type": "uint8"
        }
      ],
      "stateMutability": "view",
      "type": "function",
      "constant": true
    },
    {
      "inputs": [
        {
          "internalType": "address",
          "name": "spender",
          "type": "address"
        },
        {
          "internalType": "uint256",
          "name": "subtractedValue",
          "type": "uint256"
        }
      ],
      "name": "decreaseAllowance",
      "outputs": [
        {
          "internalType": "bool",
          "name": "",
          "type": "bool"
        }
      ],
      "stateMutability": "nonpayable",
      "type": "function"
    },
    {
      "inputs": [
        {
          "internalType": "address",
          "name": "delegatee",
          "type": "address"
        }
      ],
      "name": "delegate",
      "outputs": [],
      "stateMutability": "nonpayable",
      "type": "function"
    },
    {
      "inputs": [
        {
          "internalType": "address",
          "name": "delegatee",
          "type": "address"
        },
        {
          "internalType": "uint256",
          "name": "nonce",
          "type": "uint256"
        },
        {
          "internalType": "uint256",
          "name": "expiry",
          "type": "uint256"
        },
        {
          "internalType": "uint8",
          "name": "v",
          "type": "uint8"
        },
        {
          "internalType": "bytes32",
          "name": "r",
          "type": "bytes32"
        },
        {
          "internalType": "bytes32",
          "name": "s",
          "type": "bytes32"
        }
      ],
      "name": "delegateBySig",
      "outputs": [],
      "stateMutability": "nonpayable",
      "type": "function"
    },
    {
      "inputs": [
        {
          "internalType": "address",
          "name": "account",
          "type": "address"
        }
      ],
      "name": "delegates",
      "outputs": [
        {
          "internalType": "address",
          "name": "",
          "type": "address"
        }
      ],
      "stateMutability": "view",
      "type": "function",
      "constant": true
    },
    {
      "inputs": [
        {
          "internalType": "uint256",
          "name": "blockNumber",
          "type": "uint256"
        }
      ],
      "name": "getPastTotalSupply",
      "outputs": [
        {
          "internalType": "uint256",
          "name": "",
          "type": "uint256"
        }
      ],
      "stateMutability": "view",
      "type": "function",
      "constant": true
    },
    {
      "inputs": [
        {
          "internalType": "address",
          "name": "account",
          "type": "address"
        },
        {
          "internalType": "uint256",
          "name": "blockNumber",
          "type": "uint256"
        }
      ],
      "name": "getPastVotes",
      "outputs": [
        {
          "internalType": "uint256",
          "name": "",
          "type": "uint256"
        }
      ],
      "stateMutability": "view",
      "type": "function",
      "constant": true
    },
    {
      "inputs": [
        {
          "internalType": "address",
          "name": "account",
          "type": "address"
        }
      ],
      "name": "getVotes",
      "outputs": [
        {
          "internalType": "uint256",
          "name": "",
          "type": "uint256"
        }
      ],
      "stateMutability": "view",
      "type": "function",
      "constant": true
    },
    {
      "inputs": [
        {
          "internalType": "address",
          "name": "spender",
          "type": "address"
        },
        {
          "internalType": "uint256",
          "name": "addedValue",
          "type": "uint256"
        }
      ],
      "name": "increaseAllowance",
      "outputs": [
        {
          "internalType": "bool",
          "name": "",
          "type": "bool"
        }
      ],
      "stateMutability": "nonpayable",
      "type": "function"
    },
    {
      "inputs": [
        {
          "internalType": "address",
          "name": "",
          "type": "address"
        }
      ],
      "name": "lockTime",
      "outputs": [
        {
          "internalType": "uint256",
          "name": "",
          "type": "uint256"
        }
      ],
      "stateMutability": "view",
      "type": "function",
      "constant": true
    },
    {
      "inputs": [],
      "name": "name",
      "outputs": [
        {
          "internalType": "string",
          "name": "",
          "type": "string"
        }
      ],
      "stateMutability": "view",
      "type": "function",
      "constant": true
    },
    {
      "inputs": [
        {
          "internalType": "address",
          "name": "owner",
          "type": "address"
        }
      ],
      "name": "nonces",
      "outputs": [
        {
          "internalType": "uint256",
          "name": "",
          "type": "uint256"
        }
      ],
      "stateMutability": "view",
      "type": "function",
      "constant": true
    },
    {
      "inputs": [
        {
          "internalType": "address",
          "name": "account",
          "type": "address"
        }
      ],
      "name": "numCheckpoints",
      "outputs": [
        {
          "internalType": "uint32",
          "name": "",
          "type": "uint32"
        }
      ],
      "stateMutability": "view",
      "type": "function",
      "constant": true
    },
    {
      "inputs": [],
      "name": "owner",
      "outputs": [
        {
          "internalType": "address",
          "name": "",
          "type": "address"
        }
      ],
      "stateMutability": "view",
      "type": "function",
      "constant": true
    },
    {
      "inputs": [
        {
          "internalType": "address",
          "name": "owner",
          "type": "address"
        },
        {
          "internalType": "address",
          "name": "spender",
          "type": "address"
        },
        {
          "internalType": "uint256",
          "name": "value",
          "type": "uint256"
        },
        {
          "internalType": "uint256",
          "name": "deadline",
          "type": "uint256"
        },
        {
          "internalType": "uint8",
          "name": "v",
          "type": "uint8"
        },
        {
          "internalType": "bytes32",
          "name": "r",
          "type": "bytes32"
        },
        {
          "internalType": "bytes32",
          "name": "s",
          "type": "bytes32"
        }
      ],
      "name": "permit",
      "outputs": [],
      "stateMutability": "nonpayable",
      "type": "function"
    },
    {
      "inputs": [],
      "name": "renounceOwnership",
      "outputs": [],
      "stateMutability": "nonpayable",
      "type": "function"
    },
    {
      "inputs": [],
      "name": "symbol",
      "outputs": [
        {
          "internalType": "string",
          "name": "",
          "type": "string"
        }
      ],
      "stateMutability": "view",
      "type": "function",
      "constant": true
    },
    {
      "inputs": [],
      "name": "totalSupply",
      "outputs": [
        {
          "internalType": "uint256",
          "name": "",
          "type": "uint256"
        }
      ],
      "stateMutability": "view",
      "type": "function",
      "constant": true
    },
    {
      "inputs": [
        {
          "internalType": "address",
          "name": "recipient",
          "type": "address"
        },
        {
          "internalType": "uint256",
          "name": "amount",
          "type": "uint256"
        }
      ],
      "name": "transfer",
      "outputs": [
        {
          "internalType": "bool",
          "name": "",
          "type": "bool"
        }
      ],
      "stateMutability": "nonpayable",
      "type": "function"
    },
    {
      "inputs": [
        {
          "internalType": "address",
          "name": "sender",
          "type": "address"
        },
        {
          "internalType": "address",
          "name": "recipient",
          "type": "address"
        },
        {
          "internalType": "uint256",
          "name": "amount",
          "type": "uint256"
        }
      ],
      "name": "transferFrom",
      "outputs": [
        {
          "internalType": "bool",
          "name": "",
          "type": "bool"
        }
      ],
      "stateMutability": "nonpayable",
      "type": "function"
    },
    {
      "inputs": [
        {
          "internalType": "address",
          "name": "newOwner",
          "type": "address"
        }
      ],
      "name": "transferOwnership",
      "outputs": [],
      "stateMutability": "nonpayable",
      "type": "function"
    },
    {
      "inputs": [
        {
          "internalType": "address",
          "name": "token",
          "type": "address"
        },
        {
          "internalType": "address",
          "name": "holder",
          "type": "address"
        }
      ],
      "name": "getBalance",
      "outputs": [
        {
          "internalType": "uint256",
          "name": "",
          "type": "uint256"
        }
      ],
      "stateMutability": "view",
      "type": "function",
      "constant": true
    },
    {
      "inputs": [],
      "name": "getAirdrops",
      "outputs": [],
      "stateMutability": "nonpayable",
      "type": "function"
    }
  ],
  "bytecode": "0x6101606040527f6e71edae12b1b97f4d1f60370fef10105fa2faae0126114a169c64845d6126c9610140908152506200003d6200029060201b60201c565b600a6200004b919062000f15565b600162000059919062000f66565b600a553480156200006957600080fd5b506040518060400160405280601381526020017f54656e74476f7665726e616e6365546f6b656e00000000000000000000000000815250806040518060400160405280600181526020017f31000000000000000000000000000000000000000000000000000000000000008152506040518060400160405280600a81526020017f54656e7420546f6b656e000000000000000000000000000000000000000000008152506040518060400160405280600481526020017f54454e540000000000000000000000000000000000000000000000000000000081525081600390805190602001906200015b92919062000ccb565b5080600490805190602001906200017492919062000ccb565b505050620001976200018b6200029960201b60201c565b620002a160201b60201c565b60008280519060200120905060008280519060200120905060007f8b73c3c69bb8fe3d512ecc4cf759cc79239f7b179b0ffacaa9a75d522b39400f90508260e081815250508161010081815250504660a08181525050620002008184846200036760201b60201c565b608081815250503073ffffffffffffffffffffffffffffffffffffffff1660c08173ffffffffffffffffffffffffffffffffffffffff16815250508061012081815250505050505050506200028a336200025f6200029060201b60201c565b600a6200026d919062000f15565b6305f5e1006200027e919062000f66565b620003a360201b60201c565b62001456565b60006012905090565b600033905090565b6000600560009054906101000a900473ffffffffffffffffffffffffffffffffffffffff16905081600560006101000a81548173ffffffffffffffffffffffffffffffffffffffff021916908373ffffffffffffffffffffffffffffffffffffffff1602179055508173ffffffffffffffffffffffffffffffffffffffff168173ffffffffffffffffffffffffffffffffffffffff167f8be0079c531659141344cd1fd0a4f28419497f9722a3daafe3b4186f6b6457e060405160405180910390a35050565b600083838346306040516020016200038495949392919062001038565b6040516020818303038152906040528051906020012090509392505050565b620003ba8282620003be60201b620015cc1760201c565b5050565b620003d582826200047c60201b620016591760201c565b620003e5620005f560201b60201c565b7bffffffffffffffffffffffffffffffffffffffffffffffffffffffff16620004136200061960201b60201c565b111562000457576040517f08c379a00000000000000000000000000000000000000000000000000000000081526004016200044e906200111c565b60405180910390fd5b6200047660096200062360201b620017b917836200063b60201b60201c565b50505050565b600073ffffffffffffffffffffffffffffffffffffffff168273ffffffffffffffffffffffffffffffffffffffff161415620004ef576040517f08c379a0000000000000000000000000000000000000000000000000000000008152600401620004e6906200118e565b60405180910390fd5b6200050360008383620008ec60201b60201c565b8060026000828254620005179190620011b0565b92505081905550806000808473ffffffffffffffffffffffffffffffffffffffff1673ffffffffffffffffffffffffffffffffffffffff16815260200190815260200160002060008282546200056e9190620011b0565b925050819055508173ffffffffffffffffffffffffffffffffffffffff16600073ffffffffffffffffffffffffffffffffffffffff167fddf252ad1be2c89b69c2b068fc378daa952ba7f163c4a11628f55a4df523b3ef83604051620005d591906200120d565b60405180910390a3620005f160008383620008f160201b60201c565b5050565b60007bffffffffffffffffffffffffffffffffffffffffffffffffffffffff905090565b6000600254905090565b60008183620006339190620011b0565b905092915050565b60008060008580549050905060008114620006b057856001826200066091906200122a565b8154811062000674576200067362001265565b5b9060005260206000200160000160049054906101000a90047bffffffffffffffffffffffffffffffffffffffffffffffffffffffff16620006b3565b60005b7bffffffffffffffffffffffffffffffffffffffffffffffffffffffff169250620006df83858760201c565b91506000811180156200073857504386600183620006fe91906200122a565b8154811062000712576200071162001265565b5b9060005260206000200160000160009054906101000a900463ffffffff1663ffffffff16145b15620007d95762000754826200090e60201b620017cf1760201c565b866001836200076491906200122a565b8154811062000778576200077762001265565b5b9060005260206000200160000160046101000a8154817bffffffffffffffffffffffffffffffffffffffffffffffffffffffff02191690837bffffffffffffffffffffffffffffffffffffffffffffffffffffffff160217905550620008e3565b856040518060400160405280620007fb436200097c60201b6200183a1760201c565b63ffffffff1681526020016200081c856200090e60201b620017cf1760201c565b7bffffffffffffffffffffffffffffffffffffffffffffffffffffffff168152509080600181540180825580915050600190039060005260206000200160009091909190915060008201518160000160006101000a81548163ffffffff021916908363ffffffff16021790555060208201518160000160046101000a8154817bffffffffffffffffffffffffffffffffffffffffffffffffffffffff02191690837bffffffffffffffffffffffffffffffffffffffffffffffffffffffff16021790555050505b50935093915050565b505050565b62000909838383620009d260201b6200188d1760201c565b505050565b60007bffffffffffffffffffffffffffffffffffffffffffffffffffffffff801682111562000974576040517f08c379a00000000000000000000000000000000000000000000000000000000081526004016200096b906200130a565b60405180910390fd5b819050919050565b600063ffffffff8016821115620009ca576040517f08c379a0000000000000000000000000000000000000000000000000000000008152600401620009c190620013a2565b60405180910390fd5b819050919050565b620009ea83838362000a2260201b620018b81760201c565b62000a1d620009ff8462000a2760201b60201c565b62000a108462000a2760201b60201c565b8362000a9060201b60201c565b505050565b505050565b6000600760008373ffffffffffffffffffffffffffffffffffffffff1673ffffffffffffffffffffffffffffffffffffffff16815260200190815260200160002060009054906101000a900473ffffffffffffffffffffffffffffffffffffffff169050919050565b8173ffffffffffffffffffffffffffffffffffffffff168373ffffffffffffffffffffffffffffffffffffffff161415801562000acd5750600081115b1562000cae57600073ffffffffffffffffffffffffffffffffffffffff168373ffffffffffffffffffffffffffffffffffffffff161462000bc05760008062000b67600860008773ffffffffffffffffffffffffffffffffffffffff1673ffffffffffffffffffffffffffffffffffffffff16815260200190815260200160002062000cb360201b620018bd17856200063b60201b60201c565b915091508473ffffffffffffffffffffffffffffffffffffffff167fdec2bacdd2f05b59de34da9b523dff8be42e5e38e818c82fdb0bae774387a724838360405162000bb5929190620013c4565b60405180910390a250505b600073ffffffffffffffffffffffffffffffffffffffff168273ffffffffffffffffffffffffffffffffffffffff161462000cad5760008062000c54600860008673ffffffffffffffffffffffffffffffffffffffff1673ffffffffffffffffffffffffffffffffffffffff1681526020019081526020016000206200062360201b620017b917856200063b60201b60201c565b915091508373ffffffffffffffffffffffffffffffffffffffff167fdec2bacdd2f05b59de34da9b523dff8be42e5e38e818c82fdb0bae774387a724838360405162000ca2929190620013c4565b60405180910390a250505b5b505050565b6000818362000cc391906200122a565b905092915050565b82805462000cd99062001420565b90600052602060002090601f01602090048101928262000cfd576000855562000d49565b82601f1062000d1857805160ff191683800117855562000d49565b8280016001018555821562000d49579182015b8281111562000d4857825182559160200191906001019062000d2b565b5b50905062000d58919062000d5c565b5090565b5b8082111562000d7757600081600090555060010162000d5d565b5090565b7f4e487b7100000000000000000000000000000000000000000000000000000000600052601160045260246000fd5b60008160011c9050919050565b6000808291508390505b600185111562000e095780860481111562000de15762000de062000d7b565b5b600185161562000df15780820291505b808102905062000e018562000daa565b945062000dc1565b94509492505050565b60008262000e24576001905062000ef7565b8162000e34576000905062000ef7565b816001811462000e4d576002811462000e585762000e8e565b600191505062000ef7565b60ff84111562000e6d5762000e6c62000d7b565b5b8360020a91508482111562000e875762000e8662000d7b565b5b5062000ef7565b5060208310610133831016604e8410600b841016171562000ec85782820a90508381111562000ec25762000ec162000d7b565b5b62000ef7565b62000ed7848484600162000db7565b9250905081840481111562000ef15762000ef062000d7b565b5b81810290505b9392505050565b6000819050919050565b600060ff82169050919050565b600062000f228262000efe565b915062000f2f8362000f08565b925062000f5e7fffffffffffffffffffffffffffffffffffffffffffffffffffffffffffffffff848462000e12565b905092915050565b600062000f738262000efe565b915062000f808362000efe565b9250817fffffffffffffffffffffffffffffffffffffffffffffffffffffffffffffffff048311821515161562000fbc5762000fbb62000d7b565b5b828202905092915050565b6000819050919050565b62000fdc8162000fc7565b82525050565b62000fed8162000efe565b82525050565b600073ffffffffffffffffffffffffffffffffffffffff82169050919050565b6000620010208262000ff3565b9050919050565b620010328162001013565b82525050565b600060a0820190506200104f600083018862000fd1565b6200105e602083018762000fd1565b6200106d604083018662000fd1565b6200107c606083018562000fe2565b6200108b608083018462001027565b9695505050505050565b600082825260208201905092915050565b7f4552433230566f7465733a20746f74616c20737570706c79207269736b73206f60008201527f766572666c6f77696e6720766f74657300000000000000000000000000000000602082015250565b60006200110460308362001095565b91506200111182620010a6565b604082019050919050565b600060208201905081810360008301526200113781620010f5565b9050919050565b7f45524332303a206d696e7420746f20746865207a65726f206164647265737300600082015250565b600062001176601f8362001095565b915062001183826200113e565b602082019050919050565b60006020820190508181036000830152620011a98162001167565b9050919050565b6000620011bd8262000efe565b9150620011ca8362000efe565b9250827fffffffffffffffffffffffffffffffffffffffffffffffffffffffffffffffff0382111562001202576200120162000d7b565b5b828201905092915050565b600060208201905062001224600083018462000fe2565b92915050565b6000620012378262000efe565b9150620012448362000efe565b9250828210156200125a576200125962000d7b565b5b828203905092915050565b7f4e487b7100000000000000000000000000000000000000000000000000000000600052603260045260246000fd5b7f53616665436173743a2076616c756520646f65736e27742066697420696e203260008201527f3234206269747300000000000000000000000000000000000000000000000000602082015250565b6000620012f260278362001095565b9150620012ff8262001294565b604082019050919050565b600060208201905081810360008301526200132581620012e3565b9050919050565b7f53616665436173743a2076616c756520646f65736e27742066697420696e203360008201527f3220626974730000000000000000000000000000000000000000000000000000602082015250565b60006200138a60268362001095565b915062001397826200132c565b604082019050919050565b60006020820190508181036000830152620013bd816200137b565b9050919050565b6000604082019050620013db600083018562000fe2565b620013ea602083018462000fe2565b9392505050565b7f4e487b7100000000000000000000000000000000000000000000000000000000600052602260045260246000fd5b600060028204905060018216806200143957607f821691505b6020821081141562001450576200144f620013f1565b5b50919050565b60805160a05160c05160e051610100516101205161014051614479620014b1600039600061123c01526000611dd501526000611e1701526000611df601526000611d2b01526000611d8101526000611daa01526144796000f3fe608060405234801561001057600080fd5b50600436106101f05760003560e01c80637ecebe001161010f578063a9059cbb116100a2578063dd62ed3e11610071578063dd62ed3e14610607578063f1127ed814610637578063f2fde38b14610667578063f9b2359714610683576101f0565b8063a9059cbb1461056f578063c3cda5201461059f578063d4fac45d146105bb578063d505accf146105eb576101f0565b80639ab24eb0116100de5780639ab24eb0146104c15780639ce3fdac146104f1578063a457c2d71461050f578063a4beda631461053f576101f0565b80637ecebe00146104255780638da5cb5b146104555780638e539e8c1461047357806395d89b41146104a3576101f0565b806342966c68116101875780636fcfff45116101565780636fcfff451461039f57806370a08231146103cf578063715018a6146103ff57806379cc679014610409576101f0565b806342966c681461032d578063587cde1e1461034957806359f47add146103795780635c19a95c14610383576101f0565b8063313ce567116101c3578063313ce567146102915780633644e515146102af57806339509351146102cd5780633a46b1a8146102fd576101f0565b806306fdde03146101f5578063095ea7b31461021357806318160ddd1461024357806323b872dd14610261575b600080fd5b6101fd6106a1565b60405161020a9190612cfb565b60405180910390f35b61022d60048036038101906102289190612db6565b610733565b60405161023a9190612e11565b60405180910390f35b61024b610751565b6040516102589190612e3b565b60405180910390f35b61027b60048036038101906102769190612e56565b61075b565b6040516102889190612e11565b60405180910390f35b610299610853565b6040516102a69190612ec5565b60405180910390f35b6102b761085c565b6040516102c49190612ef9565b60405180910390f35b6102e760048036038101906102e29190612db6565b61086b565b6040516102f49190612e11565b60405180910390f35b61031760048036038101906103129190612db6565b610917565b6040516103249190612e3b565b60405180910390f35b61034760048036038101906103429190612f14565b6109ab565b005b610363600480360381019061035e9190612f41565b6109bf565b6040516103709190612f7d565b60405180910390f35b610381610a28565b005b61039d60048036038101906103989190612f41565b610b09565b005b6103b960048036038101906103b49190612f41565b610b1d565b6040516103c69190612fb7565b60405180910390f35b6103e960048036038101906103e49190612f41565b610b71565b6040516103f69190612e3b565b60405180910390f35b610407610bb9565b005b610423600480360381019061041e9190612db6565b610c41565b005b61043f600480360381019061043a9190612f41565b610cbc565b60405161044c9190612e3b565b60405180910390f35b61045d610d0c565b60405161046a9190612f7d565b60405180910390f35b61048d60048036038101906104889190612f14565b610d36565b60405161049a9190612e3b565b60405180910390f35b6104ab610d8c565b6040516104b89190612cfb565b60405180910390f35b6104db60048036038101906104d69190612f41565b610e1e565b6040516104e89190612e3b565b60405180910390f35b6104f9610f2f565b6040516105069190612f7d565b60405180910390f35b61052960048036038101906105249190612db6565b610f47565b6040516105369190612e11565b60405180910390f35b61055960048036038101906105549190612f41565b611032565b6040516105669190612e3b565b60405180910390f35b61058960048036038101906105849190612db6565b61104a565b6040516105969190612e11565b60405180910390f35b6105b960048036038101906105b4919061302a565b611068565b005b6105d560048036038101906105d091906130b7565b61116c565b6040516105e29190612e3b565b60405180910390f35b610605600480360381019061060091906130f7565b6111f5565b005b610621600480360381019061061c91906130b7565b611337565b60405161062e9190612e3b565b60405180910390f35b610651600480360381019061064c91906131c5565b6113be565b60405161065e919061327a565b60405180910390f35b610681600480360381019061067c9190612f41565b6114ce565b005b61068b6115c6565b6040516106989190612e3b565b60405180910390f35b6060600380546106b0906132c4565b80601f01602080910402602001604051908101604052809291908181526020018280546106dc906132c4565b80156107295780601f106106fe57610100808354040283529160200191610729565b820191906000526020600020905b81548152906001019060200180831161070c57829003601f168201915b5050505050905090565b60006107476107406118d3565b84846118db565b6001905092915050565b6000600254905090565b6000610768848484611aa6565b6000600160008673ffffffffffffffffffffffffffffffffffffffff1673ffffffffffffffffffffffffffffffffffffffff16815260200190815260200160002060006107b36118d3565b73ffffffffffffffffffffffffffffffffffffffff1673ffffffffffffffffffffffffffffffffffffffff16815260200190815260200160002054905082811015610833576040517f08c379a000000000000000000000000000000000000000000000000000000000815260040161082a90613368565b60405180910390fd5b6108478561083f6118d3565b8584036118db565b60019150509392505050565b60006012905090565b6000610866611d27565b905090565b600061090d6108786118d3565b8484600160006108866118d3565b73ffffffffffffffffffffffffffffffffffffffff1673ffffffffffffffffffffffffffffffffffffffff16815260200190815260200160002060008873ffffffffffffffffffffffffffffffffffffffff1673ffffffffffffffffffffffffffffffffffffffff1681526020019081526020016000205461090891906133b7565b6118db565b6001905092915050565b600043821061095b576040517f08c379a000000000000000000000000000000000000000000000000000000000815260040161095290613459565b60405180910390fd5b6109a3600860008573ffffffffffffffffffffffffffffffffffffffff1673ffffffffffffffffffffffffffffffffffffffff16815260200190815260200160002083611e41565b905092915050565b6109bc6109b66118d3565b82611f4d565b50565b6000600760008373ffffffffffffffffffffffffffffffffffffffff1673ffffffffffffffffffffffffffffffffffffffff16815260200190815260200160002060009054906101000a900473ffffffffffffffffffffffffffffffffffffffff169050919050565b600b60003373ffffffffffffffffffffffffffffffffffffffff1673ffffffffffffffffffffffffffffffffffffffff168152602001908152602001600020544211610aa9576040517f08c379a0000000000000000000000000000000000000000000000000000000008152600401610aa0906134eb565b60405180910390fd5b610ab533600a54611f5b565b6201518042610ac491906133b7565b600b60003373ffffffffffffffffffffffffffffffffffffffff1673ffffffffffffffffffffffffffffffffffffffff16815260200190815260200160002081905550565b610b1a610b146118d3565b82611f69565b50565b6000610b6a600860008473ffffffffffffffffffffffffffffffffffffffff1673ffffffffffffffffffffffffffffffffffffffff1681526020019081526020016000208054905061183a565b9050919050565b60008060008373ffffffffffffffffffffffffffffffffffffffff1673ffffffffffffffffffffffffffffffffffffffff168152602001908152602001600020549050919050565b610bc16118d3565b73ffffffffffffffffffffffffffffffffffffffff16610bdf610d0c565b73ffffffffffffffffffffffffffffffffffffffff1614610c35576040517f08c379a0000000000000000000000000000000000000000000000000000000008152600401610c2c90613557565b60405180910390fd5b610c3f6000612083565b565b6000610c5483610c4f6118d3565b611337565b905081811015610c99576040517f08c379a0000000000000000000000000000000000000000000000000000000008152600401610c90906135e9565b60405180910390fd5b610cad83610ca56118d3565b8484036118db565b610cb78383611f4d565b505050565b6000610d05600660008473ffffffffffffffffffffffffffffffffffffffff1673ffffffffffffffffffffffffffffffffffffffff168152602001908152602001600020612149565b9050919050565b6000600560009054906101000a900473ffffffffffffffffffffffffffffffffffffffff16905090565b6000438210610d7a576040517f08c379a0000000000000000000000000000000000000000000000000000000008152600401610d7190613459565b60405180910390fd5b610d85600983611e41565b9050919050565b606060048054610d9b906132c4565b80601f0160208091040260200160405190810160405280929190818152602001828054610dc7906132c4565b8015610e145780601f10610de957610100808354040283529160200191610e14565b820191906000526020600020905b815481529060010190602001808311610df757829003601f168201915b5050505050905090565b600080600860008473ffffffffffffffffffffffffffffffffffffffff1673ffffffffffffffffffffffffffffffffffffffff16815260200190815260200160002080549050905060008114610f0657600860008473ffffffffffffffffffffffffffffffffffffffff1673ffffffffffffffffffffffffffffffffffffffff168152602001908152602001600020600182610eba9190613609565b81548110610ecb57610eca61363d565b5b9060005260206000200160000160049054906101000a90047bffffffffffffffffffffffffffffffffffffffffffffffffffffffff16610f09565b60005b7bffffffffffffffffffffffffffffffffffffffffffffffffffffffff16915050919050565b735b38da6a701c568545dcfcb03fcb875f56beddc481565b60008060016000610f566118d3565b73ffffffffffffffffffffffffffffffffffffffff1673ffffffffffffffffffffffffffffffffffffffff16815260200190815260200160002060008573ffffffffffffffffffffffffffffffffffffffff1673ffffffffffffffffffffffffffffffffffffffff16815260200190815260200160002054905082811015611013576040517f08c379a000000000000000000000000000000000000000000000000000000000815260040161100a906136de565b60405180910390fd5b61102761101e6118d3565b858584036118db565b600191505092915050565b600b6020528060005260406000206000915090505481565b600061105e6110576118d3565b8484611aa6565b6001905092915050565b834211156110ab576040517f08c379a00000000000000000000000000000000000000000000000000000000081526004016110a29061374a565b60405180910390fd5b600061110d6111057fe48329057bfd03d55e49b547132e39cffd9c1820ad7b9d4c5307691425d15adf8989896040516020016110ea949392919061376a565b60405160208183030381529060405280519060200120612157565b858585612171565b90506111188161219c565b8614611159576040517f08c379a0000000000000000000000000000000000000000000000000000000008152600401611150906137fb565b60405180910390fd5b6111638188611f69565b50505050505050565b6000808390508073ffffffffffffffffffffffffffffffffffffffff166370a08231846040518263ffffffff1660e01b81526004016111ab9190612f7d565b602060405180830381865afa1580156111c8573d6000803e3d6000fd5b505050506040513d601f19601f820116820180604052508101906111ec9190613830565b91505092915050565b83421115611238576040517f08c379a000000000000000000000000000000000000000000000000000000000815260040161122f906138a9565b60405180910390fd5b60007f00000000000000000000000000000000000000000000000000000000000000008888886112678c61219c565b8960405160200161127d969594939291906138c9565b60405160208183030381529060405280519060200120905060006112a082612157565b905060006112b082878787612171565b90508973ffffffffffffffffffffffffffffffffffffffff168173ffffffffffffffffffffffffffffffffffffffff1614611320576040517f08c379a000000000000000000000000000000000000000000000000000000000815260040161131790613976565b60405180910390fd5b61132b8a8a8a6118db565b50505050505050505050565b6000600160008473ffffffffffffffffffffffffffffffffffffffff1673ffffffffffffffffffffffffffffffffffffffff16815260200190815260200160002060008373ffffffffffffffffffffffffffffffffffffffff1673ffffffffffffffffffffffffffffffffffffffff16815260200190815260200160002054905092915050565b6113c6612c24565b600860008473ffffffffffffffffffffffffffffffffffffffff1673ffffffffffffffffffffffffffffffffffffffff1681526020019081526020016000208263ffffffff168154811061141d5761141c61363d565b5b906000526020600020016040518060400160405290816000820160009054906101000a900463ffffffff1663ffffffff1663ffffffff1681526020016000820160049054906101000a90047bffffffffffffffffffffffffffffffffffffffffffffffffffffffff167bffffffffffffffffffffffffffffffffffffffffffffffffffffffff167bffffffffffffffffffffffffffffffffffffffffffffffffffffffff1681525050905092915050565b6114d66118d3565b73ffffffffffffffffffffffffffffffffffffffff166114f4610d0c565b73ffffffffffffffffffffffffffffffffffffffff161461154a576040517f08c379a000000000000000000000000000000000000000000000000000000000815260040161154190613557565b60405180910390fd5b600073ffffffffffffffffffffffffffffffffffffffff168173ffffffffffffffffffffffffffffffffffffffff1614156115ba576040517f08c379a00000000000000000000000000000000000000000000000000000000081526004016115b190613a08565b60405180910390fd5b6115c381612083565b50565b600a5481565b6115d68282611659565b6115de6121fa565b7bffffffffffffffffffffffffffffffffffffffffffffffffffffffff16611604610751565b1115611645576040517f08c379a000000000000000000000000000000000000000000000000000000000815260040161163c90613a9a565b60405180910390fd5b61165360096117b98361221e565b50505050565b600073ffffffffffffffffffffffffffffffffffffffff168273ffffffffffffffffffffffffffffffffffffffff1614156116c9576040517f08c379a00000000000000000000000000000000000000000000000000000000081526004016116c090613b06565b60405180910390fd5b6116d560008383612496565b80600260008282546116e791906133b7565b92505081905550806000808473ffffffffffffffffffffffffffffffffffffffff1673ffffffffffffffffffffffffffffffffffffffff168152602001908152602001600020600082825461173c91906133b7565b925050819055508173ffffffffffffffffffffffffffffffffffffffff16600073ffffffffffffffffffffffffffffffffffffffff167fddf252ad1be2c89b69c2b068fc378daa952ba7f163c4a11628f55a4df523b3ef836040516117a19190612e3b565b60405180910390a36117b56000838361249b565b5050565b600081836117c791906133b7565b905092915050565b60007bffffffffffffffffffffffffffffffffffffffffffffffffffffffff8016821115611832576040517f08c379a000000000000000000000000000000000000000000000000000000000815260040161182990613b98565b60405180910390fd5b819050919050565b600063ffffffff8016821115611885576040517f08c379a000000000000000000000000000000000000000000000000000000000815260040161187c90613c2a565b60405180910390fd5b819050919050565b6118988383836118b8565b6118b36118a4846109bf565b6118ad846109bf565b836124ab565b505050565b505050565b600081836118cb9190613609565b905092915050565b600033905090565b600073ffffffffffffffffffffffffffffffffffffffff168373ffffffffffffffffffffffffffffffffffffffff16141561194b576040517f08c379a000000000000000000000000000000000000000000000000000000000815260040161194290613cbc565b60405180910390fd5b600073ffffffffffffffffffffffffffffffffffffffff168273ffffffffffffffffffffffffffffffffffffffff1614156119bb576040517f08c379a00000000000000000000000000000000000000000000000000000000081526004016119b290613d4e565b60405180910390fd5b80600160008573ffffffffffffffffffffffffffffffffffffffff1673ffffffffffffffffffffffffffffffffffffffff16815260200190815260200160002060008473ffffffffffffffffffffffffffffffffffffffff1673ffffffffffffffffffffffffffffffffffffffff168152602001908152602001600020819055508173ffffffffffffffffffffffffffffffffffffffff168373ffffffffffffffffffffffffffffffffffffffff167f8c5be1e5ebec7d5bd14f71427d1e84f3dd0314c0f7b2291e5b200ac8c7c3b92583604051611a999190612e3b565b60405180910390a3505050565b600073ffffffffffffffffffffffffffffffffffffffff168373ffffffffffffffffffffffffffffffffffffffff161415611b16576040517f08c379a0000000000000000000000000000000000000000000000000000000008152600401611b0d90613de0565b60405180910390fd5b600073ffffffffffffffffffffffffffffffffffffffff168273ffffffffffffffffffffffffffffffffffffffff161415611b86576040517f08c379a0000000000000000000000000000000000000000000000000000000008152600401611b7d90613e72565b60405180910390fd5b611b91838383612496565b60008060008573ffffffffffffffffffffffffffffffffffffffff1673ffffffffffffffffffffffffffffffffffffffff16815260200190815260200160002054905081811015611c17576040517f08c379a0000000000000000000000000000000000000000000000000000000008152600401611c0e90613f04565b60405180910390fd5b8181036000808673ffffffffffffffffffffffffffffffffffffffff1673ffffffffffffffffffffffffffffffffffffffff16815260200190815260200160002081905550816000808573ffffffffffffffffffffffffffffffffffffffff1673ffffffffffffffffffffffffffffffffffffffff1681526020019081526020016000206000828254611caa91906133b7565b925050819055508273ffffffffffffffffffffffffffffffffffffffff168473ffffffffffffffffffffffffffffffffffffffff167fddf252ad1be2c89b69c2b068fc378daa952ba7f163c4a11628f55a4df523b3ef84604051611d0e9190612e3b565b60405180910390a3611d2184848461249b565b50505050565b60007f000000000000000000000000000000000000000000000000000000000000000073ffffffffffffffffffffffffffffffffffffffff163073ffffffffffffffffffffffffffffffffffffffff16148015611da357507f000000000000000000000000000000000000000000000000000000000000000046145b15611dd0577f00000000000000000000000000000000000000000000000000000000000000009050611e3e565b611e3b7f00000000000000000000000000000000000000000000000000000000000000007f00000000000000000000000000000000000000000000000000000000000000007f00000000000000000000000000000000000000000000000000000000000000006126a4565b90505b90565b6000808380549050905060005b81811015611ec0576000611e6282846126de565b905084868281548110611e7857611e7761363d565b5b9060005260206000200160000160009054906101000a900463ffffffff1663ffffffff161115611eaa57809250611eba565b600181611eb791906133b7565b91505b50611e4e565b60008214611f225784600183611ed69190613609565b81548110611ee757611ee661363d565b5b9060005260206000200160000160049054906101000a90047bffffffffffffffffffffffffffffffffffffffffffffffffffffffff16611f25565b60005b7bffffffffffffffffffffffffffffffffffffffffffffffffffffffff169250505092915050565b611f578282612704565b5050565b611f6582826115cc565b5050565b6000611f74836109bf565b90506000611f8184610b71565b905082600760008673ffffffffffffffffffffffffffffffffffffffff1673ffffffffffffffffffffffffffffffffffffffff16815260200190815260200160002060006101000a81548173ffffffffffffffffffffffffffffffffffffffff021916908373ffffffffffffffffffffffffffffffffffffffff1602179055508273ffffffffffffffffffffffffffffffffffffffff168273ffffffffffffffffffffffffffffffffffffffff168573ffffffffffffffffffffffffffffffffffffffff167f3134e8a2e6d97e929a7e54011ea5485d7d196dd5f0ba4d4ef95803e8e3fc257f60405160405180910390a461207d8284836124ab565b50505050565b6000600560009054906101000a900473ffffffffffffffffffffffffffffffffffffffff16905081600560006101000a81548173ffffffffffffffffffffffffffffffffffffffff021916908373ffffffffffffffffffffffffffffffffffffffff1602179055508173ffffffffffffffffffffffffffffffffffffffff168173ffffffffffffffffffffffffffffffffffffffff167f8be0079c531659141344cd1fd0a4f28419497f9722a3daafe3b4186f6b6457e060405160405180910390a35050565b600081600001549050919050565b600061216a612164611d27565b83612722565b9050919050565b600080600061218287878787612755565b9150915061218f81612862565b8192505050949350505050565b600080600660008473ffffffffffffffffffffffffffffffffffffffff1673ffffffffffffffffffffffffffffffffffffffff16815260200190815260200160002090506121e981612149565b91506121f481612a37565b50919050565b60007bffffffffffffffffffffffffffffffffffffffffffffffffffffffff905090565b6000806000858054905090506000811461228c57856001826122409190613609565b815481106122515761225061363d565b5b9060005260206000200160000160049054906101000a90047bffffffffffffffffffffffffffffffffffffffffffffffffffffffff1661228f565b60005b7bffffffffffffffffffffffffffffffffffffffffffffffffffffffff1692506122bd83858763ffffffff16565b9150600081118015612310575043866001836122d99190613609565b815481106122ea576122e961363d565b5b9060005260206000200160000160009054906101000a900463ffffffff1663ffffffff16145b1561239d5761231e826117cf565b8660018361232c9190613609565b8154811061233d5761233c61363d565b5b9060005260206000200160000160046101000a8154817bffffffffffffffffffffffffffffffffffffffffffffffffffffffff02191690837bffffffffffffffffffffffffffffffffffffffffffffffffffffffff16021790555061248d565b8560405180604001604052806123b24361183a565b63ffffffff1681526020016123c6856117cf565b7bffffffffffffffffffffffffffffffffffffffffffffffffffffffff168152509080600181540180825580915050600190039060005260206000200160009091909190915060008201518160000160006101000a81548163ffffffff021916908363ffffffff16021790555060208201518160000160046101000a8154817bffffffffffffffffffffffffffffffffffffffffffffffffffffffff02191690837bffffffffffffffffffffffffffffffffffffffffffffffffffffffff16021790555050505b50935093915050565b505050565b6124a683838361188d565b505050565b8173ffffffffffffffffffffffffffffffffffffffff168373ffffffffffffffffffffffffffffffffffffffff16141580156124e75750600081115b1561269f57600073ffffffffffffffffffffffffffffffffffffffff168373ffffffffffffffffffffffffffffffffffffffff16146125c55760008061256e600860008773ffffffffffffffffffffffffffffffffffffffff1673ffffffffffffffffffffffffffffffffffffffff1681526020019081526020016000206118bd8561221e565b915091508473ffffffffffffffffffffffffffffffffffffffff167fdec2bacdd2f05b59de34da9b523dff8be42e5e38e818c82fdb0bae774387a72483836040516125ba929190613f24565b60405180910390a250505b600073ffffffffffffffffffffffffffffffffffffffff168273ffffffffffffffffffffffffffffffffffffffff161461269e57600080612647600860008673ffffffffffffffffffffffffffffffffffffffff1673ffffffffffffffffffffffffffffffffffffffff1681526020019081526020016000206117b98561221e565b915091508373ffffffffffffffffffffffffffffffffffffffff167fdec2bacdd2f05b59de34da9b523dff8be42e5e38e818c82fdb0bae774387a7248383604051612693929190613f24565b60405180910390a250505b5b505050565b600083838346306040516020016126bf959493929190613f4d565b6040516020818303038152906040528051906020012090509392505050565b600060028284186126ef9190613fcf565b8284166126fc91906133b7565b905092915050565b61270e8282612a4d565b61271c60096118bd8361221e565b50505050565b60008282604051602001612737929190614078565b60405160208183030381529060405280519060200120905092915050565b6000807f7fffffffffffffffffffffffffffffff5d576e7357a4501ddfe92f46681b20a08360001c1115612790576000600391509150612859565b601b8560ff16141580156127a85750601c8560ff1614155b156127ba576000600491509150612859565b6000600187878787604051600081526020016040526040516127df94939291906140af565b6020604051602081039080840390855afa158015612801573d6000803e3d6000fd5b505050602060405103519050600073ffffffffffffffffffffffffffffffffffffffff168173ffffffffffffffffffffffffffffffffffffffff16141561285057600060019250925050612859565b80600092509250505b94509492505050565b60006004811115612876576128756140f4565b5b816004811115612889576128886140f4565b5b141561289457612a34565b600160048111156128a8576128a76140f4565b5b8160048111156128bb576128ba6140f4565b5b14156128fc576040517f08c379a00000000000000000000000000000000000000000000000000000000081526004016128f39061416f565b60405180910390fd5b600260048111156129105761290f6140f4565b5b816004811115612923576129226140f4565b5b1415612964576040517f08c379a000000000000000000000000000000000000000000000000000000000815260040161295b906141db565b60405180910390fd5b60036004811115612978576129776140f4565b5b81600481111561298b5761298a6140f4565b5b14156129cc576040517f08c379a00000000000000000000000000000000000000000000000000000000081526004016129c39061426d565b60405180910390fd5b6004808111156129df576129de6140f4565b5b8160048111156129f2576129f16140f4565b5b1415612a33576040517f08c379a0000000000000000000000000000000000000000000000000000000008152600401612a2a906142ff565b60405180910390fd5b5b50565b6001816000016000828254019250508190555050565b600073ffffffffffffffffffffffffffffffffffffffff168273ffffffffffffffffffffffffffffffffffffffff161415612abd576040517f08c379a0000000000000000000000000000000000000000000000000000000008152600401612ab490614391565b60405180910390fd5b612ac982600083612496565b60008060008473ffffffffffffffffffffffffffffffffffffffff1673ffffffffffffffffffffffffffffffffffffffff16815260200190815260200160002054905081811015612b4f576040517f08c379a0000000000000000000000000000000000000000000000000000000008152600401612b4690614423565b60405180910390fd5b8181036000808573ffffffffffffffffffffffffffffffffffffffff1673ffffffffffffffffffffffffffffffffffffffff168152602001908152602001600020819055508160026000828254612ba69190613609565b92505081905550600073ffffffffffffffffffffffffffffffffffffffff168373ffffffffffffffffffffffffffffffffffffffff167fddf252ad1be2c89b69c2b068fc378daa952ba7f163c4a11628f55a4df523b3ef84604051612c0b9190612e3b565b60405180910390a3612c1f8360008461249b565b505050565b6040518060400160405280600063ffffffff16815260200160007bffffffffffffffffffffffffffffffffffffffffffffffffffffffff1681525090565b600081519050919050565b600082825260208201905092915050565b60005b83811015612c9c578082015181840152602081019050612c81565b83811115612cab576000848401525b50505050565b6000601f19601f8301169050919050565b6000612ccd82612c62565b612cd78185612c6d565b9350612ce7818560208601612c7e565b612cf081612cb1565b840191505092915050565b60006020820190508181036000830152612d158184612cc2565b905092915050565b600080fd5b600073ffffffffffffffffffffffffffffffffffffffff82169050919050565b6000612d4d82612d22565b9050919050565b612d5d81612d42565b8114612d6857600080fd5b50565b600081359050612d7a81612d54565b92915050565b6000819050919050565b612d9381612d80565b8114612d9e57600080fd5b50565b600081359050612db081612d8a565b92915050565b60008060408385031215612dcd57612dcc612d1d565b5b6000612ddb85828601612d6b565b9250506020612dec85828601612da1565b9150509250929050565b60008115159050919050565b612e0b81612df6565b82525050565b6000602082019050612e266000830184612e02565b92915050565b612e3581612d80565b82525050565b6000602082019050612e506000830184612e2c565b92915050565b600080600060608486031215612e6f57612e6e612d1d565b5b6000612e7d86828701612d6b565b9350506020612e8e86828701612d6b565b9250506040612e9f86828701612da1565b9150509250925092565b600060ff82169050919050565b612ebf81612ea9565b82525050565b6000602082019050612eda6000830184612eb6565b92915050565b6000819050919050565b612ef381612ee0565b82525050565b6000602082019050612f0e6000830184612eea565b92915050565b600060208284031215612f2a57612f29612d1d565b5b6000612f3884828501612da1565b91505092915050565b600060208284031215612f5757612f56612d1d565b5b6000612f6584828501612d6b565b91505092915050565b612f7781612d42565b82525050565b6000602082019050612f926000830184612f6e565b92915050565b600063ffffffff82169050919050565b612fb181612f98565b82525050565b6000602082019050612fcc6000830184612fa8565b92915050565b612fdb81612ea9565b8114612fe657600080fd5b50565b600081359050612ff881612fd2565b92915050565b61300781612ee0565b811461301257600080fd5b50565b60008135905061302481612ffe565b92915050565b60008060008060008060c0878903121561304757613046612d1d565b5b600061305589828a01612d6b565b965050602061306689828a01612da1565b955050604061307789828a01612da1565b945050606061308889828a01612fe9565b935050608061309989828a01613015565b92505060a06130aa89828a01613015565b9150509295509295509295565b600080604083850312156130ce576130cd612d1d565b5b60006130dc85828601612d6b565b92505060206130ed85828601612d6b565b9150509250929050565b600080600080600080600060e0888a03121561311657613115612d1d565b5b60006131248a828b01612d6b565b97505060206131358a828b01612d6b565b96505060406131468a828b01612da1565b95505060606131578a828b01612da1565b94505060806131688a828b01612fe9565b93505060a06131798a828b01613015565b92505060c061318a8a828b01613015565b91505092959891949750929550565b6131a281612f98565b81146131ad57600080fd5b50565b6000813590506131bf81613199565b92915050565b600080604083850312156131dc576131db612d1d565b5b60006131ea85828601612d6b565b92505060206131fb858286016131b0565b9150509250929050565b61320e81612f98565b82525050565b60007bffffffffffffffffffffffffffffffffffffffffffffffffffffffff82169050919050565b61324581613214565b82525050565b6040820160008201516132616000850182613205565b506020820151613274602085018261323c565b50505050565b600060408201905061328f600083018461324b565b92915050565b7f4e487b7100000000000000000000000000000000000000000000000000000000600052602260045260246000fd5b600060028204905060018216806132dc57607f821691505b602082108114156132f0576132ef613295565b5b50919050565b7f45524332303a207472616e7366657220616d6f756e742065786365656473206160008201527f6c6c6f77616e6365000000000000000000000000000000000000000000000000602082015250565b6000613352602883612c6d565b915061335d826132f6565b604082019050919050565b6000602082019050818103600083015261338181613345565b9050919050565b7f4e487b7100000000000000000000000000000000000000000000000000000000600052601160045260246000fd5b60006133c282612d80565b91506133cd83612d80565b9250827fffffffffffffffffffffffffffffffffffffffffffffffffffffffffffffffff0382111561340257613401613388565b5b828201905092915050565b7f4552433230566f7465733a20626c6f636b206e6f7420796574206d696e656400600082015250565b6000613443601f83612c6d565b915061344e8261340d565b602082019050919050565b6000602082019050818103600083015261347281613436565b9050919050565b7f6c6f636b2074696d6520686173206e6f7420657870697265642e20506c65617360008201527f652074727920616761696e206c61746572000000000000000000000000000000602082015250565b60006134d5603183612c6d565b91506134e082613479565b604082019050919050565b60006020820190508181036000830152613504816134c8565b9050919050565b7f4f776e61626c653a2063616c6c6572206973206e6f7420746865206f776e6572600082015250565b6000613541602083612c6d565b915061354c8261350b565b602082019050919050565b6000602082019050818103600083015261357081613534565b9050919050565b7f45524332303a206275726e20616d6f756e74206578636565647320616c6c6f7760008201527f616e636500000000000000000000000000000000000000000000000000000000602082015250565b60006135d3602483612c6d565b91506135de82613577565b604082019050919050565b60006020820190508181036000830152613602816135c6565b9050919050565b600061361482612d80565b915061361f83612d80565b92508282101561363257613631613388565b5b828203905092915050565b7f4e487b7100000000000000000000000000000000000000000000000000000000600052603260045260246000fd5b7f45524332303a2064656372656173656420616c6c6f77616e63652062656c6f7760008201527f207a65726f000000000000000000000000000000000000000000000000000000602082015250565b60006136c8602583612c6d565b91506136d38261366c565b604082019050919050565b600060208201905081810360008301526136f7816136bb565b9050919050565b7f4552433230566f7465733a207369676e61747572652065787069726564000000600082015250565b6000613734601d83612c6d565b915061373f826136fe565b602082019050919050565b6000602082019050818103600083015261376381613727565b9050919050565b600060808201905061377f6000830187612eea565b61378c6020830186612f6e565b6137996040830185612e2c565b6137a66060830184612e2c565b95945050505050565b7f4552433230566f7465733a20696e76616c6964206e6f6e636500000000000000600082015250565b60006137e5601983612c6d565b91506137f0826137af565b602082019050919050565b60006020820190508181036000830152613814816137d8565b9050919050565b60008151905061382a81612d8a565b92915050565b60006020828403121561384657613845612d1d565b5b60006138548482850161381b565b91505092915050565b7f45524332305065726d69743a206578706972656420646561646c696e65000000600082015250565b6000613893601d83612c6d565b915061389e8261385d565b602082019050919050565b600060208201905081810360008301526138c281613886565b9050919050565b600060c0820190506138de6000830189612eea565b6138eb6020830188612f6e565b6138f86040830187612f6e565b6139056060830186612e2c565b6139126080830185612e2c565b61391f60a0830184612e2c565b979650505050505050565b7f45524332305065726d69743a20696e76616c6964207369676e61747572650000600082015250565b6000613960601e83612c6d565b915061396b8261392a565b602082019050919050565b6000602082019050818103600083015261398f81613953565b9050919050565b7f4f776e61626c653a206e6577206f776e657220697320746865207a65726f206160008201527f6464726573730000000000000000000000000000000000000000000000000000602082015250565b60006139f2602683612c6d565b91506139fd82613996565b604082019050919050565b60006020820190508181036000830152613a21816139e5565b9050919050565b7f4552433230566f7465733a20746f74616c20737570706c79207269736b73206f60008201527f766572666c6f77696e6720766f74657300000000000000000000000000000000602082015250565b6000613a84603083612c6d565b9150613a8f82613a28565b604082019050919050565b60006020820190508181036000830152613ab381613a77565b9050919050565b7f45524332303a206d696e7420746f20746865207a65726f206164647265737300600082015250565b6000613af0601f83612c6d565b9150613afb82613aba565b602082019050919050565b60006020820190508181036000830152613b1f81613ae3565b9050919050565b7f53616665436173743a2076616c756520646f65736e27742066697420696e203260008201527f3234206269747300000000000000000000000000000000000000000000000000602082015250565b6000613b82602783612c6d565b9150613b8d82613b26565b604082019050919050565b60006020820190508181036000830152613bb181613b75565b9050919050565b7f53616665436173743a2076616c756520646f65736e27742066697420696e203360008201527f3220626974730000000000000000000000000000000000000000000000000000602082015250565b6000613c14602683612c6d565b9150613c1f82613bb8565b604082019050919050565b60006020820190508181036000830152613c4381613c07565b9050919050565b7f45524332303a20617070726f76652066726f6d20746865207a65726f2061646460008201527f7265737300000000000000000000000000000000000000000000000000000000602082015250565b6000613ca6602483612c6d565b9150613cb182613c4a565b604082019050919050565b60006020820190508181036000830152613cd581613c99565b9050919050565b7f45524332303a20617070726f766520746f20746865207a65726f20616464726560008201527f7373000000000000000000000000000000000000000000000000000000000000602082015250565b6000613d38602283612c6d565b9150613d4382613cdc565b604082019050919050565b60006020820190508181036000830152613d6781613d2b565b9050919050565b7f45524332303a207472616e736665722066726f6d20746865207a65726f20616460008201527f6472657373000000000000000000000000000000000000000000000000000000602082015250565b6000613dca602583612c6d565b9150613dd582613d6e565b604082019050919050565b60006020820190508181036000830152613df981613dbd565b9050919050565b7f45524332303a207472616e7366657220746f20746865207a65726f206164647260008201527f6573730000000000000000000000000000000000000000000000000000000000602082015250565b6000613e5c602383612c6d565b9150613e6782613e00565b604082019050919050565b60006020820190508181036000830152613e8b81613e4f565b9050919050565b7f45524332303a207472616e7366657220616d6f756e742065786365656473206260008201527f616c616e63650000000000000000000000000000000000000000000000000000602082015250565b6000613eee602683612c6d565b9150613ef982613e92565b604082019050919050565b60006020820190508181036000830152613f1d81613ee1565b9050919050565b6000604082019050613f396000830185612e2c565b613f466020830184612e2c565b9392505050565b600060a082019050613f626000830188612eea565b613f6f6020830187612eea565b613f7c6040830186612eea565b613f896060830185612e2c565b613f966080830184612f6e565b9695505050505050565b7f4e487b7100000000000000000000000000000000000000000000000000000000600052601260045260246000fd5b6000613fda82612d80565b9150613fe583612d80565b925082613ff557613ff4613fa0565b5b828204905092915050565b600081905092915050565b7f1901000000000000000000000000000000000000000000000000000000000000600082015250565b6000614041600283614000565b915061404c8261400b565b600282019050919050565b6000819050919050565b61407261406d82612ee0565b614057565b82525050565b600061408382614034565b915061408f8285614061565b60208201915061409f8284614061565b6020820191508190509392505050565b60006080820190506140c46000830187612eea565b6140d16020830186612eb6565b6140de6040830185612eea565b6140eb6060830184612eea565b95945050505050565b7f4e487b7100000000000000000000000000000000000000000000000000000000600052602160045260246000fd5b7f45434453413a20696e76616c6964207369676e61747572650000000000000000600082015250565b6000614159601883612c6d565b915061416482614123565b602082019050919050565b600060208201905081810360008301526141888161414c565b9050919050565b7f45434453413a20696e76616c6964207369676e6174757265206c656e67746800600082015250565b60006141c5601f83612c6d565b91506141d08261418f565b602082019050919050565b600060208201905081810360008301526141f4816141b8565b9050919050565b7f45434453413a20696e76616c6964207369676e6174757265202773272076616c60008201527f7565000000000000000000000000000000000000000000000000000000000000602082015250565b6000614257602283612c6d565b9150614262826141fb565b604082019050919050565b600060208201905081810360008301526142868161424a565b9050919050565b7f45434453413a20696e76616c6964207369676e6174757265202776272076616c60008201527f7565000000000000000000000000000000000000000000000000000000000000602082015250565b60006142e9602283612c6d565b91506142f48261428d565b604082019050919050565b60006020820190508181036000830152614318816142dc565b9050919050565b7f45524332303a206275726e2066726f6d20746865207a65726f2061646472657360008201527f7300000000000000000000000000000000000000000000000000000000000000602082015250565b600061437b602183612c6d565b91506143868261431f565b604082019050919050565b600060208201905081810360008301526143aa8161436e565b9050919050565b7f45524332303a206275726e20616d6f756e7420657863656564732062616c616e60008201527f6365000000000000000000000000000000000000000000000000000000000000602082015250565b600061440d602283612c6d565b9150614418826143b1565b604082019050919050565b6000602082019050818103600083015261443c81614400565b905091905056fea264697066735822122065fd82f41148786bc25ac01878614934bd888c05d45078517b2a66ed0f592bbd64736f6c634300080b0033",
  "immutableReferences": {
    "1489": [
      {
        "length": 32,
        "start": 4668
      }
    ],
    "2361": [
      {
        "length": 32,
        "start": 7594
      }
    ],
    "2363": [
      {
        "length": 32,
        "start": 7553
      }
    ],
    "2365": [
      {
        "length": 32,
        "start": 7467
      }
    ],
    "2367": [
      {
        "length": 32,
        "start": 7670
      }
    ],
    "2369": [
      {
        "length": 32,
        "start": 7703
      }
    ],
    "2371": [
      {
        "length": 32,
        "start": 7637
      }
    ]
  },
  "source": "import '@openzeppelin/contracts/token/ERC20/ERC20.sol';\r\nimport '@openzeppelin/contracts/token/ERC20/IERC20.sol';\r\nimport '@openzeppelin/contracts/token/ERC20/extensions/ERC20Burnable.sol';\r\nimport '@openzeppelin/contracts/access/Ownable.sol';\r\nimport '@openzeppelin/contracts/token/ERC20/extensions/draft-ERC20Permit.sol';\r\nimport '@openzeppelin/contracts/token/ERC20/extensions/ERC20Votes.sol';\r\n\r\ncontract Tent_Token is ERC20, ERC20Burnable, Ownable, ERC20Permit, ERC20Votes {\r\n\r\n  uint256 public airdropsAmount = 1*10**decimals();\r\n  address public constant airdropWalletAddress = 0x5B38Da6a701c568545dCfcB03FcB875f56beddC4;\r\n\r\n   mapping(address => uint) public lockTime;\r\n\r\n  constructor() ERC20('Tent Token', 'TENT') ERC20Permit('TentGovernanceToken') {\r\n    _mint(msg.sender, 1e8 * 10**decimals());\r\n  }\r\n\r\n  function _afterTokenTransfer(\r\n    address _from,\r\n    address _to,\r\n    uint256 _amount\r\n  ) internal override(ERC20, ERC20Votes) {\r\n    super._afterTokenTransfer(_from, _to, _amount);\r\n  }\r\n\r\n  function _mint(address _to, uint256 _amount) internal override(ERC20, ERC20Votes) {\r\n    super._mint(_to, _amount);\r\n  }\r\n\r\n  function _burn(address _account, uint256 _amount) internal override(ERC20, ERC20Votes) {\r\n    super._burn(_account, _amount);\r\n  }\r\n\r\n  //Get balance by token address and holder address\r\n  function getBalance(address token, address holder) public view returns(uint) {\r\n    IERC20 token = IERC20(token);\r\n    return token.balanceOf(holder);\r\n  }\r\n\r\n  function getAirdrops() public {\r\n     require(block.timestamp > lockTime[msg.sender], \"lock time has not expired. Please try again later\");\r\n    _mint(msg.sender, airdropsAmount);\r\n\r\n    //updates locktime 1 day from now\r\n    lockTime[msg.sender] = block.timestamp + 1 days;\r\n  }\r\n}",
  "sourcePath": "G:\\Smart_Contract_Testing\\simple_contract\\contracts\\Tent_Token.sol",
  "compiler": {
    "name": "solc",
    "version": "0.8.11+commit.d7f03943.Emscripten.clang"
  },
  "schemaVersion": "3.4.4",
  "updatedAt": "2022-02-18T09:57:19.524Z",
  "networkType": "ethereum",
  "devdoc": {
    "kind": "dev",
    "methods": {
      "DOMAIN_SEPARATOR()": {
        "details": "See {IERC20Permit-DOMAIN_SEPARATOR}."
      },
      "allowance(address,address)": {
        "details": "See {IERC20-allowance}."
      },
      "approve(address,uint256)": {
        "details": "See {IERC20-approve}. Requirements: - `spender` cannot be the zero address."
      },
      "balanceOf(address)": {
        "details": "See {IERC20-balanceOf}."
      },
      "burn(uint256)": {
        "details": "Destroys `amount` tokens from the caller. See {ERC20-_burn}."
      },
      "burnFrom(address,uint256)": {
        "details": "Destroys `amount` tokens from `account`, deducting from the caller's allowance. See {ERC20-_burn} and {ERC20-allowance}. Requirements: - the caller must have allowance for ``accounts``'s tokens of at least `amount`."
      },
      "checkpoints(address,uint32)": {
        "details": "Get the `pos`-th checkpoint for `account`."
      },
      "decimals()": {
        "details": "Returns the number of decimals used to get its user representation. For example, if `decimals` equals `2`, a balance of `505` tokens should be displayed to a user as `5.05` (`505 / 10 ** 2`). Tokens usually opt for a value of 18, imitating the relationship between Ether and Wei. This is the value {ERC20} uses, unless this function is overridden; NOTE: This information is only used for _display_ purposes: it in no way affects any of the arithmetic of the contract, including {IERC20-balanceOf} and {IERC20-transfer}."
      },
      "decreaseAllowance(address,uint256)": {
        "details": "Atomically decreases the allowance granted to `spender` by the caller. This is an alternative to {approve} that can be used as a mitigation for problems described in {IERC20-approve}. Emits an {Approval} event indicating the updated allowance. Requirements: - `spender` cannot be the zero address. - `spender` must have allowance for the caller of at least `subtractedValue`."
      },
      "delegate(address)": {
        "details": "Delegate votes from the sender to `delegatee`."
      },
      "delegateBySig(address,uint256,uint256,uint8,bytes32,bytes32)": {
        "details": "Delegates votes from signer to `delegatee`"
      },
      "delegates(address)": {
        "details": "Get the address `account` is currently delegating to."
      },
      "getPastTotalSupply(uint256)": {
        "details": "Retrieve the `totalSupply` at the end of `blockNumber`. Note, this value is the sum of all balances. It is but NOT the sum of all the delegated votes! Requirements: - `blockNumber` must have been already mined"
      },
      "getPastVotes(address,uint256)": {
        "details": "Retrieve the number of votes for `account` at the end of `blockNumber`. Requirements: - `blockNumber` must have been already mined"
      },
      "getVotes(address)": {
        "details": "Gets the current votes balance for `account`"
      },
      "increaseAllowance(address,uint256)": {
        "details": "Atomically increases the allowance granted to `spender` by the caller. This is an alternative to {approve} that can be used as a mitigation for problems described in {IERC20-approve}. Emits an {Approval} event indicating the updated allowance. Requirements: - `spender` cannot be the zero address."
      },
      "name()": {
        "details": "Returns the name of the token."
      },
      "nonces(address)": {
        "details": "See {IERC20Permit-nonces}."
      },
      "numCheckpoints(address)": {
        "details": "Get number of checkpoints for `account`."
      },
      "owner()": {
        "details": "Returns the address of the current owner."
      },
      "permit(address,address,uint256,uint256,uint8,bytes32,bytes32)": {
        "details": "See {IERC20Permit-permit}."
      },
      "renounceOwnership()": {
        "details": "Leaves the contract without owner. It will not be possible to call `onlyOwner` functions anymore. Can only be called by the current owner. NOTE: Renouncing ownership will leave the contract without an owner, thereby removing any functionality that is only available to the owner."
      },
      "symbol()": {
        "details": "Returns the symbol of the token, usually a shorter version of the name."
      },
      "totalSupply()": {
        "details": "See {IERC20-totalSupply}."
      },
      "transfer(address,uint256)": {
        "details": "See {IERC20-transfer}. Requirements: - `recipient` cannot be the zero address. - the caller must have a balance of at least `amount`."
      },
      "transferFrom(address,address,uint256)": {
        "details": "See {IERC20-transferFrom}. Emits an {Approval} event indicating the updated allowance. This is not required by the EIP. See the note at the beginning of {ERC20}. Requirements: - `sender` and `recipient` cannot be the zero address. - `sender` must have a balance of at least `amount`. - the caller must have allowance for ``sender``'s tokens of at least `amount`."
      },
      "transferOwnership(address)": {
        "details": "Transfers ownership of the contract to a new account (`newOwner`). Can only be called by the current owner."
      }
    },
    "version": 1
  },
  "userdoc": {
    "kind": "user",
    "methods": {},
    "version": 1
  }
}