{
  "contractName": "Tent_Token",
  "abi": [
    {
      "inputs": [],
      "stateMutability": "nonpayable",
      "type": "constructor"
    },
    {
      "anonymous": false,
      "inputs": [
        {
          "indexed": true,
          "internalType": "address",
          "name": "owner",
          "type": "address"
        },
        {
          "indexed": true,
          "internalType": "address",
          "name": "spender",
          "type": "address"
        },
        {
          "indexed": false,
          "internalType": "uint256",
          "name": "value",
          "type": "uint256"
        }
      ],
      "name": "Approval",
      "type": "event"
    },
    {
      "anonymous": false,
      "inputs": [
        {
          "indexed": false,
          "internalType": "address",
          "name": "buyer",
          "type": "address"
        },
        {
          "indexed": false,
          "internalType": "uint256",
          "name": "amountOfETH",
          "type": "uint256"
        },
        {
          "indexed": false,
          "internalType": "uint256",
          "name": "amountOfTokens",
          "type": "uint256"
        }
      ],
      "name": "BuyTokens",
      "type": "event"
    },
    {
      "anonymous": false,
      "inputs": [
        {
          "indexed": true,
          "internalType": "address",
          "name": "delegator",
          "type": "address"
        },
        {
          "indexed": true,
          "internalType": "address",
          "name": "fromDelegate",
          "type": "address"
        },
        {
          "indexed": true,
          "internalType": "address",
          "name": "toDelegate",
          "type": "address"
        }
      ],
      "name": "DelegateChanged",
      "type": "event"
    },
    {
      "anonymous": false,
      "inputs": [
        {
          "indexed": true,
          "internalType": "address",
          "name": "delegate",
          "type": "address"
        },
        {
          "indexed": false,
          "internalType": "uint256",
          "name": "previousBalance",
          "type": "uint256"
        },
        {
          "indexed": false,
          "internalType": "uint256",
          "name": "newBalance",
          "type": "uint256"
        }
      ],
      "name": "DelegateVotesChanged",
      "type": "event"
    },
    {
      "anonymous": false,
      "inputs": [
        {
          "indexed": true,
          "internalType": "address",
          "name": "previousOwner",
          "type": "address"
        },
        {
          "indexed": true,
          "internalType": "address",
          "name": "newOwner",
          "type": "address"
        }
      ],
      "name": "OwnershipTransferred",
      "type": "event"
    },
    {
      "anonymous": false,
      "inputs": [
        {
          "indexed": false,
          "internalType": "address",
          "name": "seller",
          "type": "address"
        },
        {
          "indexed": false,
          "internalType": "uint256",
          "name": "amountOfTokens",
          "type": "uint256"
        },
        {
          "indexed": false,
          "internalType": "uint256",
          "name": "amountOfETH",
          "type": "uint256"
        }
      ],
      "name": "SellTokens",
      "type": "event"
    },
    {
      "anonymous": false,
      "inputs": [
        {
          "indexed": true,
          "internalType": "address",
          "name": "from",
          "type": "address"
        },
        {
          "indexed": true,
          "internalType": "address",
          "name": "to",
          "type": "address"
        },
        {
          "indexed": false,
          "internalType": "uint256",
          "name": "value",
          "type": "uint256"
        }
      ],
      "name": "Transfer",
      "type": "event"
    },
    {
      "inputs": [],
      "name": "DOMAIN_SEPARATOR",
      "outputs": [
        {
          "internalType": "bytes32",
          "name": "",
          "type": "bytes32"
        }
      ],
      "stateMutability": "view",
      "type": "function",
      "constant": true
    },
    {
      "inputs": [
        {
          "internalType": "address",
          "name": "owner",
          "type": "address"
        },
        {
          "internalType": "address",
          "name": "spender",
          "type": "address"
        }
      ],
      "name": "allowance",
      "outputs": [
        {
          "internalType": "uint256",
          "name": "",
          "type": "uint256"
        }
      ],
      "stateMutability": "view",
      "type": "function",
      "constant": true
    },
    {
      "inputs": [
        {
          "internalType": "address",
          "name": "spender",
          "type": "address"
        },
        {
          "internalType": "uint256",
          "name": "amount",
          "type": "uint256"
        }
      ],
      "name": "approve",
      "outputs": [
        {
          "internalType": "bool",
          "name": "",
          "type": "bool"
        }
      ],
      "stateMutability": "nonpayable",
      "type": "function"
    },
    {
      "inputs": [
        {
          "internalType": "address",
          "name": "account",
          "type": "address"
        }
      ],
      "name": "balanceOf",
      "outputs": [
        {
          "internalType": "uint256",
          "name": "",
          "type": "uint256"
        }
      ],
      "stateMutability": "view",
      "type": "function",
      "constant": true
    },
    {
      "inputs": [
        {
          "internalType": "uint256",
          "name": "amount",
          "type": "uint256"
        }
      ],
      "name": "burn",
      "outputs": [],
      "stateMutability": "nonpayable",
      "type": "function"
    },
    {
      "inputs": [
        {
          "internalType": "address",
          "name": "account",
          "type": "address"
        },
        {
          "internalType": "uint256",
          "name": "amount",
          "type": "uint256"
        }
      ],
      "name": "burnFrom",
      "outputs": [],
      "stateMutability": "nonpayable",
      "type": "function"
    },
    {
      "inputs": [
        {
          "internalType": "address",
          "name": "account",
          "type": "address"
        },
        {
          "internalType": "uint32",
          "name": "pos",
          "type": "uint32"
        }
      ],
      "name": "checkpoints",
      "outputs": [
        {
          "components": [
            {
              "internalType": "uint32",
              "name": "fromBlock",
              "type": "uint32"
            },
            {
              "internalType": "uint224",
              "name": "votes",
              "type": "uint224"
            }
          ],
          "internalType": "struct ERC20Votes.Checkpoint",
          "name": "",
          "type": "tuple"
        }
      ],
      "stateMutability": "view",
      "type": "function",
      "constant": true
    },
    {
      "inputs": [],
      "name": "decimals",
      "outputs": [
        {
          "internalType": "uint8",
          "name": "",
          "type": "uint8"
        }
      ],
      "stateMutability": "view",
      "type": "function",
      "constant": true
    },
    {
      "inputs": [
        {
          "internalType": "address",
          "name": "spender",
          "type": "address"
        },
        {
          "internalType": "uint256",
          "name": "subtractedValue",
          "type": "uint256"
        }
      ],
      "name": "decreaseAllowance",
      "outputs": [
        {
          "internalType": "bool",
          "name": "",
          "type": "bool"
        }
      ],
      "stateMutability": "nonpayable",
      "type": "function"
    },
    {
      "inputs": [
        {
          "internalType": "address",
          "name": "delegatee",
          "type": "address"
        }
      ],
      "name": "delegate",
      "outputs": [],
      "stateMutability": "nonpayable",
      "type": "function"
    },
    {
      "inputs": [
        {
          "internalType": "address",
          "name": "delegatee",
          "type": "address"
        },
        {
          "internalType": "uint256",
          "name": "nonce",
          "type": "uint256"
        },
        {
          "internalType": "uint256",
          "name": "expiry",
          "type": "uint256"
        },
        {
          "internalType": "uint8",
          "name": "v",
          "type": "uint8"
        },
        {
          "internalType": "bytes32",
          "name": "r",
          "type": "bytes32"
        },
        {
          "internalType": "bytes32",
          "name": "s",
          "type": "bytes32"
        }
      ],
      "name": "delegateBySig",
      "outputs": [],
      "stateMutability": "nonpayable",
      "type": "function"
    },
    {
      "inputs": [
        {
          "internalType": "address",
          "name": "account",
          "type": "address"
        }
      ],
      "name": "delegates",
      "outputs": [
        {
          "internalType": "address",
          "name": "",
          "type": "address"
        }
      ],
      "stateMutability": "view",
      "type": "function",
      "constant": true
    },
    {
      "inputs": [
        {
          "internalType": "uint256",
          "name": "blockNumber",
          "type": "uint256"
        }
      ],
      "name": "getPastTotalSupply",
      "outputs": [
        {
          "internalType": "uint256",
          "name": "",
          "type": "uint256"
        }
      ],
      "stateMutability": "view",
      "type": "function",
      "constant": true
    },
    {
      "inputs": [
        {
          "internalType": "address",
          "name": "account",
          "type": "address"
        },
        {
          "internalType": "uint256",
          "name": "blockNumber",
          "type": "uint256"
        }
      ],
      "name": "getPastVotes",
      "outputs": [
        {
          "internalType": "uint256",
          "name": "",
          "type": "uint256"
        }
      ],
      "stateMutability": "view",
      "type": "function",
      "constant": true
    },
    {
      "inputs": [
        {
          "internalType": "address",
          "name": "account",
          "type": "address"
        }
      ],
      "name": "getVotes",
      "outputs": [
        {
          "internalType": "uint256",
          "name": "",
          "type": "uint256"
        }
      ],
      "stateMutability": "view",
      "type": "function",
      "constant": true
    },
    {
      "inputs": [
        {
          "internalType": "address",
          "name": "spender",
          "type": "address"
        },
        {
          "internalType": "uint256",
          "name": "addedValue",
          "type": "uint256"
        }
      ],
      "name": "increaseAllowance",
      "outputs": [
        {
          "internalType": "bool",
          "name": "",
          "type": "bool"
        }
      ],
      "stateMutability": "nonpayable",
      "type": "function"
    },
    {
      "inputs": [],
      "name": "name",
      "outputs": [
        {
          "internalType": "string",
          "name": "",
          "type": "string"
        }
      ],
      "stateMutability": "view",
      "type": "function",
      "constant": true
    },
    {
      "inputs": [
        {
          "internalType": "address",
          "name": "owner",
          "type": "address"
        }
      ],
      "name": "nonces",
      "outputs": [
        {
          "internalType": "uint256",
          "name": "",
          "type": "uint256"
        }
      ],
      "stateMutability": "view",
      "type": "function",
      "constant": true
    },
    {
      "inputs": [
        {
          "internalType": "address",
          "name": "account",
          "type": "address"
        }
      ],
      "name": "numCheckpoints",
      "outputs": [
        {
          "internalType": "uint32",
          "name": "",
          "type": "uint32"
        }
      ],
      "stateMutability": "view",
      "type": "function",
      "constant": true
    },
    {
      "inputs": [],
      "name": "owner",
      "outputs": [
        {
          "internalType": "address",
          "name": "",
          "type": "address"
        }
      ],
      "stateMutability": "view",
      "type": "function",
      "constant": true
    },
    {
      "inputs": [
        {
          "internalType": "address",
          "name": "owner",
          "type": "address"
        },
        {
          "internalType": "address",
          "name": "spender",
          "type": "address"
        },
        {
          "internalType": "uint256",
          "name": "value",
          "type": "uint256"
        },
        {
          "internalType": "uint256",
          "name": "deadline",
          "type": "uint256"
        },
        {
          "internalType": "uint8",
          "name": "v",
          "type": "uint8"
        },
        {
          "internalType": "bytes32",
          "name": "r",
          "type": "bytes32"
        },
        {
          "internalType": "bytes32",
          "name": "s",
          "type": "bytes32"
        }
      ],
      "name": "permit",
      "outputs": [],
      "stateMutability": "nonpayable",
      "type": "function"
    },
    {
      "inputs": [],
      "name": "renounceOwnership",
      "outputs": [],
      "stateMutability": "nonpayable",
      "type": "function"
    },
    {
      "inputs": [],
      "name": "symbol",
      "outputs": [
        {
          "internalType": "string",
          "name": "",
          "type": "string"
        }
      ],
      "stateMutability": "view",
      "type": "function",
      "constant": true
    },
    {
      "inputs": [],
      "name": "tokensPerEth",
      "outputs": [
        {
          "internalType": "uint256",
          "name": "",
          "type": "uint256"
        }
      ],
      "stateMutability": "view",
      "type": "function",
      "constant": true
    },
    {
      "inputs": [],
      "name": "totalSupply",
      "outputs": [
        {
          "internalType": "uint256",
          "name": "",
          "type": "uint256"
        }
      ],
      "stateMutability": "view",
      "type": "function",
      "constant": true
    },
    {
      "inputs": [
        {
          "internalType": "address",
          "name": "recipient",
          "type": "address"
        },
        {
          "internalType": "uint256",
          "name": "amount",
          "type": "uint256"
        }
      ],
      "name": "transfer",
      "outputs": [
        {
          "internalType": "bool",
          "name": "",
          "type": "bool"
        }
      ],
      "stateMutability": "nonpayable",
      "type": "function"
    },
    {
      "inputs": [
        {
          "internalType": "address",
          "name": "sender",
          "type": "address"
        },
        {
          "internalType": "address",
          "name": "recipient",
          "type": "address"
        },
        {
          "internalType": "uint256",
          "name": "amount",
          "type": "uint256"
        }
      ],
      "name": "transferFrom",
      "outputs": [
        {
          "internalType": "bool",
          "name": "",
          "type": "bool"
        }
      ],
      "stateMutability": "nonpayable",
      "type": "function"
    },
    {
      "inputs": [
        {
          "internalType": "address",
          "name": "newOwner",
          "type": "address"
        }
      ],
      "name": "transferOwnership",
      "outputs": [],
      "stateMutability": "nonpayable",
      "type": "function"
    },
    {
      "inputs": [],
      "name": "buyTokens",
      "outputs": [
        {
          "internalType": "uint256",
          "name": "tokenAmount",
          "type": "uint256"
        }
      ],
      "stateMutability": "payable",
      "type": "function",
      "payable": true
    },
    {
      "inputs": [
        {
          "internalType": "address",
          "name": "token",
          "type": "address"
        },
        {
          "internalType": "address",
          "name": "holder",
          "type": "address"
        }
      ],
      "name": "getBalance",
      "outputs": [
        {
          "internalType": "uint256",
          "name": "",
          "type": "uint256"
        }
      ],
      "stateMutability": "view",
      "type": "function",
      "constant": true
    }
  ],
  "bytecode": "0x6101606040527f6e71edae12b1b97f4d1f60370fef10105fa2faae0126114a169c64845d6126c9610140908152506064600a553480156200003f57600080fd5b506040518060400160405280601381526020017f54656e74476f7665726e616e6365546f6b656e00000000000000000000000000815250806040518060400160405280600181526020017f31000000000000000000000000000000000000000000000000000000000000008152506040518060400160405280600a81526020017f54656e7420546f6b656e000000000000000000000000000000000000000000008152506040518060400160405280600481526020017f54454e540000000000000000000000000000000000000000000000000000000081525081600390805190602001906200013192919062000ca1565b5080600490805190602001906200014a92919062000ca1565b5050506200016d620001616200026660201b60201c565b6200026e60201b60201c565b60008280519060200120905060008280519060200120905060007f8b73c3c69bb8fe3d512ecc4cf759cc79239f7b179b0ffacaa9a75d522b39400f90508260e081815250508161010081815250504660a08181525050620001d68184846200033460201b60201c565b608081815250503073ffffffffffffffffffffffffffffffffffffffff1660c08173ffffffffffffffffffffffffffffffffffffffff16815250508061012081815250505050505050506200026033620002356200037060201b60201c565b600a62000243919062000eeb565b6305f5e10062000254919062000f3c565b6200037960201b60201c565b6200142c565b600033905090565b6000600560009054906101000a900473ffffffffffffffffffffffffffffffffffffffff16905081600560006101000a81548173ffffffffffffffffffffffffffffffffffffffff021916908373ffffffffffffffffffffffffffffffffffffffff1602179055508173ffffffffffffffffffffffffffffffffffffffff168173ffffffffffffffffffffffffffffffffffffffff167f8be0079c531659141344cd1fd0a4f28419497f9722a3daafe3b4186f6b6457e060405160405180910390a35050565b60008383834630604051602001620003519594939291906200100e565b6040516020818303038152906040528051906020012090509392505050565b60006012905090565b6200039082826200039460201b6200170f1760201c565b5050565b620003ab82826200045260201b6200179c1760201c565b620003bb620005cb60201b60201c565b7bffffffffffffffffffffffffffffffffffffffffffffffffffffffff16620003e9620005ef60201b60201c565b11156200042d576040517f08c379a00000000000000000000000000000000000000000000000000000000081526004016200042490620010f2565b60405180910390fd5b6200044c6009620005f960201b620018fc17836200061160201b60201c565b50505050565b600073ffffffffffffffffffffffffffffffffffffffff168273ffffffffffffffffffffffffffffffffffffffff161415620004c5576040517f08c379a0000000000000000000000000000000000000000000000000000000008152600401620004bc9062001164565b60405180910390fd5b620004d960008383620008c260201b60201c565b8060026000828254620004ed919062001186565b92505081905550806000808473ffffffffffffffffffffffffffffffffffffffff1673ffffffffffffffffffffffffffffffffffffffff168152602001908152602001600020600082825462000544919062001186565b925050819055508173ffffffffffffffffffffffffffffffffffffffff16600073ffffffffffffffffffffffffffffffffffffffff167fddf252ad1be2c89b69c2b068fc378daa952ba7f163c4a11628f55a4df523b3ef83604051620005ab9190620011e3565b60405180910390a3620005c760008383620008c760201b60201c565b5050565b60007bffffffffffffffffffffffffffffffffffffffffffffffffffffffff905090565b6000600254905090565b6000818362000609919062001186565b905092915050565b6000806000858054905090506000811462000686578560018262000636919062001200565b815481106200064a57620006496200123b565b5b9060005260206000200160000160049054906101000a90047bffffffffffffffffffffffffffffffffffffffffffffffffffffffff1662000689565b60005b7bffffffffffffffffffffffffffffffffffffffffffffffffffffffff169250620006b583858760201c565b91506000811180156200070e57504386600183620006d4919062001200565b81548110620006e857620006e76200123b565b5b9060005260206000200160000160009054906101000a900463ffffffff1663ffffffff16145b15620007af576200072a82620008e460201b620019121760201c565b866001836200073a919062001200565b815481106200074e576200074d6200123b565b5b9060005260206000200160000160046101000a8154817bffffffffffffffffffffffffffffffffffffffffffffffffffffffff02191690837bffffffffffffffffffffffffffffffffffffffffffffffffffffffff160217905550620008b9565b856040518060400160405280620007d1436200095260201b6200197d1760201c565b63ffffffff168152602001620007f285620008e460201b620019121760201c565b7bffffffffffffffffffffffffffffffffffffffffffffffffffffffff168152509080600181540180825580915050600190039060005260206000200160009091909190915060008201518160000160006101000a81548163ffffffff021916908363ffffffff16021790555060208201518160000160046101000a8154817bffffffffffffffffffffffffffffffffffffffffffffffffffffffff02191690837bffffffffffffffffffffffffffffffffffffffffffffffffffffffff16021790555050505b50935093915050565b505050565b620008df838383620009a860201b620019d01760201c565b505050565b60007bffffffffffffffffffffffffffffffffffffffffffffffffffffffff80168211156200094a576040517f08c379a00000000000000000000000000000000000000000000000000000000081526004016200094190620012e0565b60405180910390fd5b819050919050565b600063ffffffff8016821115620009a0576040517f08c379a0000000000000000000000000000000000000000000000000000000008152600401620009979062001378565b60405180910390fd5b819050919050565b620009c0838383620009f860201b620019fb1760201c565b620009f3620009d584620009fd60201b60201c565b620009e684620009fd60201b60201c565b8362000a6660201b60201c565b505050565b505050565b6000600760008373ffffffffffffffffffffffffffffffffffffffff1673ffffffffffffffffffffffffffffffffffffffff16815260200190815260200160002060009054906101000a900473ffffffffffffffffffffffffffffffffffffffff169050919050565b8173ffffffffffffffffffffffffffffffffffffffff168373ffffffffffffffffffffffffffffffffffffffff161415801562000aa35750600081115b1562000c8457600073ffffffffffffffffffffffffffffffffffffffff168373ffffffffffffffffffffffffffffffffffffffff161462000b965760008062000b3d600860008773ffffffffffffffffffffffffffffffffffffffff1673ffffffffffffffffffffffffffffffffffffffff16815260200190815260200160002062000c8960201b62001a0017856200061160201b60201c565b915091508473ffffffffffffffffffffffffffffffffffffffff167fdec2bacdd2f05b59de34da9b523dff8be42e5e38e818c82fdb0bae774387a724838360405162000b8b9291906200139a565b60405180910390a250505b600073ffffffffffffffffffffffffffffffffffffffff168273ffffffffffffffffffffffffffffffffffffffff161462000c835760008062000c2a600860008673ffffffffffffffffffffffffffffffffffffffff1673ffffffffffffffffffffffffffffffffffffffff168152602001908152602001600020620005f960201b620018fc17856200061160201b60201c565b915091508373ffffffffffffffffffffffffffffffffffffffff167fdec2bacdd2f05b59de34da9b523dff8be42e5e38e818c82fdb0bae774387a724838360405162000c789291906200139a565b60405180910390a250505b5b505050565b6000818362000c99919062001200565b905092915050565b82805462000caf90620013f6565b90600052602060002090601f01602090048101928262000cd3576000855562000d1f565b82601f1062000cee57805160ff191683800117855562000d1f565b8280016001018555821562000d1f579182015b8281111562000d1e57825182559160200191906001019062000d01565b5b50905062000d2e919062000d32565b5090565b5b8082111562000d4d57600081600090555060010162000d33565b5090565b7f4e487b7100000000000000000000000000000000000000000000000000000000600052601160045260246000fd5b60008160011c9050919050565b6000808291508390505b600185111562000ddf5780860481111562000db75762000db662000d51565b5b600185161562000dc75780820291505b808102905062000dd78562000d80565b945062000d97565b94509492505050565b60008262000dfa576001905062000ecd565b8162000e0a576000905062000ecd565b816001811462000e23576002811462000e2e5762000e64565b600191505062000ecd565b60ff84111562000e435762000e4262000d51565b5b8360020a91508482111562000e5d5762000e5c62000d51565b5b5062000ecd565b5060208310610133831016604e8410600b841016171562000e9e5782820a90508381111562000e985762000e9762000d51565b5b62000ecd565b62000ead848484600162000d8d565b9250905081840481111562000ec75762000ec662000d51565b5b81810290505b9392505050565b6000819050919050565b600060ff82169050919050565b600062000ef88262000ed4565b915062000f058362000ede565b925062000f347fffffffffffffffffffffffffffffffffffffffffffffffffffffffffffffffff848462000de8565b905092915050565b600062000f498262000ed4565b915062000f568362000ed4565b9250817fffffffffffffffffffffffffffffffffffffffffffffffffffffffffffffffff048311821515161562000f925762000f9162000d51565b5b828202905092915050565b6000819050919050565b62000fb28162000f9d565b82525050565b62000fc38162000ed4565b82525050565b600073ffffffffffffffffffffffffffffffffffffffff82169050919050565b600062000ff68262000fc9565b9050919050565b620010088162000fe9565b82525050565b600060a08201905062001025600083018862000fa7565b62001034602083018762000fa7565b62001043604083018662000fa7565b62001052606083018562000fb8565b62001061608083018462000ffd565b9695505050505050565b600082825260208201905092915050565b7f4552433230566f7465733a20746f74616c20737570706c79207269736b73206f60008201527f766572666c6f77696e6720766f74657300000000000000000000000000000000602082015250565b6000620010da6030836200106b565b9150620010e7826200107c565b604082019050919050565b600060208201905081810360008301526200110d81620010cb565b9050919050565b7f45524332303a206d696e7420746f20746865207a65726f206164647265737300600082015250565b60006200114c601f836200106b565b9150620011598262001114565b602082019050919050565b600060208201905081810360008301526200117f816200113d565b9050919050565b6000620011938262000ed4565b9150620011a08362000ed4565b9250827fffffffffffffffffffffffffffffffffffffffffffffffffffffffffffffffff03821115620011d857620011d762000d51565b5b828201905092915050565b6000602082019050620011fa600083018462000fb8565b92915050565b60006200120d8262000ed4565b91506200121a8362000ed4565b92508282101562001230576200122f62000d51565b5b828203905092915050565b7f4e487b7100000000000000000000000000000000000000000000000000000000600052603260045260246000fd5b7f53616665436173743a2076616c756520646f65736e27742066697420696e203260008201527f3234206269747300000000000000000000000000000000000000000000000000602082015250565b6000620012c86027836200106b565b9150620012d5826200126a565b604082019050919050565b60006020820190508181036000830152620012fb81620012b9565b9050919050565b7f53616665436173743a2076616c756520646f65736e27742066697420696e203360008201527f3220626974730000000000000000000000000000000000000000000000000000602082015250565b6000620013606026836200106b565b91506200136d8262001302565b604082019050919050565b60006020820190508181036000830152620013938162001351565b9050919050565b6000604082019050620013b1600083018562000fb8565b620013c0602083018462000fb8565b9392505050565b7f4e487b7100000000000000000000000000000000000000000000000000000000600052602260045260246000fd5b600060028204905060018216806200140f57607f821691505b60208210811415620014265762001425620013c7565b5b50919050565b60805160a05160c05160e05161010051610120516101405161471762001487600039600061138501526000611f1801526000611f5a01526000611f3901526000611e6e01526000611ec401526000611eed01526147176000f3fe6080604052600436106101cd5760003560e01c80637ecebe00116100f7578063c3cda52011610095578063d505accf11610064578063d505accf146106f1578063dd62ed3e1461071a578063f1127ed814610757578063f2fde38b14610794576101cd565b8063c3cda52014610642578063cbdd69b51461066b578063d0febe4c14610696578063d4fac45d146106b4576101cd565b806395d89b41116100d157806395d89b41146105605780639ab24eb01461058b578063a457c2d7146105c8578063a9059cbb14610605576101cd565b80637ecebe00146104bb5780638da5cb5b146104f85780638e539e8c14610523576101cd565b80633a46b1a81161016f5780636fcfff451161013e5780636fcfff451461040157806370a082311461043e578063715018a61461047b57806379cc679014610492576101cd565b80633a46b1a81461033557806342966c6814610372578063587cde1e1461039b5780635c19a95c146103d8576101cd565b806323b872dd116101ab57806323b872dd14610265578063313ce567146102a25780633644e515146102cd57806339509351146102f8576101cd565b806306fdde03146101d2578063095ea7b3146101fd57806318160ddd1461023a575b600080fd5b3480156101de57600080fd5b506101e76107bd565b6040516101f49190612e30565b60405180910390f35b34801561020957600080fd5b50610224600480360381019061021f9190612eeb565b61084f565b6040516102319190612f46565b60405180910390f35b34801561024657600080fd5b5061024f61086d565b60405161025c9190612f70565b60405180910390f35b34801561027157600080fd5b5061028c60048036038101906102879190612f8b565b610877565b6040516102999190612f46565b60405180910390f35b3480156102ae57600080fd5b506102b761096f565b6040516102c49190612ffa565b60405180910390f35b3480156102d957600080fd5b506102e2610978565b6040516102ef919061302e565b60405180910390f35b34801561030457600080fd5b5061031f600480360381019061031a9190612eeb565b610987565b60405161032c9190612f46565b60405180910390f35b34801561034157600080fd5b5061035c60048036038101906103579190612eeb565b610a33565b6040516103699190612f70565b60405180910390f35b34801561037e57600080fd5b5061039960048036038101906103949190613049565b610ac7565b005b3480156103a757600080fd5b506103c260048036038101906103bd9190613076565b610adb565b6040516103cf91906130b2565b60405180910390f35b3480156103e457600080fd5b506103ff60048036038101906103fa9190613076565b610b44565b005b34801561040d57600080fd5b5061042860048036038101906104239190613076565b610b58565b60405161043591906130ec565b60405180910390f35b34801561044a57600080fd5b5061046560048036038101906104609190613076565b610bac565b6040516104729190612f70565b60405180910390f35b34801561048757600080fd5b50610490610bf4565b005b34801561049e57600080fd5b506104b960048036038101906104b49190612eeb565b610c7c565b005b3480156104c757600080fd5b506104e260048036038101906104dd9190613076565b610cf7565b6040516104ef9190612f70565b60405180910390f35b34801561050457600080fd5b5061050d610d47565b60405161051a91906130b2565b60405180910390f35b34801561052f57600080fd5b5061054a60048036038101906105459190613049565b610d71565b6040516105579190612f70565b60405180910390f35b34801561056c57600080fd5b50610575610dc7565b6040516105829190612e30565b60405180910390f35b34801561059757600080fd5b506105b260048036038101906105ad9190613076565b610e59565b6040516105bf9190612f70565b60405180910390f35b3480156105d457600080fd5b506105ef60048036038101906105ea9190612eeb565b610f6a565b6040516105fc9190612f46565b60405180910390f35b34801561061157600080fd5b5061062c60048036038101906106279190612eeb565b611055565b6040516106399190612f46565b60405180910390f35b34801561064e57600080fd5b506106696004803603810190610664919061315f565b611073565b005b34801561067757600080fd5b50610680611177565b60405161068d9190612f70565b60405180910390f35b61069e61117d565b6040516106ab9190612f70565b60405180910390f35b3480156106c057600080fd5b506106db60048036038101906106d691906131ec565b6112b5565b6040516106e89190612f70565b60405180910390f35b3480156106fd57600080fd5b506107186004803603810190610713919061322c565b61133e565b005b34801561072657600080fd5b50610741600480360381019061073c91906131ec565b611480565b60405161074e9190612f70565b60405180910390f35b34801561076357600080fd5b5061077e600480360381019061077991906132fa565b611507565b60405161078b91906133af565b60405180910390f35b3480156107a057600080fd5b506107bb60048036038101906107b69190613076565b611617565b005b6060600380546107cc906133f9565b80601f01602080910402602001604051908101604052809291908181526020018280546107f8906133f9565b80156108455780601f1061081a57610100808354040283529160200191610845565b820191906000526020600020905b81548152906001019060200180831161082857829003601f168201915b5050505050905090565b600061086361085c611a16565b8484611a1e565b6001905092915050565b6000600254905090565b6000610884848484611be9565b6000600160008673ffffffffffffffffffffffffffffffffffffffff1673ffffffffffffffffffffffffffffffffffffffff16815260200190815260200160002060006108cf611a16565b73ffffffffffffffffffffffffffffffffffffffff1673ffffffffffffffffffffffffffffffffffffffff1681526020019081526020016000205490508281101561094f576040517f08c379a00000000000000000000000000000000000000000000000000000000081526004016109469061349d565b60405180910390fd5b6109638561095b611a16565b858403611a1e565b60019150509392505050565b60006012905090565b6000610982611e6a565b905090565b6000610a29610994611a16565b8484600160006109a2611a16565b73ffffffffffffffffffffffffffffffffffffffff1673ffffffffffffffffffffffffffffffffffffffff16815260200190815260200160002060008873ffffffffffffffffffffffffffffffffffffffff1673ffffffffffffffffffffffffffffffffffffffff16815260200190815260200160002054610a2491906134ec565b611a1e565b6001905092915050565b6000438210610a77576040517f08c379a0000000000000000000000000000000000000000000000000000000008152600401610a6e9061358e565b60405180910390fd5b610abf600860008573ffffffffffffffffffffffffffffffffffffffff1673ffffffffffffffffffffffffffffffffffffffff16815260200190815260200160002083611f84565b905092915050565b610ad8610ad2611a16565b82612090565b50565b6000600760008373ffffffffffffffffffffffffffffffffffffffff1673ffffffffffffffffffffffffffffffffffffffff16815260200190815260200160002060009054906101000a900473ffffffffffffffffffffffffffffffffffffffff169050919050565b610b55610b4f611a16565b8261209e565b50565b6000610ba5600860008473ffffffffffffffffffffffffffffffffffffffff1673ffffffffffffffffffffffffffffffffffffffff1681526020019081526020016000208054905061197d565b9050919050565b60008060008373ffffffffffffffffffffffffffffffffffffffff1673ffffffffffffffffffffffffffffffffffffffff168152602001908152602001600020549050919050565b610bfc611a16565b73ffffffffffffffffffffffffffffffffffffffff16610c1a610d47565b73ffffffffffffffffffffffffffffffffffffffff1614610c70576040517f08c379a0000000000000000000000000000000000000000000000000000000008152600401610c67906135fa565b60405180910390fd5b610c7a60006121b8565b565b6000610c8f83610c8a611a16565b611480565b905081811015610cd4576040517f08c379a0000000000000000000000000000000000000000000000000000000008152600401610ccb9061368c565b60405180910390fd5b610ce883610ce0611a16565b848403611a1e565b610cf28383612090565b505050565b6000610d40600660008473ffffffffffffffffffffffffffffffffffffffff1673ffffffffffffffffffffffffffffffffffffffff16815260200190815260200160002061227e565b9050919050565b6000600560009054906101000a900473ffffffffffffffffffffffffffffffffffffffff16905090565b6000438210610db5576040517f08c379a0000000000000000000000000000000000000000000000000000000008152600401610dac9061358e565b60405180910390fd5b610dc0600983611f84565b9050919050565b606060048054610dd6906133f9565b80601f0160208091040260200160405190810160405280929190818152602001828054610e02906133f9565b8015610e4f5780601f10610e2457610100808354040283529160200191610e4f565b820191906000526020600020905b815481529060010190602001808311610e3257829003601f168201915b5050505050905090565b600080600860008473ffffffffffffffffffffffffffffffffffffffff1673ffffffffffffffffffffffffffffffffffffffff16815260200190815260200160002080549050905060008114610f4157600860008473ffffffffffffffffffffffffffffffffffffffff1673ffffffffffffffffffffffffffffffffffffffff168152602001908152602001600020600182610ef591906136ac565b81548110610f0657610f056136e0565b5b9060005260206000200160000160049054906101000a90047bffffffffffffffffffffffffffffffffffffffffffffffffffffffff16610f44565b60005b7bffffffffffffffffffffffffffffffffffffffffffffffffffffffff16915050919050565b60008060016000610f79611a16565b73ffffffffffffffffffffffffffffffffffffffff1673ffffffffffffffffffffffffffffffffffffffff16815260200190815260200160002060008573ffffffffffffffffffffffffffffffffffffffff1673ffffffffffffffffffffffffffffffffffffffff16815260200190815260200160002054905082811015611036576040517f08c379a000000000000000000000000000000000000000000000000000000000815260040161102d90613781565b60405180910390fd5b61104a611041611a16565b85858403611a1e565b600191505092915050565b6000611069611062611a16565b8484611be9565b6001905092915050565b834211156110b6576040517f08c379a00000000000000000000000000000000000000000000000000000000081526004016110ad906137ed565b60405180910390fd5b60006111186111107fe48329057bfd03d55e49b547132e39cffd9c1820ad7b9d4c5307691425d15adf8989896040516020016110f5949392919061380d565b6040516020818303038152906040528051906020012061228c565b8585856122a6565b9050611123816122d1565b8614611164576040517f08c379a000000000000000000000000000000000000000000000000000000000815260040161115b9061389e565b60405180910390fd5b61116e818861209e565b50505050505050565b600a5481565b60008034116111c1576040517f08c379a00000000000000000000000000000000000000000000000000000000081526004016111b89061390a565b60405180910390fd5b6000600a54346111d1919061392a565b905060006111de30610bac565b905081811015611223576040517f08c379a000000000000000000000000000000000000000000000000000000000815260040161121a906139f6565b60405180910390fd5b600061122f3384611055565b905080611271576040517f08c379a000000000000000000000000000000000000000000000000000000000815260040161126890613a62565b60405180910390fd5b7f0a37b72bb67eee30e09084cf386f8a17817c57f620c3ab95fb25d6a20356ec773334856040516112a493929190613a82565b60405180910390a182935050505090565b6000808390508073ffffffffffffffffffffffffffffffffffffffff166370a08231846040518263ffffffff1660e01b81526004016112f491906130b2565b602060405180830381865afa158015611311573d6000803e3d6000fd5b505050506040513d601f19601f820116820180604052508101906113359190613ace565b91505092915050565b83421115611381576040517f08c379a000000000000000000000000000000000000000000000000000000000815260040161137890613b47565b60405180910390fd5b60007f00000000000000000000000000000000000000000000000000000000000000008888886113b08c6122d1565b896040516020016113c696959493929190613b67565b60405160208183030381529060405280519060200120905060006113e98261228c565b905060006113f9828787876122a6565b90508973ffffffffffffffffffffffffffffffffffffffff168173ffffffffffffffffffffffffffffffffffffffff1614611469576040517f08c379a000000000000000000000000000000000000000000000000000000000815260040161146090613c14565b60405180910390fd5b6114748a8a8a611a1e565b50505050505050505050565b6000600160008473ffffffffffffffffffffffffffffffffffffffff1673ffffffffffffffffffffffffffffffffffffffff16815260200190815260200160002060008373ffffffffffffffffffffffffffffffffffffffff1673ffffffffffffffffffffffffffffffffffffffff16815260200190815260200160002054905092915050565b61150f612d59565b600860008473ffffffffffffffffffffffffffffffffffffffff1673ffffffffffffffffffffffffffffffffffffffff1681526020019081526020016000208263ffffffff1681548110611566576115656136e0565b5b906000526020600020016040518060400160405290816000820160009054906101000a900463ffffffff1663ffffffff1663ffffffff1681526020016000820160049054906101000a90047bffffffffffffffffffffffffffffffffffffffffffffffffffffffff167bffffffffffffffffffffffffffffffffffffffffffffffffffffffff167bffffffffffffffffffffffffffffffffffffffffffffffffffffffff1681525050905092915050565b61161f611a16565b73ffffffffffffffffffffffffffffffffffffffff1661163d610d47565b73ffffffffffffffffffffffffffffffffffffffff1614611693576040517f08c379a000000000000000000000000000000000000000000000000000000000815260040161168a906135fa565b60405180910390fd5b600073ffffffffffffffffffffffffffffffffffffffff168173ffffffffffffffffffffffffffffffffffffffff161415611703576040517f08c379a00000000000000000000000000000000000000000000000000000000081526004016116fa90613ca6565b60405180910390fd5b61170c816121b8565b50565b611719828261179c565b61172161232f565b7bffffffffffffffffffffffffffffffffffffffffffffffffffffffff1661174761086d565b1115611788576040517f08c379a000000000000000000000000000000000000000000000000000000000815260040161177f90613d38565b60405180910390fd5b61179660096118fc83612353565b50505050565b600073ffffffffffffffffffffffffffffffffffffffff168273ffffffffffffffffffffffffffffffffffffffff16141561180c576040517f08c379a000000000000000000000000000000000000000000000000000000000815260040161180390613da4565b60405180910390fd5b611818600083836125cb565b806002600082825461182a91906134ec565b92505081905550806000808473ffffffffffffffffffffffffffffffffffffffff1673ffffffffffffffffffffffffffffffffffffffff168152602001908152602001600020600082825461187f91906134ec565b925050819055508173ffffffffffffffffffffffffffffffffffffffff16600073ffffffffffffffffffffffffffffffffffffffff167fddf252ad1be2c89b69c2b068fc378daa952ba7f163c4a11628f55a4df523b3ef836040516118e49190612f70565b60405180910390a36118f8600083836125d0565b5050565b6000818361190a91906134ec565b905092915050565b60007bffffffffffffffffffffffffffffffffffffffffffffffffffffffff8016821115611975576040517f08c379a000000000000000000000000000000000000000000000000000000000815260040161196c90613e36565b60405180910390fd5b819050919050565b600063ffffffff80168211156119c8576040517f08c379a00000000000000000000000000000000000000000000000000000000081526004016119bf90613ec8565b60405180910390fd5b819050919050565b6119db8383836119fb565b6119f66119e784610adb565b6119f084610adb565b836125e0565b505050565b505050565b60008183611a0e91906136ac565b905092915050565b600033905090565b600073ffffffffffffffffffffffffffffffffffffffff168373ffffffffffffffffffffffffffffffffffffffff161415611a8e576040517f08c379a0000000000000000000000000000000000000000000000000000000008152600401611a8590613f5a565b60405180910390fd5b600073ffffffffffffffffffffffffffffffffffffffff168273ffffffffffffffffffffffffffffffffffffffff161415611afe576040517f08c379a0000000000000000000000000000000000000000000000000000000008152600401611af590613fec565b60405180910390fd5b80600160008573ffffffffffffffffffffffffffffffffffffffff1673ffffffffffffffffffffffffffffffffffffffff16815260200190815260200160002060008473ffffffffffffffffffffffffffffffffffffffff1673ffffffffffffffffffffffffffffffffffffffff168152602001908152602001600020819055508173ffffffffffffffffffffffffffffffffffffffff168373ffffffffffffffffffffffffffffffffffffffff167f8c5be1e5ebec7d5bd14f71427d1e84f3dd0314c0f7b2291e5b200ac8c7c3b92583604051611bdc9190612f70565b60405180910390a3505050565b600073ffffffffffffffffffffffffffffffffffffffff168373ffffffffffffffffffffffffffffffffffffffff161415611c59576040517f08c379a0000000000000000000000000000000000000000000000000000000008152600401611c509061407e565b60405180910390fd5b600073ffffffffffffffffffffffffffffffffffffffff168273ffffffffffffffffffffffffffffffffffffffff161415611cc9576040517f08c379a0000000000000000000000000000000000000000000000000000000008152600401611cc090614110565b60405180910390fd5b611cd48383836125cb565b60008060008573ffffffffffffffffffffffffffffffffffffffff1673ffffffffffffffffffffffffffffffffffffffff16815260200190815260200160002054905081811015611d5a576040517f08c379a0000000000000000000000000000000000000000000000000000000008152600401611d51906141a2565b60405180910390fd5b8181036000808673ffffffffffffffffffffffffffffffffffffffff1673ffffffffffffffffffffffffffffffffffffffff16815260200190815260200160002081905550816000808573ffffffffffffffffffffffffffffffffffffffff1673ffffffffffffffffffffffffffffffffffffffff1681526020019081526020016000206000828254611ded91906134ec565b925050819055508273ffffffffffffffffffffffffffffffffffffffff168473ffffffffffffffffffffffffffffffffffffffff167fddf252ad1be2c89b69c2b068fc378daa952ba7f163c4a11628f55a4df523b3ef84604051611e519190612f70565b60405180910390a3611e648484846125d0565b50505050565b60007f000000000000000000000000000000000000000000000000000000000000000073ffffffffffffffffffffffffffffffffffffffff163073ffffffffffffffffffffffffffffffffffffffff16148015611ee657507f000000000000000000000000000000000000000000000000000000000000000046145b15611f13577f00000000000000000000000000000000000000000000000000000000000000009050611f81565b611f7e7f00000000000000000000000000000000000000000000000000000000000000007f00000000000000000000000000000000000000000000000000000000000000007f00000000000000000000000000000000000000000000000000000000000000006127d9565b90505b90565b6000808380549050905060005b81811015612003576000611fa58284612813565b905084868281548110611fbb57611fba6136e0565b5b9060005260206000200160000160009054906101000a900463ffffffff1663ffffffff161115611fed57809250611ffd565b600181611ffa91906134ec565b91505b50611f91565b60008214612065578460018361201991906136ac565b8154811061202a576120296136e0565b5b9060005260206000200160000160049054906101000a90047bffffffffffffffffffffffffffffffffffffffffffffffffffffffff16612068565b60005b7bffffffffffffffffffffffffffffffffffffffffffffffffffffffff169250505092915050565b61209a8282612839565b5050565b60006120a983610adb565b905060006120b684610bac565b905082600760008673ffffffffffffffffffffffffffffffffffffffff1673ffffffffffffffffffffffffffffffffffffffff16815260200190815260200160002060006101000a81548173ffffffffffffffffffffffffffffffffffffffff021916908373ffffffffffffffffffffffffffffffffffffffff1602179055508273ffffffffffffffffffffffffffffffffffffffff168273ffffffffffffffffffffffffffffffffffffffff168573ffffffffffffffffffffffffffffffffffffffff167f3134e8a2e6d97e929a7e54011ea5485d7d196dd5f0ba4d4ef95803e8e3fc257f60405160405180910390a46121b28284836125e0565b50505050565b6000600560009054906101000a900473ffffffffffffffffffffffffffffffffffffffff16905081600560006101000a81548173ffffffffffffffffffffffffffffffffffffffff021916908373ffffffffffffffffffffffffffffffffffffffff1602179055508173ffffffffffffffffffffffffffffffffffffffff168173ffffffffffffffffffffffffffffffffffffffff167f8be0079c531659141344cd1fd0a4f28419497f9722a3daafe3b4186f6b6457e060405160405180910390a35050565b600081600001549050919050565b600061229f612299611e6a565b83612857565b9050919050565b60008060006122b78787878761288a565b915091506122c481612997565b8192505050949350505050565b600080600660008473ffffffffffffffffffffffffffffffffffffffff1673ffffffffffffffffffffffffffffffffffffffff168152602001908152602001600020905061231e8161227e565b915061232981612b6c565b50919050565b60007bffffffffffffffffffffffffffffffffffffffffffffffffffffffff905090565b600080600085805490509050600081146123c1578560018261237591906136ac565b81548110612386576123856136e0565b5b9060005260206000200160000160049054906101000a90047bffffffffffffffffffffffffffffffffffffffffffffffffffffffff166123c4565b60005b7bffffffffffffffffffffffffffffffffffffffffffffffffffffffff1692506123f283858763ffffffff16565b91506000811180156124455750438660018361240e91906136ac565b8154811061241f5761241e6136e0565b5b9060005260206000200160000160009054906101000a900463ffffffff1663ffffffff16145b156124d25761245382611912565b8660018361246191906136ac565b81548110612472576124716136e0565b5b9060005260206000200160000160046101000a8154817bffffffffffffffffffffffffffffffffffffffffffffffffffffffff02191690837bffffffffffffffffffffffffffffffffffffffffffffffffffffffff1602179055506125c2565b8560405180604001604052806124e74361197d565b63ffffffff1681526020016124fb85611912565b7bffffffffffffffffffffffffffffffffffffffffffffffffffffffff168152509080600181540180825580915050600190039060005260206000200160009091909190915060008201518160000160006101000a81548163ffffffff021916908363ffffffff16021790555060208201518160000160046101000a8154817bffffffffffffffffffffffffffffffffffffffffffffffffffffffff02191690837bffffffffffffffffffffffffffffffffffffffffffffffffffffffff16021790555050505b50935093915050565b505050565b6125db8383836119d0565b505050565b8173ffffffffffffffffffffffffffffffffffffffff168373ffffffffffffffffffffffffffffffffffffffff161415801561261c5750600081115b156127d457600073ffffffffffffffffffffffffffffffffffffffff168373ffffffffffffffffffffffffffffffffffffffff16146126fa576000806126a3600860008773ffffffffffffffffffffffffffffffffffffffff1673ffffffffffffffffffffffffffffffffffffffff168152602001908152602001600020611a0085612353565b915091508473ffffffffffffffffffffffffffffffffffffffff167fdec2bacdd2f05b59de34da9b523dff8be42e5e38e818c82fdb0bae774387a72483836040516126ef9291906141c2565b60405180910390a250505b600073ffffffffffffffffffffffffffffffffffffffff168273ffffffffffffffffffffffffffffffffffffffff16146127d35760008061277c600860008673ffffffffffffffffffffffffffffffffffffffff1673ffffffffffffffffffffffffffffffffffffffff1681526020019081526020016000206118fc85612353565b915091508373ffffffffffffffffffffffffffffffffffffffff167fdec2bacdd2f05b59de34da9b523dff8be42e5e38e818c82fdb0bae774387a72483836040516127c89291906141c2565b60405180910390a250505b5b505050565b600083838346306040516020016127f49594939291906141eb565b6040516020818303038152906040528051906020012090509392505050565b60006002828418612824919061426d565b82841661283191906134ec565b905092915050565b6128438282612b82565b6128516009611a0083612353565b50505050565b6000828260405160200161286c929190614316565b60405160208183030381529060405280519060200120905092915050565b6000807f7fffffffffffffffffffffffffffffff5d576e7357a4501ddfe92f46681b20a08360001c11156128c557600060039150915061298e565b601b8560ff16141580156128dd5750601c8560ff1614155b156128ef57600060049150915061298e565b600060018787878760405160008152602001604052604051612914949392919061434d565b6020604051602081039080840390855afa158015612936573d6000803e3d6000fd5b505050602060405103519050600073ffffffffffffffffffffffffffffffffffffffff168173ffffffffffffffffffffffffffffffffffffffff1614156129855760006001925092505061298e565b80600092509250505b94509492505050565b600060048111156129ab576129aa614392565b5b8160048111156129be576129bd614392565b5b14156129c957612b69565b600160048111156129dd576129dc614392565b5b8160048111156129f0576129ef614392565b5b1415612a31576040517f08c379a0000000000000000000000000000000000000000000000000000000008152600401612a289061440d565b60405180910390fd5b60026004811115612a4557612a44614392565b5b816004811115612a5857612a57614392565b5b1415612a99576040517f08c379a0000000000000000000000000000000000000000000000000000000008152600401612a9090614479565b60405180910390fd5b60036004811115612aad57612aac614392565b5b816004811115612ac057612abf614392565b5b1415612b01576040517f08c379a0000000000000000000000000000000000000000000000000000000008152600401612af89061450b565b60405180910390fd5b600480811115612b1457612b13614392565b5b816004811115612b2757612b26614392565b5b1415612b68576040517f08c379a0000000000000000000000000000000000000000000000000000000008152600401612b5f9061459d565b60405180910390fd5b5b50565b6001816000016000828254019250508190555050565b600073ffffffffffffffffffffffffffffffffffffffff168273ffffffffffffffffffffffffffffffffffffffff161415612bf2576040517f08c379a0000000000000000000000000000000000000000000000000000000008152600401612be99061462f565b60405180910390fd5b612bfe826000836125cb565b60008060008473ffffffffffffffffffffffffffffffffffffffff1673ffffffffffffffffffffffffffffffffffffffff16815260200190815260200160002054905081811015612c84576040517f08c379a0000000000000000000000000000000000000000000000000000000008152600401612c7b906146c1565b60405180910390fd5b8181036000808573ffffffffffffffffffffffffffffffffffffffff1673ffffffffffffffffffffffffffffffffffffffff168152602001908152602001600020819055508160026000828254612cdb91906136ac565b92505081905550600073ffffffffffffffffffffffffffffffffffffffff168373ffffffffffffffffffffffffffffffffffffffff167fddf252ad1be2c89b69c2b068fc378daa952ba7f163c4a11628f55a4df523b3ef84604051612d409190612f70565b60405180910390a3612d54836000846125d0565b505050565b6040518060400160405280600063ffffffff16815260200160007bffffffffffffffffffffffffffffffffffffffffffffffffffffffff1681525090565b600081519050919050565b600082825260208201905092915050565b60005b83811015612dd1578082015181840152602081019050612db6565b83811115612de0576000848401525b50505050565b6000601f19601f8301169050919050565b6000612e0282612d97565b612e0c8185612da2565b9350612e1c818560208601612db3565b612e2581612de6565b840191505092915050565b60006020820190508181036000830152612e4a8184612df7565b905092915050565b600080fd5b600073ffffffffffffffffffffffffffffffffffffffff82169050919050565b6000612e8282612e57565b9050919050565b612e9281612e77565b8114612e9d57600080fd5b50565b600081359050612eaf81612e89565b92915050565b6000819050919050565b612ec881612eb5565b8114612ed357600080fd5b50565b600081359050612ee581612ebf565b92915050565b60008060408385031215612f0257612f01612e52565b5b6000612f1085828601612ea0565b9250506020612f2185828601612ed6565b9150509250929050565b60008115159050919050565b612f4081612f2b565b82525050565b6000602082019050612f5b6000830184612f37565b92915050565b612f6a81612eb5565b82525050565b6000602082019050612f856000830184612f61565b92915050565b600080600060608486031215612fa457612fa3612e52565b5b6000612fb286828701612ea0565b9350506020612fc386828701612ea0565b9250506040612fd486828701612ed6565b9150509250925092565b600060ff82169050919050565b612ff481612fde565b82525050565b600060208201905061300f6000830184612feb565b92915050565b6000819050919050565b61302881613015565b82525050565b6000602082019050613043600083018461301f565b92915050565b60006020828403121561305f5761305e612e52565b5b600061306d84828501612ed6565b91505092915050565b60006020828403121561308c5761308b612e52565b5b600061309a84828501612ea0565b91505092915050565b6130ac81612e77565b82525050565b60006020820190506130c760008301846130a3565b92915050565b600063ffffffff82169050919050565b6130e6816130cd565b82525050565b600060208201905061310160008301846130dd565b92915050565b61311081612fde565b811461311b57600080fd5b50565b60008135905061312d81613107565b92915050565b61313c81613015565b811461314757600080fd5b50565b60008135905061315981613133565b92915050565b60008060008060008060c0878903121561317c5761317b612e52565b5b600061318a89828a01612ea0565b965050602061319b89828a01612ed6565b95505060406131ac89828a01612ed6565b94505060606131bd89828a0161311e565b93505060806131ce89828a0161314a565b92505060a06131df89828a0161314a565b9150509295509295509295565b6000806040838503121561320357613202612e52565b5b600061321185828601612ea0565b925050602061322285828601612ea0565b9150509250929050565b600080600080600080600060e0888a03121561324b5761324a612e52565b5b60006132598a828b01612ea0565b975050602061326a8a828b01612ea0565b965050604061327b8a828b01612ed6565b955050606061328c8a828b01612ed6565b945050608061329d8a828b0161311e565b93505060a06132ae8a828b0161314a565b92505060c06132bf8a828b0161314a565b91505092959891949750929550565b6132d7816130cd565b81146132e257600080fd5b50565b6000813590506132f4816132ce565b92915050565b6000806040838503121561331157613310612e52565b5b600061331f85828601612ea0565b9250506020613330858286016132e5565b9150509250929050565b613343816130cd565b82525050565b60007bffffffffffffffffffffffffffffffffffffffffffffffffffffffff82169050919050565b61337a81613349565b82525050565b604082016000820151613396600085018261333a565b5060208201516133a96020850182613371565b50505050565b60006040820190506133c46000830184613380565b92915050565b7f4e487b7100000000000000000000000000000000000000000000000000000000600052602260045260246000fd5b6000600282049050600182168061341157607f821691505b60208210811415613425576134246133ca565b5b50919050565b7f45524332303a207472616e7366657220616d6f756e742065786365656473206160008201527f6c6c6f77616e6365000000000000000000000000000000000000000000000000602082015250565b6000613487602883612da2565b91506134928261342b565b604082019050919050565b600060208201905081810360008301526134b68161347a565b9050919050565b7f4e487b7100000000000000000000000000000000000000000000000000000000600052601160045260246000fd5b60006134f782612eb5565b915061350283612eb5565b9250827fffffffffffffffffffffffffffffffffffffffffffffffffffffffffffffffff03821115613537576135366134bd565b5b828201905092915050565b7f4552433230566f7465733a20626c6f636b206e6f7420796574206d696e656400600082015250565b6000613578601f83612da2565b915061358382613542565b602082019050919050565b600060208201905081810360008301526135a78161356b565b9050919050565b7f4f776e61626c653a2063616c6c6572206973206e6f7420746865206f776e6572600082015250565b60006135e4602083612da2565b91506135ef826135ae565b602082019050919050565b60006020820190508181036000830152613613816135d7565b9050919050565b7f45524332303a206275726e20616d6f756e74206578636565647320616c6c6f7760008201527f616e636500000000000000000000000000000000000000000000000000000000602082015250565b6000613676602483612da2565b91506136818261361a565b604082019050919050565b600060208201905081810360008301526136a581613669565b9050919050565b60006136b782612eb5565b91506136c283612eb5565b9250828210156136d5576136d46134bd565b5b828203905092915050565b7f4e487b7100000000000000000000000000000000000000000000000000000000600052603260045260246000fd5b7f45524332303a2064656372656173656420616c6c6f77616e63652062656c6f7760008201527f207a65726f000000000000000000000000000000000000000000000000000000602082015250565b600061376b602583612da2565b91506137768261370f565b604082019050919050565b6000602082019050818103600083015261379a8161375e565b9050919050565b7f4552433230566f7465733a207369676e61747572652065787069726564000000600082015250565b60006137d7601d83612da2565b91506137e2826137a1565b602082019050919050565b60006020820190508181036000830152613806816137ca565b9050919050565b6000608082019050613822600083018761301f565b61382f60208301866130a3565b61383c6040830185612f61565b6138496060830184612f61565b95945050505050565b7f4552433230566f7465733a20696e76616c6964206e6f6e636500000000000000600082015250565b6000613888601983612da2565b915061389382613852565b602082019050919050565b600060208201905081810360008301526138b78161387b565b9050919050565b7f53656e642045544820746f2062757920736f6d6520746f6b656e730000000000600082015250565b60006138f4601b83612da2565b91506138ff826138be565b602082019050919050565b60006020820190508181036000830152613923816138e7565b9050919050565b600061393582612eb5565b915061394083612eb5565b9250817fffffffffffffffffffffffffffffffffffffffffffffffffffffffffffffffff0483118215151615613979576139786134bd565b5b828202905092915050565b7f56656e646f7220636f6e747261637420686173206e6f7420656e6f756768207460008201527f6f6b656e7320696e206974732062616c616e6365000000000000000000000000602082015250565b60006139e0603483612da2565b91506139eb82613984565b604082019050919050565b60006020820190508181036000830152613a0f816139d3565b9050919050565b7f4661696c656420746f207472616e7366657220746f6b656e20746f2075736572600082015250565b6000613a4c602083612da2565b9150613a5782613a16565b602082019050919050565b60006020820190508181036000830152613a7b81613a3f565b9050919050565b6000606082019050613a9760008301866130a3565b613aa46020830185612f61565b613ab16040830184612f61565b949350505050565b600081519050613ac881612ebf565b92915050565b600060208284031215613ae457613ae3612e52565b5b6000613af284828501613ab9565b91505092915050565b7f45524332305065726d69743a206578706972656420646561646c696e65000000600082015250565b6000613b31601d83612da2565b9150613b3c82613afb565b602082019050919050565b60006020820190508181036000830152613b6081613b24565b9050919050565b600060c082019050613b7c600083018961301f565b613b8960208301886130a3565b613b9660408301876130a3565b613ba36060830186612f61565b613bb06080830185612f61565b613bbd60a0830184612f61565b979650505050505050565b7f45524332305065726d69743a20696e76616c6964207369676e61747572650000600082015250565b6000613bfe601e83612da2565b9150613c0982613bc8565b602082019050919050565b60006020820190508181036000830152613c2d81613bf1565b9050919050565b7f4f776e61626c653a206e6577206f776e657220697320746865207a65726f206160008201527f6464726573730000000000000000000000000000000000000000000000000000602082015250565b6000613c90602683612da2565b9150613c9b82613c34565b604082019050919050565b60006020820190508181036000830152613cbf81613c83565b9050919050565b7f4552433230566f7465733a20746f74616c20737570706c79207269736b73206f60008201527f766572666c6f77696e6720766f74657300000000000000000000000000000000602082015250565b6000613d22603083612da2565b9150613d2d82613cc6565b604082019050919050565b60006020820190508181036000830152613d5181613d15565b9050919050565b7f45524332303a206d696e7420746f20746865207a65726f206164647265737300600082015250565b6000613d8e601f83612da2565b9150613d9982613d58565b602082019050919050565b60006020820190508181036000830152613dbd81613d81565b9050919050565b7f53616665436173743a2076616c756520646f65736e27742066697420696e203260008201527f3234206269747300000000000000000000000000000000000000000000000000602082015250565b6000613e20602783612da2565b9150613e2b82613dc4565b604082019050919050565b60006020820190508181036000830152613e4f81613e13565b9050919050565b7f53616665436173743a2076616c756520646f65736e27742066697420696e203360008201527f3220626974730000000000000000000000000000000000000000000000000000602082015250565b6000613eb2602683612da2565b9150613ebd82613e56565b604082019050919050565b60006020820190508181036000830152613ee181613ea5565b9050919050565b7f45524332303a20617070726f76652066726f6d20746865207a65726f2061646460008201527f7265737300000000000000000000000000000000000000000000000000000000602082015250565b6000613f44602483612da2565b9150613f4f82613ee8565b604082019050919050565b60006020820190508181036000830152613f7381613f37565b9050919050565b7f45524332303a20617070726f766520746f20746865207a65726f20616464726560008201527f7373000000000000000000000000000000000000000000000000000000000000602082015250565b6000613fd6602283612da2565b9150613fe182613f7a565b604082019050919050565b6000602082019050818103600083015261400581613fc9565b9050919050565b7f45524332303a207472616e736665722066726f6d20746865207a65726f20616460008201527f6472657373000000000000000000000000000000000000000000000000000000602082015250565b6000614068602583612da2565b91506140738261400c565b604082019050919050565b600060208201905081810360008301526140978161405b565b9050919050565b7f45524332303a207472616e7366657220746f20746865207a65726f206164647260008201527f6573730000000000000000000000000000000000000000000000000000000000602082015250565b60006140fa602383612da2565b91506141058261409e565b604082019050919050565b60006020820190508181036000830152614129816140ed565b9050919050565b7f45524332303a207472616e7366657220616d6f756e742065786365656473206260008201527f616c616e63650000000000000000000000000000000000000000000000000000602082015250565b600061418c602683612da2565b915061419782614130565b604082019050919050565b600060208201905081810360008301526141bb8161417f565b9050919050565b60006040820190506141d76000830185612f61565b6141e46020830184612f61565b9392505050565b600060a082019050614200600083018861301f565b61420d602083018761301f565b61421a604083018661301f565b6142276060830185612f61565b61423460808301846130a3565b9695505050505050565b7f4e487b7100000000000000000000000000000000000000000000000000000000600052601260045260246000fd5b600061427882612eb5565b915061428383612eb5565b9250826142935761429261423e565b5b828204905092915050565b600081905092915050565b7f1901000000000000000000000000000000000000000000000000000000000000600082015250565b60006142df60028361429e565b91506142ea826142a9565b600282019050919050565b6000819050919050565b61431061430b82613015565b6142f5565b82525050565b6000614321826142d2565b915061432d82856142ff565b60208201915061433d82846142ff565b6020820191508190509392505050565b6000608082019050614362600083018761301f565b61436f6020830186612feb565b61437c604083018561301f565b614389606083018461301f565b95945050505050565b7f4e487b7100000000000000000000000000000000000000000000000000000000600052602160045260246000fd5b7f45434453413a20696e76616c6964207369676e61747572650000000000000000600082015250565b60006143f7601883612da2565b9150614402826143c1565b602082019050919050565b60006020820190508181036000830152614426816143ea565b9050919050565b7f45434453413a20696e76616c6964207369676e6174757265206c656e67746800600082015250565b6000614463601f83612da2565b915061446e8261442d565b602082019050919050565b6000602082019050818103600083015261449281614456565b9050919050565b7f45434453413a20696e76616c6964207369676e6174757265202773272076616c60008201527f7565000000000000000000000000000000000000000000000000000000000000602082015250565b60006144f5602283612da2565b915061450082614499565b604082019050919050565b60006020820190508181036000830152614524816144e8565b9050919050565b7f45434453413a20696e76616c6964207369676e6174757265202776272076616c60008201527f7565000000000000000000000000000000000000000000000000000000000000602082015250565b6000614587602283612da2565b91506145928261452b565b604082019050919050565b600060208201905081810360008301526145b68161457a565b9050919050565b7f45524332303a206275726e2066726f6d20746865207a65726f2061646472657360008201527f7300000000000000000000000000000000000000000000000000000000000000602082015250565b6000614619602183612da2565b9150614624826145bd565b604082019050919050565b600060208201905081810360008301526146488161460c565b9050919050565b7f45524332303a206275726e20616d6f756e7420657863656564732062616c616e60008201527f6365000000000000000000000000000000000000000000000000000000000000602082015250565b60006146ab602283612da2565b91506146b68261464f565b604082019050919050565b600060208201905081810360008301526146da8161469e565b905091905056fea2646970667358221220f43491ff7bbed5e92760c0945fce64ce9aaeaf53000d2ced8a8d787b9d5450c464736f6c634300080b0033",
  "immutableReferences": {
    "1489": [
      {
        "length": 32,
        "start": 4997
      }
    ],
    "2361": [
      {
        "length": 32,
        "start": 7917
      }
    ],
    "2363": [
      {
        "length": 32,
        "start": 7876
      }
    ],
    "2365": [
      {
        "length": 32,
        "start": 7790
      }
    ],
    "2367": [
      {
        "length": 32,
        "start": 7993
      }
    ],
    "2369": [
      {
        "length": 32,
        "start": 8026
      }
    ],
    "2371": [
      {
        "length": 32,
        "start": 7960
      }
    ]
  },
  "source": "// SPDX-License-Identifier: MIT\r\npragma solidity ^0.8.9;\r\n\r\nimport '@openzeppelin/contracts/token/ERC20/ERC20.sol';\r\nimport '@openzeppelin/contracts/token/ERC20/IERC20.sol';\r\nimport '@openzeppelin/contracts/token/ERC20/extensions/ERC20Burnable.sol';\r\nimport '@openzeppelin/contracts/access/Ownable.sol';\r\nimport '@openzeppelin/contracts/token/ERC20/extensions/draft-ERC20Permit.sol';\r\nimport '@openzeppelin/contracts/token/ERC20/extensions/ERC20Votes.sol';\r\n\r\ncontract Tent_Token is ERC20, ERC20Burnable, Ownable, ERC20Permit, ERC20Votes {\r\n\r\n  // token price for ETH\r\n  uint256 public tokensPerEth = 100;\r\n\r\n  event BuyTokens(address buyer, uint256 amountOfETH, uint256 amountOfTokens);\r\n  event SellTokens(address seller, uint256 amountOfTokens, uint256 amountOfETH);\r\n\r\n  constructor() ERC20('Tent Token', 'TENT') ERC20Permit('TentGovernanceToken') {\r\n    _mint(msg.sender, 1e8 * 10**decimals());\r\n  }\r\n\r\n  function _afterTokenTransfer(\r\n    address _from,\r\n    address _to,\r\n    uint256 _amount\r\n  ) internal override(ERC20, ERC20Votes) {\r\n    super._afterTokenTransfer(_from, _to, _amount);\r\n  }\r\n\r\n  function _mint(address _to, uint256 _amount) internal override(ERC20, ERC20Votes) {\r\n    super._mint(_to, _amount);\r\n  }\r\n\r\n  function _burn(address _account, uint256 _amount) internal override(ERC20, ERC20Votes) {\r\n    super._burn(_account, _amount);\r\n  }\r\n\r\n  function buyTokens() public payable returns (uint256 tokenAmount) {\r\n    require(msg.value > 0, \"Send ETH to buy some tokens\");\r\n\r\n    uint256 amountToBuy = msg.value * tokensPerEth;\r\n\r\n    // check if the Vendor Contract has enough amount of tokens for the transaction\r\n    uint256 vendorBalance = balanceOf(address(this));\r\n    require(vendorBalance >= amountToBuy, \"Vendor contract has not enough tokens in its balance\");\r\n\r\n    // Transfer token to the msg.sender\r\n    (bool sent) = transfer(msg.sender, amountToBuy);\r\n    require(sent, \"Failed to transfer token to user\");\r\n\r\n    // emit the event\r\n    emit BuyTokens(msg.sender, msg.value, amountToBuy);\r\n\r\n    return amountToBuy;\r\n  }\r\n\r\n  //Get balance by token address and holder address\r\n  function getBalance(address token, address holder) public view returns(uint) {\r\n    IERC20 token = IERC20(token);\r\n    return token.balanceOf(holder);\r\n  }\r\n}",
  "sourcePath": "G:\\Smart_Contract_Testing\\simple_contract\\contracts\\Tent_Token.sol",
  "compiler": {
    "name": "solc",
    "version": "0.8.11+commit.d7f03943.Emscripten.clang"
  },
  "schemaVersion": "3.4.4",
  "updatedAt": "2022-01-21T19:54:08.843Z",
  "networkType": "ethereum",
  "devdoc": {
    "kind": "dev",
    "methods": {
      "DOMAIN_SEPARATOR()": {
        "details": "See {IERC20Permit-DOMAIN_SEPARATOR}."
      },
      "allowance(address,address)": {
        "details": "See {IERC20-allowance}."
      },
      "approve(address,uint256)": {
        "details": "See {IERC20-approve}. Requirements: - `spender` cannot be the zero address."
      },
      "balanceOf(address)": {
        "details": "See {IERC20-balanceOf}."
      },
      "burn(uint256)": {
        "details": "Destroys `amount` tokens from the caller. See {ERC20-_burn}."
      },
      "burnFrom(address,uint256)": {
        "details": "Destroys `amount` tokens from `account`, deducting from the caller's allowance. See {ERC20-_burn} and {ERC20-allowance}. Requirements: - the caller must have allowance for ``accounts``'s tokens of at least `amount`."
      },
      "checkpoints(address,uint32)": {
        "details": "Get the `pos`-th checkpoint for `account`."
      },
      "decimals()": {
        "details": "Returns the number of decimals used to get its user representation. For example, if `decimals` equals `2`, a balance of `505` tokens should be displayed to a user as `5.05` (`505 / 10 ** 2`). Tokens usually opt for a value of 18, imitating the relationship between Ether and Wei. This is the value {ERC20} uses, unless this function is overridden; NOTE: This information is only used for _display_ purposes: it in no way affects any of the arithmetic of the contract, including {IERC20-balanceOf} and {IERC20-transfer}."
      },
      "decreaseAllowance(address,uint256)": {
        "details": "Atomically decreases the allowance granted to `spender` by the caller. This is an alternative to {approve} that can be used as a mitigation for problems described in {IERC20-approve}. Emits an {Approval} event indicating the updated allowance. Requirements: - `spender` cannot be the zero address. - `spender` must have allowance for the caller of at least `subtractedValue`."
      },
      "delegate(address)": {
        "details": "Delegate votes from the sender to `delegatee`."
      },
      "delegateBySig(address,uint256,uint256,uint8,bytes32,bytes32)": {
        "details": "Delegates votes from signer to `delegatee`"
      },
      "delegates(address)": {
        "details": "Get the address `account` is currently delegating to."
      },
      "getPastTotalSupply(uint256)": {
        "details": "Retrieve the `totalSupply` at the end of `blockNumber`. Note, this value is the sum of all balances. It is but NOT the sum of all the delegated votes! Requirements: - `blockNumber` must have been already mined"
      },
      "getPastVotes(address,uint256)": {
        "details": "Retrieve the number of votes for `account` at the end of `blockNumber`. Requirements: - `blockNumber` must have been already mined"
      },
      "getVotes(address)": {
        "details": "Gets the current votes balance for `account`"
      },
      "increaseAllowance(address,uint256)": {
        "details": "Atomically increases the allowance granted to `spender` by the caller. This is an alternative to {approve} that can be used as a mitigation for problems described in {IERC20-approve}. Emits an {Approval} event indicating the updated allowance. Requirements: - `spender` cannot be the zero address."
      },
      "name()": {
        "details": "Returns the name of the token."
      },
      "nonces(address)": {
        "details": "See {IERC20Permit-nonces}."
      },
      "numCheckpoints(address)": {
        "details": "Get number of checkpoints for `account`."
      },
      "owner()": {
        "details": "Returns the address of the current owner."
      },
      "permit(address,address,uint256,uint256,uint8,bytes32,bytes32)": {
        "details": "See {IERC20Permit-permit}."
      },
      "renounceOwnership()": {
        "details": "Leaves the contract without owner. It will not be possible to call `onlyOwner` functions anymore. Can only be called by the current owner. NOTE: Renouncing ownership will leave the contract without an owner, thereby removing any functionality that is only available to the owner."
      },
      "symbol()": {
        "details": "Returns the symbol of the token, usually a shorter version of the name."
      },
      "totalSupply()": {
        "details": "See {IERC20-totalSupply}."
      },
      "transfer(address,uint256)": {
        "details": "See {IERC20-transfer}. Requirements: - `recipient` cannot be the zero address. - the caller must have a balance of at least `amount`."
      },
      "transferFrom(address,address,uint256)": {
        "details": "See {IERC20-transferFrom}. Emits an {Approval} event indicating the updated allowance. This is not required by the EIP. See the note at the beginning of {ERC20}. Requirements: - `sender` and `recipient` cannot be the zero address. - `sender` must have a balance of at least `amount`. - the caller must have allowance for ``sender``'s tokens of at least `amount`."
      },
      "transferOwnership(address)": {
        "details": "Transfers ownership of the contract to a new account (`newOwner`). Can only be called by the current owner."
      }
    },
    "version": 1
  },
  "userdoc": {
    "kind": "user",
    "methods": {},
    "version": 1
  }
}