{
  "contractName": "Tent_Token",
  "abi": [
    {
      "inputs": [],
      "stateMutability": "nonpayable",
      "type": "constructor"
    },
    {
      "anonymous": false,
      "inputs": [
        {
          "indexed": true,
          "internalType": "address",
          "name": "owner",
          "type": "address"
        },
        {
          "indexed": true,
          "internalType": "address",
          "name": "spender",
          "type": "address"
        },
        {
          "indexed": false,
          "internalType": "uint256",
          "name": "value",
          "type": "uint256"
        }
      ],
      "name": "Approval",
      "type": "event"
    },
    {
      "anonymous": false,
      "inputs": [
        {
          "indexed": true,
          "internalType": "address",
          "name": "delegator",
          "type": "address"
        },
        {
          "indexed": true,
          "internalType": "address",
          "name": "fromDelegate",
          "type": "address"
        },
        {
          "indexed": true,
          "internalType": "address",
          "name": "toDelegate",
          "type": "address"
        }
      ],
      "name": "DelegateChanged",
      "type": "event"
    },
    {
      "anonymous": false,
      "inputs": [
        {
          "indexed": true,
          "internalType": "address",
          "name": "delegate",
          "type": "address"
        },
        {
          "indexed": false,
          "internalType": "uint256",
          "name": "previousBalance",
          "type": "uint256"
        },
        {
          "indexed": false,
          "internalType": "uint256",
          "name": "newBalance",
          "type": "uint256"
        }
      ],
      "name": "DelegateVotesChanged",
      "type": "event"
    },
    {
      "anonymous": false,
      "inputs": [
        {
          "indexed": true,
          "internalType": "address",
          "name": "previousOwner",
          "type": "address"
        },
        {
          "indexed": true,
          "internalType": "address",
          "name": "newOwner",
          "type": "address"
        }
      ],
      "name": "OwnershipTransferred",
      "type": "event"
    },
    {
      "anonymous": false,
      "inputs": [
        {
          "indexed": true,
          "internalType": "address",
          "name": "from",
          "type": "address"
        },
        {
          "indexed": true,
          "internalType": "address",
          "name": "to",
          "type": "address"
        },
        {
          "indexed": false,
          "internalType": "uint256",
          "name": "value",
          "type": "uint256"
        }
      ],
      "name": "Transfer",
      "type": "event"
    },
    {
      "inputs": [],
      "name": "DOMAIN_SEPARATOR",
      "outputs": [
        {
          "internalType": "bytes32",
          "name": "",
          "type": "bytes32"
        }
      ],
      "stateMutability": "view",
      "type": "function",
      "constant": true
    },
    {
      "inputs": [],
      "name": "airdropWalletAddress",
      "outputs": [
        {
          "internalType": "address",
          "name": "",
          "type": "address"
        }
      ],
      "stateMutability": "view",
      "type": "function",
      "constant": true
    },
    {
      "inputs": [],
      "name": "airdropsAmount",
      "outputs": [
        {
          "internalType": "uint256",
          "name": "",
          "type": "uint256"
        }
      ],
      "stateMutability": "view",
      "type": "function",
      "constant": true
    },
    {
      "inputs": [
        {
          "internalType": "address",
          "name": "owner",
          "type": "address"
        },
        {
          "internalType": "address",
          "name": "spender",
          "type": "address"
        }
      ],
      "name": "allowance",
      "outputs": [
        {
          "internalType": "uint256",
          "name": "",
          "type": "uint256"
        }
      ],
      "stateMutability": "view",
      "type": "function",
      "constant": true
    },
    {
      "inputs": [
        {
          "internalType": "address",
          "name": "spender",
          "type": "address"
        },
        {
          "internalType": "uint256",
          "name": "amount",
          "type": "uint256"
        }
      ],
      "name": "approve",
      "outputs": [
        {
          "internalType": "bool",
          "name": "",
          "type": "bool"
        }
      ],
      "stateMutability": "nonpayable",
      "type": "function"
    },
    {
      "inputs": [
        {
          "internalType": "address",
          "name": "account",
          "type": "address"
        }
      ],
      "name": "balanceOf",
      "outputs": [
        {
          "internalType": "uint256",
          "name": "",
          "type": "uint256"
        }
      ],
      "stateMutability": "view",
      "type": "function",
      "constant": true
    },
    {
      "inputs": [
        {
          "internalType": "uint256",
          "name": "amount",
          "type": "uint256"
        }
      ],
      "name": "burn",
      "outputs": [],
      "stateMutability": "nonpayable",
      "type": "function"
    },
    {
      "inputs": [
        {
          "internalType": "address",
          "name": "account",
          "type": "address"
        },
        {
          "internalType": "uint256",
          "name": "amount",
          "type": "uint256"
        }
      ],
      "name": "burnFrom",
      "outputs": [],
      "stateMutability": "nonpayable",
      "type": "function"
    },
    {
      "inputs": [
        {
          "internalType": "address",
          "name": "account",
          "type": "address"
        },
        {
          "internalType": "uint32",
          "name": "pos",
          "type": "uint32"
        }
      ],
      "name": "checkpoints",
      "outputs": [
        {
          "components": [
            {
              "internalType": "uint32",
              "name": "fromBlock",
              "type": "uint32"
            },
            {
              "internalType": "uint224",
              "name": "votes",
              "type": "uint224"
            }
          ],
          "internalType": "struct ERC20Votes.Checkpoint",
          "name": "",
          "type": "tuple"
        }
      ],
      "stateMutability": "view",
      "type": "function",
      "constant": true
    },
    {
      "inputs": [],
      "name": "decimals",
      "outputs": [
        {
          "internalType": "uint8",
          "name": "",
          "type": "uint8"
        }
      ],
      "stateMutability": "view",
      "type": "function",
      "constant": true
    },
    {
      "inputs": [
        {
          "internalType": "address",
          "name": "spender",
          "type": "address"
        },
        {
          "internalType": "uint256",
          "name": "subtractedValue",
          "type": "uint256"
        }
      ],
      "name": "decreaseAllowance",
      "outputs": [
        {
          "internalType": "bool",
          "name": "",
          "type": "bool"
        }
      ],
      "stateMutability": "nonpayable",
      "type": "function"
    },
    {
      "inputs": [
        {
          "internalType": "address",
          "name": "delegatee",
          "type": "address"
        }
      ],
      "name": "delegate",
      "outputs": [],
      "stateMutability": "nonpayable",
      "type": "function"
    },
    {
      "inputs": [
        {
          "internalType": "address",
          "name": "delegatee",
          "type": "address"
        },
        {
          "internalType": "uint256",
          "name": "nonce",
          "type": "uint256"
        },
        {
          "internalType": "uint256",
          "name": "expiry",
          "type": "uint256"
        },
        {
          "internalType": "uint8",
          "name": "v",
          "type": "uint8"
        },
        {
          "internalType": "bytes32",
          "name": "r",
          "type": "bytes32"
        },
        {
          "internalType": "bytes32",
          "name": "s",
          "type": "bytes32"
        }
      ],
      "name": "delegateBySig",
      "outputs": [],
      "stateMutability": "nonpayable",
      "type": "function"
    },
    {
      "inputs": [
        {
          "internalType": "address",
          "name": "account",
          "type": "address"
        }
      ],
      "name": "delegates",
      "outputs": [
        {
          "internalType": "address",
          "name": "",
          "type": "address"
        }
      ],
      "stateMutability": "view",
      "type": "function",
      "constant": true
    },
    {
      "inputs": [
        {
          "internalType": "uint256",
          "name": "blockNumber",
          "type": "uint256"
        }
      ],
      "name": "getPastTotalSupply",
      "outputs": [
        {
          "internalType": "uint256",
          "name": "",
          "type": "uint256"
        }
      ],
      "stateMutability": "view",
      "type": "function",
      "constant": true
    },
    {
      "inputs": [
        {
          "internalType": "address",
          "name": "account",
          "type": "address"
        },
        {
          "internalType": "uint256",
          "name": "blockNumber",
          "type": "uint256"
        }
      ],
      "name": "getPastVotes",
      "outputs": [
        {
          "internalType": "uint256",
          "name": "",
          "type": "uint256"
        }
      ],
      "stateMutability": "view",
      "type": "function",
      "constant": true
    },
    {
      "inputs": [
        {
          "internalType": "address",
          "name": "account",
          "type": "address"
        }
      ],
      "name": "getVotes",
      "outputs": [
        {
          "internalType": "uint256",
          "name": "",
          "type": "uint256"
        }
      ],
      "stateMutability": "view",
      "type": "function",
      "constant": true
    },
    {
      "inputs": [
        {
          "internalType": "address",
          "name": "spender",
          "type": "address"
        },
        {
          "internalType": "uint256",
          "name": "addedValue",
          "type": "uint256"
        }
      ],
      "name": "increaseAllowance",
      "outputs": [
        {
          "internalType": "bool",
          "name": "",
          "type": "bool"
        }
      ],
      "stateMutability": "nonpayable",
      "type": "function"
    },
    {
      "inputs": [
        {
          "internalType": "address",
          "name": "",
          "type": "address"
        }
      ],
      "name": "lockTime",
      "outputs": [
        {
          "internalType": "uint256",
          "name": "",
          "type": "uint256"
        }
      ],
      "stateMutability": "view",
      "type": "function",
      "constant": true
    },
    {
      "inputs": [],
      "name": "name",
      "outputs": [
        {
          "internalType": "string",
          "name": "",
          "type": "string"
        }
      ],
      "stateMutability": "view",
      "type": "function",
      "constant": true
    },
    {
      "inputs": [
        {
          "internalType": "address",
          "name": "owner",
          "type": "address"
        }
      ],
      "name": "nonces",
      "outputs": [
        {
          "internalType": "uint256",
          "name": "",
          "type": "uint256"
        }
      ],
      "stateMutability": "view",
      "type": "function",
      "constant": true
    },
    {
      "inputs": [
        {
          "internalType": "address",
          "name": "account",
          "type": "address"
        }
      ],
      "name": "numCheckpoints",
      "outputs": [
        {
          "internalType": "uint32",
          "name": "",
          "type": "uint32"
        }
      ],
      "stateMutability": "view",
      "type": "function",
      "constant": true
    },
    {
      "inputs": [],
      "name": "owner",
      "outputs": [
        {
          "internalType": "address",
          "name": "",
          "type": "address"
        }
      ],
      "stateMutability": "view",
      "type": "function",
      "constant": true
    },
    {
      "inputs": [
        {
          "internalType": "address",
          "name": "owner",
          "type": "address"
        },
        {
          "internalType": "address",
          "name": "spender",
          "type": "address"
        },
        {
          "internalType": "uint256",
          "name": "value",
          "type": "uint256"
        },
        {
          "internalType": "uint256",
          "name": "deadline",
          "type": "uint256"
        },
        {
          "internalType": "uint8",
          "name": "v",
          "type": "uint8"
        },
        {
          "internalType": "bytes32",
          "name": "r",
          "type": "bytes32"
        },
        {
          "internalType": "bytes32",
          "name": "s",
          "type": "bytes32"
        }
      ],
      "name": "permit",
      "outputs": [],
      "stateMutability": "nonpayable",
      "type": "function"
    },
    {
      "inputs": [],
      "name": "renounceOwnership",
      "outputs": [],
      "stateMutability": "nonpayable",
      "type": "function"
    },
    {
      "inputs": [],
      "name": "symbol",
      "outputs": [
        {
          "internalType": "string",
          "name": "",
          "type": "string"
        }
      ],
      "stateMutability": "view",
      "type": "function",
      "constant": true
    },
    {
      "inputs": [],
      "name": "totalSupply",
      "outputs": [
        {
          "internalType": "uint256",
          "name": "",
          "type": "uint256"
        }
      ],
      "stateMutability": "view",
      "type": "function",
      "constant": true
    },
    {
      "inputs": [
        {
          "internalType": "address",
          "name": "recipient",
          "type": "address"
        },
        {
          "internalType": "uint256",
          "name": "amount",
          "type": "uint256"
        }
      ],
      "name": "transfer",
      "outputs": [
        {
          "internalType": "bool",
          "name": "",
          "type": "bool"
        }
      ],
      "stateMutability": "nonpayable",
      "type": "function"
    },
    {
      "inputs": [
        {
          "internalType": "address",
          "name": "sender",
          "type": "address"
        },
        {
          "internalType": "address",
          "name": "recipient",
          "type": "address"
        },
        {
          "internalType": "uint256",
          "name": "amount",
          "type": "uint256"
        }
      ],
      "name": "transferFrom",
      "outputs": [
        {
          "internalType": "bool",
          "name": "",
          "type": "bool"
        }
      ],
      "stateMutability": "nonpayable",
      "type": "function"
    },
    {
      "inputs": [
        {
          "internalType": "address",
          "name": "newOwner",
          "type": "address"
        }
      ],
      "name": "transferOwnership",
      "outputs": [],
      "stateMutability": "nonpayable",
      "type": "function"
    },
    {
      "inputs": [
        {
          "internalType": "address",
          "name": "token",
          "type": "address"
        },
        {
          "internalType": "address",
          "name": "holder",
          "type": "address"
        }
      ],
      "name": "getBalance",
      "outputs": [
        {
          "internalType": "uint256",
          "name": "",
          "type": "uint256"
        }
      ],
      "stateMutability": "view",
      "type": "function",
      "constant": true
    },
    {
      "inputs": [
        {
          "internalType": "address",
          "name": "token",
          "type": "address"
        },
        {
          "internalType": "address",
          "name": "holder",
          "type": "address"
        }
      ],
      "name": "get_Balance",
      "outputs": [
        {
          "internalType": "uint256",
          "name": "",
          "type": "uint256"
        }
      ],
      "stateMutability": "view",
      "type": "function",
      "constant": true
    },
    {
      "inputs": [
        {
          "internalType": "address",
          "name": "requestor",
          "type": "address"
        }
      ],
      "name": "getAirdrops",
      "outputs": [
        {
          "internalType": "uint256",
          "name": "",
          "type": "uint256"
        }
      ],
      "stateMutability": "nonpayable",
      "type": "function"
    }
  ],
  "bytecode": "0x6101606040527f6e71edae12b1b97f4d1f60370fef10105fa2faae0126114a169c64845d6126c9610140908152506200003d6200029060201b60201c565b600a6200004b919062000f15565b600162000059919062000f66565b600a553480156200006957600080fd5b506040518060400160405280601381526020017f54656e74476f7665726e616e6365546f6b656e00000000000000000000000000815250806040518060400160405280600181526020017f31000000000000000000000000000000000000000000000000000000000000008152506040518060400160405280600a81526020017f54656e7420546f6b656e000000000000000000000000000000000000000000008152506040518060400160405280600481526020017f54454e540000000000000000000000000000000000000000000000000000000081525081600390805190602001906200015b92919062000ccb565b5080600490805190602001906200017492919062000ccb565b505050620001976200018b6200029960201b60201c565b620002a160201b60201c565b60008280519060200120905060008280519060200120905060007f8b73c3c69bb8fe3d512ecc4cf759cc79239f7b179b0ffacaa9a75d522b39400f90508260e081815250508161010081815250504660a08181525050620002008184846200036760201b60201c565b608081815250503073ffffffffffffffffffffffffffffffffffffffff1660c08173ffffffffffffffffffffffffffffffffffffffff16815250508061012081815250505050505050506200028a336200025f6200029060201b60201c565b600a6200026d919062000f15565b6305f5e1006200027e919062000f66565b620003a360201b60201c565b62001456565b60006012905090565b600033905090565b6000600560009054906101000a900473ffffffffffffffffffffffffffffffffffffffff16905081600560006101000a81548173ffffffffffffffffffffffffffffffffffffffff021916908373ffffffffffffffffffffffffffffffffffffffff1602179055508173ffffffffffffffffffffffffffffffffffffffff168173ffffffffffffffffffffffffffffffffffffffff167f8be0079c531659141344cd1fd0a4f28419497f9722a3daafe3b4186f6b6457e060405160405180910390a35050565b600083838346306040516020016200038495949392919062001038565b6040516020818303038152906040528051906020012090509392505050565b620003ba8282620003be60201b620015e71760201c565b5050565b620003d582826200047c60201b620016741760201c565b620003e5620005f560201b60201c565b7bffffffffffffffffffffffffffffffffffffffffffffffffffffffff16620004136200061960201b60201c565b111562000457576040517f08c379a00000000000000000000000000000000000000000000000000000000081526004016200044e906200111c565b60405180910390fd5b6200047660096200062360201b620017d417836200063b60201b60201c565b50505050565b600073ffffffffffffffffffffffffffffffffffffffff168273ffffffffffffffffffffffffffffffffffffffff161415620004ef576040517f08c379a0000000000000000000000000000000000000000000000000000000008152600401620004e6906200118e565b60405180910390fd5b6200050360008383620008ec60201b60201c565b8060026000828254620005179190620011b0565b92505081905550806000808473ffffffffffffffffffffffffffffffffffffffff1673ffffffffffffffffffffffffffffffffffffffff16815260200190815260200160002060008282546200056e9190620011b0565b925050819055508173ffffffffffffffffffffffffffffffffffffffff16600073ffffffffffffffffffffffffffffffffffffffff167fddf252ad1be2c89b69c2b068fc378daa952ba7f163c4a11628f55a4df523b3ef83604051620005d591906200120d565b60405180910390a3620005f160008383620008f160201b60201c565b5050565b60007bffffffffffffffffffffffffffffffffffffffffffffffffffffffff905090565b6000600254905090565b60008183620006339190620011b0565b905092915050565b60008060008580549050905060008114620006b057856001826200066091906200122a565b8154811062000674576200067362001265565b5b9060005260206000200160000160049054906101000a90047bffffffffffffffffffffffffffffffffffffffffffffffffffffffff16620006b3565b60005b7bffffffffffffffffffffffffffffffffffffffffffffffffffffffff169250620006df83858760201c565b91506000811180156200073857504386600183620006fe91906200122a565b8154811062000712576200071162001265565b5b9060005260206000200160000160009054906101000a900463ffffffff1663ffffffff16145b15620007d95762000754826200090e60201b620017ea1760201c565b866001836200076491906200122a565b8154811062000778576200077762001265565b5b9060005260206000200160000160046101000a8154817bffffffffffffffffffffffffffffffffffffffffffffffffffffffff02191690837bffffffffffffffffffffffffffffffffffffffffffffffffffffffff160217905550620008e3565b856040518060400160405280620007fb436200097c60201b620018551760201c565b63ffffffff1681526020016200081c856200090e60201b620017ea1760201c565b7bffffffffffffffffffffffffffffffffffffffffffffffffffffffff168152509080600181540180825580915050600190039060005260206000200160009091909190915060008201518160000160006101000a81548163ffffffff021916908363ffffffff16021790555060208201518160000160046101000a8154817bffffffffffffffffffffffffffffffffffffffffffffffffffffffff02191690837bffffffffffffffffffffffffffffffffffffffffffffffffffffffff16021790555050505b50935093915050565b505050565b62000909838383620009d260201b620018a81760201c565b505050565b60007bffffffffffffffffffffffffffffffffffffffffffffffffffffffff801682111562000974576040517f08c379a00000000000000000000000000000000000000000000000000000000081526004016200096b906200130a565b60405180910390fd5b819050919050565b600063ffffffff8016821115620009ca576040517f08c379a0000000000000000000000000000000000000000000000000000000008152600401620009c190620013a2565b60405180910390fd5b819050919050565b620009ea83838362000a2260201b620018d31760201c565b62000a1d620009ff8462000a2760201b60201c565b62000a108462000a2760201b60201c565b8362000a9060201b60201c565b505050565b505050565b6000600760008373ffffffffffffffffffffffffffffffffffffffff1673ffffffffffffffffffffffffffffffffffffffff16815260200190815260200160002060009054906101000a900473ffffffffffffffffffffffffffffffffffffffff169050919050565b8173ffffffffffffffffffffffffffffffffffffffff168373ffffffffffffffffffffffffffffffffffffffff161415801562000acd5750600081115b1562000cae57600073ffffffffffffffffffffffffffffffffffffffff168373ffffffffffffffffffffffffffffffffffffffff161462000bc05760008062000b67600860008773ffffffffffffffffffffffffffffffffffffffff1673ffffffffffffffffffffffffffffffffffffffff16815260200190815260200160002062000cb360201b620018d817856200063b60201b60201c565b915091508473ffffffffffffffffffffffffffffffffffffffff167fdec2bacdd2f05b59de34da9b523dff8be42e5e38e818c82fdb0bae774387a724838360405162000bb5929190620013c4565b60405180910390a250505b600073ffffffffffffffffffffffffffffffffffffffff168273ffffffffffffffffffffffffffffffffffffffff161462000cad5760008062000c54600860008673ffffffffffffffffffffffffffffffffffffffff1673ffffffffffffffffffffffffffffffffffffffff1681526020019081526020016000206200062360201b620017d417856200063b60201b60201c565b915091508373ffffffffffffffffffffffffffffffffffffffff167fdec2bacdd2f05b59de34da9b523dff8be42e5e38e818c82fdb0bae774387a724838360405162000ca2929190620013c4565b60405180910390a250505b5b505050565b6000818362000cc391906200122a565b905092915050565b82805462000cd99062001420565b90600052602060002090601f01602090048101928262000cfd576000855562000d49565b82601f1062000d1857805160ff191683800117855562000d49565b8280016001018555821562000d49579182015b8281111562000d4857825182559160200191906001019062000d2b565b5b50905062000d58919062000d5c565b5090565b5b8082111562000d7757600081600090555060010162000d5d565b5090565b7f4e487b7100000000000000000000000000000000000000000000000000000000600052601160045260246000fd5b60008160011c9050919050565b6000808291508390505b600185111562000e095780860481111562000de15762000de062000d7b565b5b600185161562000df15780820291505b808102905062000e018562000daa565b945062000dc1565b94509492505050565b60008262000e24576001905062000ef7565b8162000e34576000905062000ef7565b816001811462000e4d576002811462000e585762000e8e565b600191505062000ef7565b60ff84111562000e6d5762000e6c62000d7b565b5b8360020a91508482111562000e875762000e8662000d7b565b5b5062000ef7565b5060208310610133831016604e8410600b841016171562000ec85782820a90508381111562000ec25762000ec162000d7b565b5b62000ef7565b62000ed7848484600162000db7565b9250905081840481111562000ef15762000ef062000d7b565b5b81810290505b9392505050565b6000819050919050565b600060ff82169050919050565b600062000f228262000efe565b915062000f2f8362000f08565b925062000f5e7fffffffffffffffffffffffffffffffffffffffffffffffffffffffffffffffff848462000e12565b905092915050565b600062000f738262000efe565b915062000f808362000efe565b9250817fffffffffffffffffffffffffffffffffffffffffffffffffffffffffffffffff048311821515161562000fbc5762000fbb62000d7b565b5b828202905092915050565b6000819050919050565b62000fdc8162000fc7565b82525050565b62000fed8162000efe565b82525050565b600073ffffffffffffffffffffffffffffffffffffffff82169050919050565b6000620010208262000ff3565b9050919050565b620010328162001013565b82525050565b600060a0820190506200104f600083018862000fd1565b6200105e602083018762000fd1565b6200106d604083018662000fd1565b6200107c606083018562000fe2565b6200108b608083018462001027565b9695505050505050565b600082825260208201905092915050565b7f4552433230566f7465733a20746f74616c20737570706c79207269736b73206f60008201527f766572666c6f77696e6720766f74657300000000000000000000000000000000602082015250565b60006200110460308362001095565b91506200111182620010a6565b604082019050919050565b600060208201905081810360008301526200113781620010f5565b9050919050565b7f45524332303a206d696e7420746f20746865207a65726f206164647265737300600082015250565b600062001176601f8362001095565b915062001183826200113e565b602082019050919050565b60006020820190508181036000830152620011a98162001167565b9050919050565b6000620011bd8262000efe565b9150620011ca8362000efe565b9250827fffffffffffffffffffffffffffffffffffffffffffffffffffffffffffffffff0382111562001202576200120162000d7b565b5b828201905092915050565b600060208201905062001224600083018462000fe2565b92915050565b6000620012378262000efe565b9150620012448362000efe565b9250828210156200125a576200125962000d7b565b5b828203905092915050565b7f4e487b7100000000000000000000000000000000000000000000000000000000600052603260045260246000fd5b7f53616665436173743a2076616c756520646f65736e27742066697420696e203260008201527f3234206269747300000000000000000000000000000000000000000000000000602082015250565b6000620012f260278362001095565b9150620012ff8262001294565b604082019050919050565b600060208201905081810360008301526200132581620012e3565b9050919050565b7f53616665436173743a2076616c756520646f65736e27742066697420696e203360008201527f3220626974730000000000000000000000000000000000000000000000000000602082015250565b60006200138a60268362001095565b915062001397826200132c565b604082019050919050565b60006020820190508181036000830152620013bd816200137b565b9050919050565b6000604082019050620013db600083018562000fe2565b620013ea602083018462000fe2565b9392505050565b7f4e487b7100000000000000000000000000000000000000000000000000000000600052602260045260246000fd5b600060028204905060018216806200143957607f821691505b6020821081141562001450576200144f620013f1565b5b50919050565b60805160a05160c05160e0516101005161012051610140516143f4620014b1600039600061124501526000611df001526000611e3201526000611e1101526000611d4601526000611d9c01526000611dc501526143f46000f3fe608060405234801561001057600080fd5b50600436106101fb5760003560e01c80637ecebe001161011a578063a9059cbb116100ad578063dd62ed3e1161007c578063dd62ed3e14610638578063e92f093514610668578063f1127ed814610698578063f2fde38b146106c8578063f9b23597146106e4576101fb565b8063a9059cbb146105a0578063c3cda520146105d0578063d4fac45d146105ec578063d505accf1461061c576101fb565b80639ab24eb0116100e95780639ab24eb0146104f25780639ce3fdac14610522578063a457c2d714610540578063a4beda6314610570576101fb565b80637ecebe00146104565780638da5cb5b146104865780638e539e8c146104a457806395d89b41146104d4576101fb565b806342966c68116101925780636fcfff45116101615780636fcfff45146103d057806370a0823114610400578063715018a61461043057806379cc67901461043a576101fb565b806342966c6814610338578063587cde1e146103545780635c19a95c14610384578063625561a2146103a0576101fb565b8063313ce567116101ce578063313ce5671461029c5780633644e515146102ba57806339509351146102d85780633a46b1a814610308576101fb565b806306fdde0314610200578063095ea7b31461021e57806318160ddd1461024e57806323b872dd1461026c575b600080fd5b610208610702565b6040516102159190612d08565b60405180910390f35b61023860048036038101906102339190612dc3565b610794565b6040516102459190612e1e565b60405180910390f35b6102566107b2565b6040516102639190612e48565b60405180910390f35b61028660048036038101906102819190612e63565b6107bc565b6040516102939190612e1e565b60405180910390f35b6102a46108b4565b6040516102b19190612ed2565b60405180910390f35b6102c26108bd565b6040516102cf9190612f06565b60405180910390f35b6102f260048036038101906102ed9190612dc3565b6108cc565b6040516102ff9190612e1e565b60405180910390f35b610322600480360381019061031d9190612dc3565b610978565b60405161032f9190612e48565b60405180910390f35b610352600480360381019061034d9190612f21565b610a0c565b005b61036e60048036038101906103699190612f4e565b610a20565b60405161037b9190612f8a565b60405180910390f35b61039e60048036038101906103999190612f4e565b610a89565b005b6103ba60048036038101906103b59190612fa5565b610a9d565b6040516103c79190612e48565b60405180910390f35b6103ea60048036038101906103e59190612f4e565b610b26565b6040516103f79190613004565b60405180910390f35b61041a60048036038101906104159190612f4e565b610b7a565b6040516104279190612e48565b60405180910390f35b610438610bc2565b005b610454600480360381019061044f9190612dc3565b610c4a565b005b610470600480360381019061046b9190612f4e565b610cc5565b60405161047d9190612e48565b60405180910390f35b61048e610d15565b60405161049b9190612f8a565b60405180910390f35b6104be60048036038101906104b99190612f21565b610d3f565b6040516104cb9190612e48565b60405180910390f35b6104dc610d95565b6040516104e99190612d08565b60405180910390f35b61050c60048036038101906105079190612f4e565b610e27565b6040516105199190612e48565b60405180910390f35b61052a610f38565b6040516105379190612f8a565b60405180910390f35b61055a60048036038101906105559190612dc3565b610f50565b6040516105679190612e1e565b60405180910390f35b61058a60048036038101906105859190612f4e565b61103b565b6040516105979190612e48565b60405180910390f35b6105ba60048036038101906105b59190612dc3565b611053565b6040516105c79190612e1e565b60405180910390f35b6105ea60048036038101906105e59190613077565b611071565b005b61060660048036038101906106019190612fa5565b611175565b6040516106139190612e48565b60405180910390f35b61063660048036038101906106319190613104565b6111fe565b005b610652600480360381019061064d9190612fa5565b611340565b60405161065f9190612e48565b60405180910390f35b610682600480360381019061067d9190612f4e565b6113c7565b60405161068f9190612e48565b60405180910390f35b6106b260048036038101906106ad91906131d2565b6113d9565b6040516106bf9190613287565b60405180910390f35b6106e260048036038101906106dd9190612f4e565b6114e9565b005b6106ec6115e1565b6040516106f99190612e48565b60405180910390f35b606060038054610711906132d1565b80601f016020809104026020016040519081016040528092919081815260200182805461073d906132d1565b801561078a5780601f1061075f5761010080835404028352916020019161078a565b820191906000526020600020905b81548152906001019060200180831161076d57829003601f168201915b5050505050905090565b60006107a86107a16118ee565b84846118f6565b6001905092915050565b6000600254905090565b60006107c9848484611ac1565b6000600160008673ffffffffffffffffffffffffffffffffffffffff1673ffffffffffffffffffffffffffffffffffffffff16815260200190815260200160002060006108146118ee565b73ffffffffffffffffffffffffffffffffffffffff1673ffffffffffffffffffffffffffffffffffffffff16815260200190815260200160002054905082811015610894576040517f08c379a000000000000000000000000000000000000000000000000000000000815260040161088b90613375565b60405180910390fd5b6108a8856108a06118ee565b8584036118f6565b60019150509392505050565b60006012905090565b60006108c7611d42565b905090565b600061096e6108d96118ee565b8484600160006108e76118ee565b73ffffffffffffffffffffffffffffffffffffffff1673ffffffffffffffffffffffffffffffffffffffff16815260200190815260200160002060008873ffffffffffffffffffffffffffffffffffffffff1673ffffffffffffffffffffffffffffffffffffffff1681526020019081526020016000205461096991906133c4565b6118f6565b6001905092915050565b60004382106109bc576040517f08c379a00000000000000000000000000000000000000000000000000000000081526004016109b390613466565b60405180910390fd5b610a04600860008573ffffffffffffffffffffffffffffffffffffffff1673ffffffffffffffffffffffffffffffffffffffff16815260200190815260200160002083611e5c565b905092915050565b610a1d610a176118ee565b82611f68565b50565b6000600760008373ffffffffffffffffffffffffffffffffffffffff1673ffffffffffffffffffffffffffffffffffffffff16815260200190815260200160002060009054906101000a900473ffffffffffffffffffffffffffffffffffffffff169050919050565b610a9a610a946118ee565b82611f76565b50565b6000808390508073ffffffffffffffffffffffffffffffffffffffff166370a08231846040518263ffffffff1660e01b8152600401610adc9190612f8a565b602060405180830381865afa158015610af9573d6000803e3d6000fd5b505050506040513d601f19601f82011682018060405250810190610b1d919061349b565b91505092915050565b6000610b73600860008473ffffffffffffffffffffffffffffffffffffffff1673ffffffffffffffffffffffffffffffffffffffff16815260200190815260200160002080549050611855565b9050919050565b60008060008373ffffffffffffffffffffffffffffffffffffffff1673ffffffffffffffffffffffffffffffffffffffff168152602001908152602001600020549050919050565b610bca6118ee565b73ffffffffffffffffffffffffffffffffffffffff16610be8610d15565b73ffffffffffffffffffffffffffffffffffffffff1614610c3e576040517f08c379a0000000000000000000000000000000000000000000000000000000008152600401610c3590613514565b60405180910390fd5b610c486000612090565b565b6000610c5d83610c586118ee565b611340565b905081811015610ca2576040517f08c379a0000000000000000000000000000000000000000000000000000000008152600401610c99906135a6565b60405180910390fd5b610cb683610cae6118ee565b8484036118f6565b610cc08383611f68565b505050565b6000610d0e600660008473ffffffffffffffffffffffffffffffffffffffff1673ffffffffffffffffffffffffffffffffffffffff168152602001908152602001600020612156565b9050919050565b6000600560009054906101000a900473ffffffffffffffffffffffffffffffffffffffff16905090565b6000438210610d83576040517f08c379a0000000000000000000000000000000000000000000000000000000008152600401610d7a90613466565b60405180910390fd5b610d8e600983611e5c565b9050919050565b606060048054610da4906132d1565b80601f0160208091040260200160405190810160405280929190818152602001828054610dd0906132d1565b8015610e1d5780601f10610df257610100808354040283529160200191610e1d565b820191906000526020600020905b815481529060010190602001808311610e0057829003601f168201915b5050505050905090565b600080600860008473ffffffffffffffffffffffffffffffffffffffff1673ffffffffffffffffffffffffffffffffffffffff16815260200190815260200160002080549050905060008114610f0f57600860008473ffffffffffffffffffffffffffffffffffffffff1673ffffffffffffffffffffffffffffffffffffffff168152602001908152602001600020600182610ec391906135c6565b81548110610ed457610ed36135fa565b5b9060005260206000200160000160049054906101000a90047bffffffffffffffffffffffffffffffffffffffffffffffffffffffff16610f12565b60005b7bffffffffffffffffffffffffffffffffffffffffffffffffffffffff16915050919050565b73f62e7c7dab2c6b46f2c15fe02f58604bafb7044681565b60008060016000610f5f6118ee565b73ffffffffffffffffffffffffffffffffffffffff1673ffffffffffffffffffffffffffffffffffffffff16815260200190815260200160002060008573ffffffffffffffffffffffffffffffffffffffff1673ffffffffffffffffffffffffffffffffffffffff1681526020019081526020016000205490508281101561101c576040517f08c379a00000000000000000000000000000000000000000000000000000000081526004016110139061369b565b60405180910390fd5b6110306110276118ee565b858584036118f6565b600191505092915050565b600b6020528060005260406000206000915090505481565b60006110676110606118ee565b8484611ac1565b6001905092915050565b834211156110b4576040517f08c379a00000000000000000000000000000000000000000000000000000000081526004016110ab90613707565b60405180910390fd5b600061111661110e7fe48329057bfd03d55e49b547132e39cffd9c1820ad7b9d4c5307691425d15adf8989896040516020016110f39493929190613727565b60405160208183030381529060405280519060200120612164565b85858561217e565b9050611121816121a9565b8614611162576040517f08c379a0000000000000000000000000000000000000000000000000000000008152600401611159906137b8565b60405180910390fd5b61116c8188611f76565b50505050505050565b6000808390508073ffffffffffffffffffffffffffffffffffffffff166370a08231846040518263ffffffff1660e01b81526004016111b49190612f8a565b602060405180830381865afa1580156111d1573d6000803e3d6000fd5b505050506040513d601f19601f820116820180604052508101906111f5919061349b565b91505092915050565b83421115611241576040517f08c379a000000000000000000000000000000000000000000000000000000000815260040161123890613824565b60405180910390fd5b60007f00000000000000000000000000000000000000000000000000000000000000008888886112708c6121a9565b8960405160200161128696959493929190613844565b60405160208183030381529060405280519060200120905060006112a982612164565b905060006112b98287878761217e565b90508973ffffffffffffffffffffffffffffffffffffffff168173ffffffffffffffffffffffffffffffffffffffff1614611329576040517f08c379a0000000000000000000000000000000000000000000000000000000008152600401611320906138f1565b60405180910390fd5b6113348a8a8a6118f6565b50505050505050505050565b6000600160008473ffffffffffffffffffffffffffffffffffffffff1673ffffffffffffffffffffffffffffffffffffffff16815260200190815260200160002060008373ffffffffffffffffffffffffffffffffffffffff1673ffffffffffffffffffffffffffffffffffffffff16815260200190815260200160002054905092915050565b60006113d282610b7a565b9050919050565b6113e1612c31565b600860008473ffffffffffffffffffffffffffffffffffffffff1673ffffffffffffffffffffffffffffffffffffffff1681526020019081526020016000208263ffffffff1681548110611438576114376135fa565b5b906000526020600020016040518060400160405290816000820160009054906101000a900463ffffffff1663ffffffff1663ffffffff1681526020016000820160049054906101000a90047bffffffffffffffffffffffffffffffffffffffffffffffffffffffff167bffffffffffffffffffffffffffffffffffffffffffffffffffffffff167bffffffffffffffffffffffffffffffffffffffffffffffffffffffff1681525050905092915050565b6114f16118ee565b73ffffffffffffffffffffffffffffffffffffffff1661150f610d15565b73ffffffffffffffffffffffffffffffffffffffff1614611565576040517f08c379a000000000000000000000000000000000000000000000000000000000815260040161155c90613514565b60405180910390fd5b600073ffffffffffffffffffffffffffffffffffffffff168173ffffffffffffffffffffffffffffffffffffffff1614156115d5576040517f08c379a00000000000000000000000000000000000000000000000000000000081526004016115cc90613983565b60405180910390fd5b6115de81612090565b50565b600a5481565b6115f18282611674565b6115f9612207565b7bffffffffffffffffffffffffffffffffffffffffffffffffffffffff1661161f6107b2565b1115611660576040517f08c379a000000000000000000000000000000000000000000000000000000000815260040161165790613a15565b60405180910390fd5b61166e60096117d48361222b565b50505050565b600073ffffffffffffffffffffffffffffffffffffffff168273ffffffffffffffffffffffffffffffffffffffff1614156116e4576040517f08c379a00000000000000000000000000000000000000000000000000000000081526004016116db90613a81565b60405180910390fd5b6116f0600083836124a3565b806002600082825461170291906133c4565b92505081905550806000808473ffffffffffffffffffffffffffffffffffffffff1673ffffffffffffffffffffffffffffffffffffffff168152602001908152602001600020600082825461175791906133c4565b925050819055508173ffffffffffffffffffffffffffffffffffffffff16600073ffffffffffffffffffffffffffffffffffffffff167fddf252ad1be2c89b69c2b068fc378daa952ba7f163c4a11628f55a4df523b3ef836040516117bc9190612e48565b60405180910390a36117d0600083836124a8565b5050565b600081836117e291906133c4565b905092915050565b60007bffffffffffffffffffffffffffffffffffffffffffffffffffffffff801682111561184d576040517f08c379a000000000000000000000000000000000000000000000000000000000815260040161184490613b13565b60405180910390fd5b819050919050565b600063ffffffff80168211156118a0576040517f08c379a000000000000000000000000000000000000000000000000000000000815260040161189790613ba5565b60405180910390fd5b819050919050565b6118b38383836118d3565b6118ce6118bf84610a20565b6118c884610a20565b836124b8565b505050565b505050565b600081836118e691906135c6565b905092915050565b600033905090565b600073ffffffffffffffffffffffffffffffffffffffff168373ffffffffffffffffffffffffffffffffffffffff161415611966576040517f08c379a000000000000000000000000000000000000000000000000000000000815260040161195d90613c37565b60405180910390fd5b600073ffffffffffffffffffffffffffffffffffffffff168273ffffffffffffffffffffffffffffffffffffffff1614156119d6576040517f08c379a00000000000000000000000000000000000000000000000000000000081526004016119cd90613cc9565b60405180910390fd5b80600160008573ffffffffffffffffffffffffffffffffffffffff1673ffffffffffffffffffffffffffffffffffffffff16815260200190815260200160002060008473ffffffffffffffffffffffffffffffffffffffff1673ffffffffffffffffffffffffffffffffffffffff168152602001908152602001600020819055508173ffffffffffffffffffffffffffffffffffffffff168373ffffffffffffffffffffffffffffffffffffffff167f8c5be1e5ebec7d5bd14f71427d1e84f3dd0314c0f7b2291e5b200ac8c7c3b92583604051611ab49190612e48565b60405180910390a3505050565b600073ffffffffffffffffffffffffffffffffffffffff168373ffffffffffffffffffffffffffffffffffffffff161415611b31576040517f08c379a0000000000000000000000000000000000000000000000000000000008152600401611b2890613d5b565b60405180910390fd5b600073ffffffffffffffffffffffffffffffffffffffff168273ffffffffffffffffffffffffffffffffffffffff161415611ba1576040517f08c379a0000000000000000000000000000000000000000000000000000000008152600401611b9890613ded565b60405180910390fd5b611bac8383836124a3565b60008060008573ffffffffffffffffffffffffffffffffffffffff1673ffffffffffffffffffffffffffffffffffffffff16815260200190815260200160002054905081811015611c32576040517f08c379a0000000000000000000000000000000000000000000000000000000008152600401611c2990613e7f565b60405180910390fd5b8181036000808673ffffffffffffffffffffffffffffffffffffffff1673ffffffffffffffffffffffffffffffffffffffff16815260200190815260200160002081905550816000808573ffffffffffffffffffffffffffffffffffffffff1673ffffffffffffffffffffffffffffffffffffffff1681526020019081526020016000206000828254611cc591906133c4565b925050819055508273ffffffffffffffffffffffffffffffffffffffff168473ffffffffffffffffffffffffffffffffffffffff167fddf252ad1be2c89b69c2b068fc378daa952ba7f163c4a11628f55a4df523b3ef84604051611d299190612e48565b60405180910390a3611d3c8484846124a8565b50505050565b60007f000000000000000000000000000000000000000000000000000000000000000073ffffffffffffffffffffffffffffffffffffffff163073ffffffffffffffffffffffffffffffffffffffff16148015611dbe57507f000000000000000000000000000000000000000000000000000000000000000046145b15611deb577f00000000000000000000000000000000000000000000000000000000000000009050611e59565b611e567f00000000000000000000000000000000000000000000000000000000000000007f00000000000000000000000000000000000000000000000000000000000000007f00000000000000000000000000000000000000000000000000000000000000006126b1565b90505b90565b6000808380549050905060005b81811015611edb576000611e7d82846126eb565b905084868281548110611e9357611e926135fa565b5b9060005260206000200160000160009054906101000a900463ffffffff1663ffffffff161115611ec557809250611ed5565b600181611ed291906133c4565b91505b50611e69565b60008214611f3d5784600183611ef191906135c6565b81548110611f0257611f016135fa565b5b9060005260206000200160000160049054906101000a90047bffffffffffffffffffffffffffffffffffffffffffffffffffffffff16611f40565b60005b7bffffffffffffffffffffffffffffffffffffffffffffffffffffffff169250505092915050565b611f728282612711565b5050565b6000611f8183610a20565b90506000611f8e84610b7a565b905082600760008673ffffffffffffffffffffffffffffffffffffffff1673ffffffffffffffffffffffffffffffffffffffff16815260200190815260200160002060006101000a81548173ffffffffffffffffffffffffffffffffffffffff021916908373ffffffffffffffffffffffffffffffffffffffff1602179055508273ffffffffffffffffffffffffffffffffffffffff168273ffffffffffffffffffffffffffffffffffffffff168573ffffffffffffffffffffffffffffffffffffffff167f3134e8a2e6d97e929a7e54011ea5485d7d196dd5f0ba4d4ef95803e8e3fc257f60405160405180910390a461208a8284836124b8565b50505050565b6000600560009054906101000a900473ffffffffffffffffffffffffffffffffffffffff16905081600560006101000a81548173ffffffffffffffffffffffffffffffffffffffff021916908373ffffffffffffffffffffffffffffffffffffffff1602179055508173ffffffffffffffffffffffffffffffffffffffff168173ffffffffffffffffffffffffffffffffffffffff167f8be0079c531659141344cd1fd0a4f28419497f9722a3daafe3b4186f6b6457e060405160405180910390a35050565b600081600001549050919050565b6000612177612171611d42565b8361272f565b9050919050565b600080600061218f87878787612762565b9150915061219c8161286f565b8192505050949350505050565b600080600660008473ffffffffffffffffffffffffffffffffffffffff1673ffffffffffffffffffffffffffffffffffffffff16815260200190815260200160002090506121f681612156565b915061220181612a44565b50919050565b60007bffffffffffffffffffffffffffffffffffffffffffffffffffffffff905090565b60008060008580549050905060008114612299578560018261224d91906135c6565b8154811061225e5761225d6135fa565b5b9060005260206000200160000160049054906101000a90047bffffffffffffffffffffffffffffffffffffffffffffffffffffffff1661229c565b60005b7bffffffffffffffffffffffffffffffffffffffffffffffffffffffff1692506122ca83858763ffffffff16565b915060008111801561231d575043866001836122e691906135c6565b815481106122f7576122f66135fa565b5b9060005260206000200160000160009054906101000a900463ffffffff1663ffffffff16145b156123aa5761232b826117ea565b8660018361233991906135c6565b8154811061234a576123496135fa565b5b9060005260206000200160000160046101000a8154817bffffffffffffffffffffffffffffffffffffffffffffffffffffffff02191690837bffffffffffffffffffffffffffffffffffffffffffffffffffffffff16021790555061249a565b8560405180604001604052806123bf43611855565b63ffffffff1681526020016123d3856117ea565b7bffffffffffffffffffffffffffffffffffffffffffffffffffffffff168152509080600181540180825580915050600190039060005260206000200160009091909190915060008201518160000160006101000a81548163ffffffff021916908363ffffffff16021790555060208201518160000160046101000a8154817bffffffffffffffffffffffffffffffffffffffffffffffffffffffff02191690837bffffffffffffffffffffffffffffffffffffffffffffffffffffffff16021790555050505b50935093915050565b505050565b6124b38383836118a8565b505050565b8173ffffffffffffffffffffffffffffffffffffffff168373ffffffffffffffffffffffffffffffffffffffff16141580156124f45750600081115b156126ac57600073ffffffffffffffffffffffffffffffffffffffff168373ffffffffffffffffffffffffffffffffffffffff16146125d25760008061257b600860008773ffffffffffffffffffffffffffffffffffffffff1673ffffffffffffffffffffffffffffffffffffffff1681526020019081526020016000206118d88561222b565b915091508473ffffffffffffffffffffffffffffffffffffffff167fdec2bacdd2f05b59de34da9b523dff8be42e5e38e818c82fdb0bae774387a72483836040516125c7929190613e9f565b60405180910390a250505b600073ffffffffffffffffffffffffffffffffffffffff168273ffffffffffffffffffffffffffffffffffffffff16146126ab57600080612654600860008673ffffffffffffffffffffffffffffffffffffffff1673ffffffffffffffffffffffffffffffffffffffff1681526020019081526020016000206117d48561222b565b915091508373ffffffffffffffffffffffffffffffffffffffff167fdec2bacdd2f05b59de34da9b523dff8be42e5e38e818c82fdb0bae774387a72483836040516126a0929190613e9f565b60405180910390a250505b5b505050565b600083838346306040516020016126cc959493929190613ec8565b6040516020818303038152906040528051906020012090509392505050565b600060028284186126fc9190613f4a565b82841661270991906133c4565b905092915050565b61271b8282612a5a565b61272960096118d88361222b565b50505050565b60008282604051602001612744929190613ff3565b60405160208183030381529060405280519060200120905092915050565b6000807f7fffffffffffffffffffffffffffffff5d576e7357a4501ddfe92f46681b20a08360001c111561279d576000600391509150612866565b601b8560ff16141580156127b55750601c8560ff1614155b156127c7576000600491509150612866565b6000600187878787604051600081526020016040526040516127ec949392919061402a565b6020604051602081039080840390855afa15801561280e573d6000803e3d6000fd5b505050602060405103519050600073ffffffffffffffffffffffffffffffffffffffff168173ffffffffffffffffffffffffffffffffffffffff16141561285d57600060019250925050612866565b80600092509250505b94509492505050565b600060048111156128835761288261406f565b5b8160048111156128965761289561406f565b5b14156128a157612a41565b600160048111156128b5576128b461406f565b5b8160048111156128c8576128c761406f565b5b1415612909576040517f08c379a0000000000000000000000000000000000000000000000000000000008152600401612900906140ea565b60405180910390fd5b6002600481111561291d5761291c61406f565b5b8160048111156129305761292f61406f565b5b1415612971576040517f08c379a000000000000000000000000000000000000000000000000000000000815260040161296890614156565b60405180910390fd5b600360048111156129855761298461406f565b5b8160048111156129985761299761406f565b5b14156129d9576040517f08c379a00000000000000000000000000000000000000000000000000000000081526004016129d0906141e8565b60405180910390fd5b6004808111156129ec576129eb61406f565b5b8160048111156129ff576129fe61406f565b5b1415612a40576040517f08c379a0000000000000000000000000000000000000000000000000000000008152600401612a379061427a565b60405180910390fd5b5b50565b6001816000016000828254019250508190555050565b600073ffffffffffffffffffffffffffffffffffffffff168273ffffffffffffffffffffffffffffffffffffffff161415612aca576040517f08c379a0000000000000000000000000000000000000000000000000000000008152600401612ac19061430c565b60405180910390fd5b612ad6826000836124a3565b60008060008473ffffffffffffffffffffffffffffffffffffffff1673ffffffffffffffffffffffffffffffffffffffff16815260200190815260200160002054905081811015612b5c576040517f08c379a0000000000000000000000000000000000000000000000000000000008152600401612b539061439e565b60405180910390fd5b8181036000808573ffffffffffffffffffffffffffffffffffffffff1673ffffffffffffffffffffffffffffffffffffffff168152602001908152602001600020819055508160026000828254612bb391906135c6565b92505081905550600073ffffffffffffffffffffffffffffffffffffffff168373ffffffffffffffffffffffffffffffffffffffff167fddf252ad1be2c89b69c2b068fc378daa952ba7f163c4a11628f55a4df523b3ef84604051612c189190612e48565b60405180910390a3612c2c836000846124a8565b505050565b6040518060400160405280600063ffffffff16815260200160007bffffffffffffffffffffffffffffffffffffffffffffffffffffffff1681525090565b600081519050919050565b600082825260208201905092915050565b60005b83811015612ca9578082015181840152602081019050612c8e565b83811115612cb8576000848401525b50505050565b6000601f19601f8301169050919050565b6000612cda82612c6f565b612ce48185612c7a565b9350612cf4818560208601612c8b565b612cfd81612cbe565b840191505092915050565b60006020820190508181036000830152612d228184612ccf565b905092915050565b600080fd5b600073ffffffffffffffffffffffffffffffffffffffff82169050919050565b6000612d5a82612d2f565b9050919050565b612d6a81612d4f565b8114612d7557600080fd5b50565b600081359050612d8781612d61565b92915050565b6000819050919050565b612da081612d8d565b8114612dab57600080fd5b50565b600081359050612dbd81612d97565b92915050565b60008060408385031215612dda57612dd9612d2a565b5b6000612de885828601612d78565b9250506020612df985828601612dae565b9150509250929050565b60008115159050919050565b612e1881612e03565b82525050565b6000602082019050612e336000830184612e0f565b92915050565b612e4281612d8d565b82525050565b6000602082019050612e5d6000830184612e39565b92915050565b600080600060608486031215612e7c57612e7b612d2a565b5b6000612e8a86828701612d78565b9350506020612e9b86828701612d78565b9250506040612eac86828701612dae565b9150509250925092565b600060ff82169050919050565b612ecc81612eb6565b82525050565b6000602082019050612ee76000830184612ec3565b92915050565b6000819050919050565b612f0081612eed565b82525050565b6000602082019050612f1b6000830184612ef7565b92915050565b600060208284031215612f3757612f36612d2a565b5b6000612f4584828501612dae565b91505092915050565b600060208284031215612f6457612f63612d2a565b5b6000612f7284828501612d78565b91505092915050565b612f8481612d4f565b82525050565b6000602082019050612f9f6000830184612f7b565b92915050565b60008060408385031215612fbc57612fbb612d2a565b5b6000612fca85828601612d78565b9250506020612fdb85828601612d78565b9150509250929050565b600063ffffffff82169050919050565b612ffe81612fe5565b82525050565b60006020820190506130196000830184612ff5565b92915050565b61302881612eb6565b811461303357600080fd5b50565b6000813590506130458161301f565b92915050565b61305481612eed565b811461305f57600080fd5b50565b6000813590506130718161304b565b92915050565b60008060008060008060c0878903121561309457613093612d2a565b5b60006130a289828a01612d78565b96505060206130b389828a01612dae565b95505060406130c489828a01612dae565b94505060606130d589828a01613036565b93505060806130e689828a01613062565b92505060a06130f789828a01613062565b9150509295509295509295565b600080600080600080600060e0888a03121561312357613122612d2a565b5b60006131318a828b01612d78565b97505060206131428a828b01612d78565b96505060406131538a828b01612dae565b95505060606131648a828b01612dae565b94505060806131758a828b01613036565b93505060a06131868a828b01613062565b92505060c06131978a828b01613062565b91505092959891949750929550565b6131af81612fe5565b81146131ba57600080fd5b50565b6000813590506131cc816131a6565b92915050565b600080604083850312156131e9576131e8612d2a565b5b60006131f785828601612d78565b9250506020613208858286016131bd565b9150509250929050565b61321b81612fe5565b82525050565b60007bffffffffffffffffffffffffffffffffffffffffffffffffffffffff82169050919050565b61325281613221565b82525050565b60408201600082015161326e6000850182613212565b5060208201516132816020850182613249565b50505050565b600060408201905061329c6000830184613258565b92915050565b7f4e487b7100000000000000000000000000000000000000000000000000000000600052602260045260246000fd5b600060028204905060018216806132e957607f821691505b602082108114156132fd576132fc6132a2565b5b50919050565b7f45524332303a207472616e7366657220616d6f756e742065786365656473206160008201527f6c6c6f77616e6365000000000000000000000000000000000000000000000000602082015250565b600061335f602883612c7a565b915061336a82613303565b604082019050919050565b6000602082019050818103600083015261338e81613352565b9050919050565b7f4e487b7100000000000000000000000000000000000000000000000000000000600052601160045260246000fd5b60006133cf82612d8d565b91506133da83612d8d565b9250827fffffffffffffffffffffffffffffffffffffffffffffffffffffffffffffffff0382111561340f5761340e613395565b5b828201905092915050565b7f4552433230566f7465733a20626c6f636b206e6f7420796574206d696e656400600082015250565b6000613450601f83612c7a565b915061345b8261341a565b602082019050919050565b6000602082019050818103600083015261347f81613443565b9050919050565b60008151905061349581612d97565b92915050565b6000602082840312156134b1576134b0612d2a565b5b60006134bf84828501613486565b91505092915050565b7f4f776e61626c653a2063616c6c6572206973206e6f7420746865206f776e6572600082015250565b60006134fe602083612c7a565b9150613509826134c8565b602082019050919050565b6000602082019050818103600083015261352d816134f1565b9050919050565b7f45524332303a206275726e20616d6f756e74206578636565647320616c6c6f7760008201527f616e636500000000000000000000000000000000000000000000000000000000602082015250565b6000613590602483612c7a565b915061359b82613534565b604082019050919050565b600060208201905081810360008301526135bf81613583565b9050919050565b60006135d182612d8d565b91506135dc83612d8d565b9250828210156135ef576135ee613395565b5b828203905092915050565b7f4e487b7100000000000000000000000000000000000000000000000000000000600052603260045260246000fd5b7f45524332303a2064656372656173656420616c6c6f77616e63652062656c6f7760008201527f207a65726f000000000000000000000000000000000000000000000000000000602082015250565b6000613685602583612c7a565b915061369082613629565b604082019050919050565b600060208201905081810360008301526136b481613678565b9050919050565b7f4552433230566f7465733a207369676e61747572652065787069726564000000600082015250565b60006136f1601d83612c7a565b91506136fc826136bb565b602082019050919050565b60006020820190508181036000830152613720816136e4565b9050919050565b600060808201905061373c6000830187612ef7565b6137496020830186612f7b565b6137566040830185612e39565b6137636060830184612e39565b95945050505050565b7f4552433230566f7465733a20696e76616c6964206e6f6e636500000000000000600082015250565b60006137a2601983612c7a565b91506137ad8261376c565b602082019050919050565b600060208201905081810360008301526137d181613795565b9050919050565b7f45524332305065726d69743a206578706972656420646561646c696e65000000600082015250565b600061380e601d83612c7a565b9150613819826137d8565b602082019050919050565b6000602082019050818103600083015261383d81613801565b9050919050565b600060c0820190506138596000830189612ef7565b6138666020830188612f7b565b6138736040830187612f7b565b6138806060830186612e39565b61388d6080830185612e39565b61389a60a0830184612e39565b979650505050505050565b7f45524332305065726d69743a20696e76616c6964207369676e61747572650000600082015250565b60006138db601e83612c7a565b91506138e6826138a5565b602082019050919050565b6000602082019050818103600083015261390a816138ce565b9050919050565b7f4f776e61626c653a206e6577206f776e657220697320746865207a65726f206160008201527f6464726573730000000000000000000000000000000000000000000000000000602082015250565b600061396d602683612c7a565b915061397882613911565b604082019050919050565b6000602082019050818103600083015261399c81613960565b9050919050565b7f4552433230566f7465733a20746f74616c20737570706c79207269736b73206f60008201527f766572666c6f77696e6720766f74657300000000000000000000000000000000602082015250565b60006139ff603083612c7a565b9150613a0a826139a3565b604082019050919050565b60006020820190508181036000830152613a2e816139f2565b9050919050565b7f45524332303a206d696e7420746f20746865207a65726f206164647265737300600082015250565b6000613a6b601f83612c7a565b9150613a7682613a35565b602082019050919050565b60006020820190508181036000830152613a9a81613a5e565b9050919050565b7f53616665436173743a2076616c756520646f65736e27742066697420696e203260008201527f3234206269747300000000000000000000000000000000000000000000000000602082015250565b6000613afd602783612c7a565b9150613b0882613aa1565b604082019050919050565b60006020820190508181036000830152613b2c81613af0565b9050919050565b7f53616665436173743a2076616c756520646f65736e27742066697420696e203360008201527f3220626974730000000000000000000000000000000000000000000000000000602082015250565b6000613b8f602683612c7a565b9150613b9a82613b33565b604082019050919050565b60006020820190508181036000830152613bbe81613b82565b9050919050565b7f45524332303a20617070726f76652066726f6d20746865207a65726f2061646460008201527f7265737300000000000000000000000000000000000000000000000000000000602082015250565b6000613c21602483612c7a565b9150613c2c82613bc5565b604082019050919050565b60006020820190508181036000830152613c5081613c14565b9050919050565b7f45524332303a20617070726f766520746f20746865207a65726f20616464726560008201527f7373000000000000000000000000000000000000000000000000000000000000602082015250565b6000613cb3602283612c7a565b9150613cbe82613c57565b604082019050919050565b60006020820190508181036000830152613ce281613ca6565b9050919050565b7f45524332303a207472616e736665722066726f6d20746865207a65726f20616460008201527f6472657373000000000000000000000000000000000000000000000000000000602082015250565b6000613d45602583612c7a565b9150613d5082613ce9565b604082019050919050565b60006020820190508181036000830152613d7481613d38565b9050919050565b7f45524332303a207472616e7366657220746f20746865207a65726f206164647260008201527f6573730000000000000000000000000000000000000000000000000000000000602082015250565b6000613dd7602383612c7a565b9150613de282613d7b565b604082019050919050565b60006020820190508181036000830152613e0681613dca565b9050919050565b7f45524332303a207472616e7366657220616d6f756e742065786365656473206260008201527f616c616e63650000000000000000000000000000000000000000000000000000602082015250565b6000613e69602683612c7a565b9150613e7482613e0d565b604082019050919050565b60006020820190508181036000830152613e9881613e5c565b9050919050565b6000604082019050613eb46000830185612e39565b613ec16020830184612e39565b9392505050565b600060a082019050613edd6000830188612ef7565b613eea6020830187612ef7565b613ef76040830186612ef7565b613f046060830185612e39565b613f116080830184612f7b565b9695505050505050565b7f4e487b7100000000000000000000000000000000000000000000000000000000600052601260045260246000fd5b6000613f5582612d8d565b9150613f6083612d8d565b925082613f7057613f6f613f1b565b5b828204905092915050565b600081905092915050565b7f1901000000000000000000000000000000000000000000000000000000000000600082015250565b6000613fbc600283613f7b565b9150613fc782613f86565b600282019050919050565b6000819050919050565b613fed613fe882612eed565b613fd2565b82525050565b6000613ffe82613faf565b915061400a8285613fdc565b60208201915061401a8284613fdc565b6020820191508190509392505050565b600060808201905061403f6000830187612ef7565b61404c6020830186612ec3565b6140596040830185612ef7565b6140666060830184612ef7565b95945050505050565b7f4e487b7100000000000000000000000000000000000000000000000000000000600052602160045260246000fd5b7f45434453413a20696e76616c6964207369676e61747572650000000000000000600082015250565b60006140d4601883612c7a565b91506140df8261409e565b602082019050919050565b60006020820190508181036000830152614103816140c7565b9050919050565b7f45434453413a20696e76616c6964207369676e6174757265206c656e67746800600082015250565b6000614140601f83612c7a565b915061414b8261410a565b602082019050919050565b6000602082019050818103600083015261416f81614133565b9050919050565b7f45434453413a20696e76616c6964207369676e6174757265202773272076616c60008201527f7565000000000000000000000000000000000000000000000000000000000000602082015250565b60006141d2602283612c7a565b91506141dd82614176565b604082019050919050565b60006020820190508181036000830152614201816141c5565b9050919050565b7f45434453413a20696e76616c6964207369676e6174757265202776272076616c60008201527f7565000000000000000000000000000000000000000000000000000000000000602082015250565b6000614264602283612c7a565b915061426f82614208565b604082019050919050565b6000602082019050818103600083015261429381614257565b9050919050565b7f45524332303a206275726e2066726f6d20746865207a65726f2061646472657360008201527f7300000000000000000000000000000000000000000000000000000000000000602082015250565b60006142f6602183612c7a565b91506143018261429a565b604082019050919050565b60006020820190508181036000830152614325816142e9565b9050919050565b7f45524332303a206275726e20616d6f756e7420657863656564732062616c616e60008201527f6365000000000000000000000000000000000000000000000000000000000000602082015250565b6000614388602283612c7a565b91506143938261432c565b604082019050919050565b600060208201905081810360008301526143b78161437b565b905091905056fea2646970667358221220f5ac6d9c9855d6e54229fc4cc6ab4c69d71e075a7bdbbcbf54b49c662ba5da2864736f6c634300080b0033",
  "immutableReferences": {
    "1489": [
      {
        "length": 32,
        "start": 4677
      }
    ],
    "2361": [
      {
        "length": 32,
        "start": 7621
      }
    ],
    "2363": [
      {
        "length": 32,
        "start": 7580
      }
    ],
    "2365": [
      {
        "length": 32,
        "start": 7494
      }
    ],
    "2367": [
      {
        "length": 32,
        "start": 7697
      }
    ],
    "2369": [
      {
        "length": 32,
        "start": 7730
      }
    ],
    "2371": [
      {
        "length": 32,
        "start": 7664
      }
    ]
  },
  "source": "import '@openzeppelin/contracts/token/ERC20/ERC20.sol';\r\nimport '@openzeppelin/contracts/token/ERC20/IERC20.sol';\r\nimport '@openzeppelin/contracts/token/ERC20/extensions/ERC20Burnable.sol';\r\nimport '@openzeppelin/contracts/access/Ownable.sol';\r\nimport '@openzeppelin/contracts/token/ERC20/extensions/draft-ERC20Permit.sol';\r\nimport '@openzeppelin/contracts/token/ERC20/extensions/ERC20Votes.sol';\r\n\r\ncontract Tent_Token is ERC20, ERC20Burnable, Ownable, ERC20Permit, ERC20Votes {\r\n\r\n  uint256 public airdropsAmount = 1*10**decimals();\r\n  address public constant airdropWalletAddress = 0xf62e7C7daB2c6b46f2C15fE02F58604bAFB70446;\r\n\r\n   mapping(address => uint) public lockTime;\r\n\r\n  constructor() ERC20('Tent Token', 'TENT') ERC20Permit('TentGovernanceToken') {\r\n    _mint(msg.sender, 1e8 * 10**decimals());\r\n  }\r\n\r\n  function _afterTokenTransfer(\r\n    address _from,\r\n    address _to,\r\n    uint256 _amount\r\n  ) internal override(ERC20, ERC20Votes) {\r\n    super._afterTokenTransfer(_from, _to, _amount);\r\n  }\r\n\r\n  function _mint(address _to, uint256 _amount) internal override(ERC20, ERC20Votes) {\r\n    super._mint(_to, _amount);\r\n  }\r\n\r\n  function _burn(address _account, uint256 _amount) internal override(ERC20, ERC20Votes) {\r\n    super._burn(_account, _amount);\r\n  }\r\n\r\n  //Get balance by token address and holder address\r\n  function getBalance(address token, address holder) public view returns(uint) {\r\n    IERC20 token = IERC20(token);\r\n    return token.balanceOf(holder);\r\n  }\r\n\r\n  function get_Balance(address token, address holder) public view returns(uint) {\r\n    IERC20 token = IERC20(token);\r\n    return token.balanceOf(holder);\r\n  }\r\n\r\n  function getAirdrops(address requestor) public returns(uint){\r\n    // require(block.timestamp > lockTime[msg.sender], \"lock time has not expired. Please try again later\");\r\n    // ERC20.approve(airdropWalletAddress, airdropsAmount);\r\n    // ERC20.transferFrom(airdropWalletAddress, msg.sender, airdropsAmount);\r\n\r\n    // _mint(requestor, amount);\r\n    \r\n    return ERC20.balanceOf(requestor);\r\n    //updates locktime 1 day from now\r\n    // lockTime[msg.sender] = block.timestamp + 1 days;\r\n  }\r\n}",
  "sourcePath": "G:\\Smart_Contract_Testing\\simple_contract\\contracts\\Tent_Token.sol",
  "compiler": {
    "name": "solc",
    "version": "0.8.11+commit.d7f03943.Emscripten.clang"
  },
  "schemaVersion": "3.4.4",
  "updatedAt": "2022-04-01T10:56:00.867Z",
  "networkType": "ethereum",
  "devdoc": {
    "kind": "dev",
    "methods": {
      "DOMAIN_SEPARATOR()": {
        "details": "See {IERC20Permit-DOMAIN_SEPARATOR}."
      },
      "allowance(address,address)": {
        "details": "See {IERC20-allowance}."
      },
      "approve(address,uint256)": {
        "details": "See {IERC20-approve}. Requirements: - `spender` cannot be the zero address."
      },
      "balanceOf(address)": {
        "details": "See {IERC20-balanceOf}."
      },
      "burn(uint256)": {
        "details": "Destroys `amount` tokens from the caller. See {ERC20-_burn}."
      },
      "burnFrom(address,uint256)": {
        "details": "Destroys `amount` tokens from `account`, deducting from the caller's allowance. See {ERC20-_burn} and {ERC20-allowance}. Requirements: - the caller must have allowance for ``accounts``'s tokens of at least `amount`."
      },
      "checkpoints(address,uint32)": {
        "details": "Get the `pos`-th checkpoint for `account`."
      },
      "decimals()": {
        "details": "Returns the number of decimals used to get its user representation. For example, if `decimals` equals `2`, a balance of `505` tokens should be displayed to a user as `5.05` (`505 / 10 ** 2`). Tokens usually opt for a value of 18, imitating the relationship between Ether and Wei. This is the value {ERC20} uses, unless this function is overridden; NOTE: This information is only used for _display_ purposes: it in no way affects any of the arithmetic of the contract, including {IERC20-balanceOf} and {IERC20-transfer}."
      },
      "decreaseAllowance(address,uint256)": {
        "details": "Atomically decreases the allowance granted to `spender` by the caller. This is an alternative to {approve} that can be used as a mitigation for problems described in {IERC20-approve}. Emits an {Approval} event indicating the updated allowance. Requirements: - `spender` cannot be the zero address. - `spender` must have allowance for the caller of at least `subtractedValue`."
      },
      "delegate(address)": {
        "details": "Delegate votes from the sender to `delegatee`."
      },
      "delegateBySig(address,uint256,uint256,uint8,bytes32,bytes32)": {
        "details": "Delegates votes from signer to `delegatee`"
      },
      "delegates(address)": {
        "details": "Get the address `account` is currently delegating to."
      },
      "getPastTotalSupply(uint256)": {
        "details": "Retrieve the `totalSupply` at the end of `blockNumber`. Note, this value is the sum of all balances. It is but NOT the sum of all the delegated votes! Requirements: - `blockNumber` must have been already mined"
      },
      "getPastVotes(address,uint256)": {
        "details": "Retrieve the number of votes for `account` at the end of `blockNumber`. Requirements: - `blockNumber` must have been already mined"
      },
      "getVotes(address)": {
        "details": "Gets the current votes balance for `account`"
      },
      "increaseAllowance(address,uint256)": {
        "details": "Atomically increases the allowance granted to `spender` by the caller. This is an alternative to {approve} that can be used as a mitigation for problems described in {IERC20-approve}. Emits an {Approval} event indicating the updated allowance. Requirements: - `spender` cannot be the zero address."
      },
      "name()": {
        "details": "Returns the name of the token."
      },
      "nonces(address)": {
        "details": "See {IERC20Permit-nonces}."
      },
      "numCheckpoints(address)": {
        "details": "Get number of checkpoints for `account`."
      },
      "owner()": {
        "details": "Returns the address of the current owner."
      },
      "permit(address,address,uint256,uint256,uint8,bytes32,bytes32)": {
        "details": "See {IERC20Permit-permit}."
      },
      "renounceOwnership()": {
        "details": "Leaves the contract without owner. It will not be possible to call `onlyOwner` functions anymore. Can only be called by the current owner. NOTE: Renouncing ownership will leave the contract without an owner, thereby removing any functionality that is only available to the owner."
      },
      "symbol()": {
        "details": "Returns the symbol of the token, usually a shorter version of the name."
      },
      "totalSupply()": {
        "details": "See {IERC20-totalSupply}."
      },
      "transfer(address,uint256)": {
        "details": "See {IERC20-transfer}. Requirements: - `recipient` cannot be the zero address. - the caller must have a balance of at least `amount`."
      },
      "transferFrom(address,address,uint256)": {
        "details": "See {IERC20-transferFrom}. Emits an {Approval} event indicating the updated allowance. This is not required by the EIP. See the note at the beginning of {ERC20}. Requirements: - `sender` and `recipient` cannot be the zero address. - `sender` must have a balance of at least `amount`. - the caller must have allowance for ``sender``'s tokens of at least `amount`."
      },
      "transferOwnership(address)": {
        "details": "Transfers ownership of the contract to a new account (`newOwner`). Can only be called by the current owner."
      }
    },
    "version": 1
  },
  "userdoc": {
    "kind": "user",
    "methods": {},
    "version": 1
  }
}