{
  "contractName": "TestKubToken",
  "abi": [
    {
      "inputs": [],
      "stateMutability": "nonpayable",
      "type": "constructor"
    },
    {
      "anonymous": false,
      "inputs": [
        {
          "indexed": true,
          "internalType": "address",
          "name": "owner",
          "type": "address"
        },
        {
          "indexed": true,
          "internalType": "address",
          "name": "spender",
          "type": "address"
        },
        {
          "indexed": false,
          "internalType": "uint256",
          "name": "value",
          "type": "uint256"
        }
      ],
      "name": "Approval",
      "type": "event"
    },
    {
      "anonymous": false,
      "inputs": [
        {
          "indexed": true,
          "internalType": "address",
          "name": "delegator",
          "type": "address"
        },
        {
          "indexed": true,
          "internalType": "address",
          "name": "fromDelegate",
          "type": "address"
        },
        {
          "indexed": true,
          "internalType": "address",
          "name": "toDelegate",
          "type": "address"
        }
      ],
      "name": "DelegateChanged",
      "type": "event"
    },
    {
      "anonymous": false,
      "inputs": [
        {
          "indexed": true,
          "internalType": "address",
          "name": "delegate",
          "type": "address"
        },
        {
          "indexed": false,
          "internalType": "uint256",
          "name": "previousBalance",
          "type": "uint256"
        },
        {
          "indexed": false,
          "internalType": "uint256",
          "name": "newBalance",
          "type": "uint256"
        }
      ],
      "name": "DelegateVotesChanged",
      "type": "event"
    },
    {
      "anonymous": false,
      "inputs": [
        {
          "indexed": true,
          "internalType": "address",
          "name": "previousOwner",
          "type": "address"
        },
        {
          "indexed": true,
          "internalType": "address",
          "name": "newOwner",
          "type": "address"
        }
      ],
      "name": "OwnershipTransferred",
      "type": "event"
    },
    {
      "anonymous": false,
      "inputs": [
        {
          "indexed": true,
          "internalType": "address",
          "name": "from",
          "type": "address"
        },
        {
          "indexed": true,
          "internalType": "address",
          "name": "to",
          "type": "address"
        },
        {
          "indexed": false,
          "internalType": "uint256",
          "name": "value",
          "type": "uint256"
        }
      ],
      "name": "Transfer",
      "type": "event"
    },
    {
      "inputs": [],
      "name": "DOMAIN_SEPARATOR",
      "outputs": [
        {
          "internalType": "bytes32",
          "name": "",
          "type": "bytes32"
        }
      ],
      "stateMutability": "view",
      "type": "function"
    },
    {
      "inputs": [
        {
          "internalType": "address",
          "name": "owner",
          "type": "address"
        },
        {
          "internalType": "address",
          "name": "spender",
          "type": "address"
        }
      ],
      "name": "allowance",
      "outputs": [
        {
          "internalType": "uint256",
          "name": "",
          "type": "uint256"
        }
      ],
      "stateMutability": "view",
      "type": "function"
    },
    {
      "inputs": [
        {
          "internalType": "address",
          "name": "spender",
          "type": "address"
        },
        {
          "internalType": "uint256",
          "name": "amount",
          "type": "uint256"
        }
      ],
      "name": "approve",
      "outputs": [
        {
          "internalType": "bool",
          "name": "",
          "type": "bool"
        }
      ],
      "stateMutability": "nonpayable",
      "type": "function"
    },
    {
      "inputs": [
        {
          "internalType": "address",
          "name": "account",
          "type": "address"
        }
      ],
      "name": "balanceOf",
      "outputs": [
        {
          "internalType": "uint256",
          "name": "",
          "type": "uint256"
        }
      ],
      "stateMutability": "view",
      "type": "function"
    },
    {
      "inputs": [
        {
          "internalType": "uint256",
          "name": "amount",
          "type": "uint256"
        }
      ],
      "name": "burn",
      "outputs": [],
      "stateMutability": "nonpayable",
      "type": "function"
    },
    {
      "inputs": [
        {
          "internalType": "address",
          "name": "account",
          "type": "address"
        },
        {
          "internalType": "uint256",
          "name": "amount",
          "type": "uint256"
        }
      ],
      "name": "burnFrom",
      "outputs": [],
      "stateMutability": "nonpayable",
      "type": "function"
    },
    {
      "inputs": [
        {
          "internalType": "address",
          "name": "account",
          "type": "address"
        },
        {
          "internalType": "uint32",
          "name": "pos",
          "type": "uint32"
        }
      ],
      "name": "checkpoints",
      "outputs": [
        {
          "components": [
            {
              "internalType": "uint32",
              "name": "fromBlock",
              "type": "uint32"
            },
            {
              "internalType": "uint224",
              "name": "votes",
              "type": "uint224"
            }
          ],
          "internalType": "struct ERC20Votes.Checkpoint",
          "name": "",
          "type": "tuple"
        }
      ],
      "stateMutability": "view",
      "type": "function"
    },
    {
      "inputs": [],
      "name": "decimals",
      "outputs": [
        {
          "internalType": "uint8",
          "name": "",
          "type": "uint8"
        }
      ],
      "stateMutability": "view",
      "type": "function"
    },
    {
      "inputs": [
        {
          "internalType": "address",
          "name": "spender",
          "type": "address"
        },
        {
          "internalType": "uint256",
          "name": "subtractedValue",
          "type": "uint256"
        }
      ],
      "name": "decreaseAllowance",
      "outputs": [
        {
          "internalType": "bool",
          "name": "",
          "type": "bool"
        }
      ],
      "stateMutability": "nonpayable",
      "type": "function"
    },
    {
      "inputs": [
        {
          "internalType": "address",
          "name": "delegatee",
          "type": "address"
        }
      ],
      "name": "delegate",
      "outputs": [],
      "stateMutability": "nonpayable",
      "type": "function"
    },
    {
      "inputs": [
        {
          "internalType": "address",
          "name": "delegatee",
          "type": "address"
        },
        {
          "internalType": "uint256",
          "name": "nonce",
          "type": "uint256"
        },
        {
          "internalType": "uint256",
          "name": "expiry",
          "type": "uint256"
        },
        {
          "internalType": "uint8",
          "name": "v",
          "type": "uint8"
        },
        {
          "internalType": "bytes32",
          "name": "r",
          "type": "bytes32"
        },
        {
          "internalType": "bytes32",
          "name": "s",
          "type": "bytes32"
        }
      ],
      "name": "delegateBySig",
      "outputs": [],
      "stateMutability": "nonpayable",
      "type": "function"
    },
    {
      "inputs": [
        {
          "internalType": "address",
          "name": "account",
          "type": "address"
        }
      ],
      "name": "delegates",
      "outputs": [
        {
          "internalType": "address",
          "name": "",
          "type": "address"
        }
      ],
      "stateMutability": "view",
      "type": "function"
    },
    {
      "inputs": [
        {
          "internalType": "uint256",
          "name": "blockNumber",
          "type": "uint256"
        }
      ],
      "name": "getPastTotalSupply",
      "outputs": [
        {
          "internalType": "uint256",
          "name": "",
          "type": "uint256"
        }
      ],
      "stateMutability": "view",
      "type": "function"
    },
    {
      "inputs": [
        {
          "internalType": "address",
          "name": "account",
          "type": "address"
        },
        {
          "internalType": "uint256",
          "name": "blockNumber",
          "type": "uint256"
        }
      ],
      "name": "getPastVotes",
      "outputs": [
        {
          "internalType": "uint256",
          "name": "",
          "type": "uint256"
        }
      ],
      "stateMutability": "view",
      "type": "function"
    },
    {
      "inputs": [
        {
          "internalType": "address",
          "name": "account",
          "type": "address"
        }
      ],
      "name": "getVotes",
      "outputs": [
        {
          "internalType": "uint256",
          "name": "",
          "type": "uint256"
        }
      ],
      "stateMutability": "view",
      "type": "function"
    },
    {
      "inputs": [
        {
          "internalType": "address",
          "name": "spender",
          "type": "address"
        },
        {
          "internalType": "uint256",
          "name": "addedValue",
          "type": "uint256"
        }
      ],
      "name": "increaseAllowance",
      "outputs": [
        {
          "internalType": "bool",
          "name": "",
          "type": "bool"
        }
      ],
      "stateMutability": "nonpayable",
      "type": "function"
    },
    {
      "inputs": [],
      "name": "name",
      "outputs": [
        {
          "internalType": "string",
          "name": "",
          "type": "string"
        }
      ],
      "stateMutability": "view",
      "type": "function"
    },
    {
      "inputs": [
        {
          "internalType": "address",
          "name": "owner",
          "type": "address"
        }
      ],
      "name": "nonces",
      "outputs": [
        {
          "internalType": "uint256",
          "name": "",
          "type": "uint256"
        }
      ],
      "stateMutability": "view",
      "type": "function"
    },
    {
      "inputs": [
        {
          "internalType": "address",
          "name": "account",
          "type": "address"
        }
      ],
      "name": "numCheckpoints",
      "outputs": [
        {
          "internalType": "uint32",
          "name": "",
          "type": "uint32"
        }
      ],
      "stateMutability": "view",
      "type": "function"
    },
    {
      "inputs": [],
      "name": "owner",
      "outputs": [
        {
          "internalType": "address",
          "name": "",
          "type": "address"
        }
      ],
      "stateMutability": "view",
      "type": "function"
    },
    {
      "inputs": [
        {
          "internalType": "address",
          "name": "owner",
          "type": "address"
        },
        {
          "internalType": "address",
          "name": "spender",
          "type": "address"
        },
        {
          "internalType": "uint256",
          "name": "value",
          "type": "uint256"
        },
        {
          "internalType": "uint256",
          "name": "deadline",
          "type": "uint256"
        },
        {
          "internalType": "uint8",
          "name": "v",
          "type": "uint8"
        },
        {
          "internalType": "bytes32",
          "name": "r",
          "type": "bytes32"
        },
        {
          "internalType": "bytes32",
          "name": "s",
          "type": "bytes32"
        }
      ],
      "name": "permit",
      "outputs": [],
      "stateMutability": "nonpayable",
      "type": "function"
    },
    {
      "inputs": [],
      "name": "renounceOwnership",
      "outputs": [],
      "stateMutability": "nonpayable",
      "type": "function"
    },
    {
      "inputs": [],
      "name": "symbol",
      "outputs": [
        {
          "internalType": "string",
          "name": "",
          "type": "string"
        }
      ],
      "stateMutability": "view",
      "type": "function"
    },
    {
      "inputs": [],
      "name": "totalSupply",
      "outputs": [
        {
          "internalType": "uint256",
          "name": "",
          "type": "uint256"
        }
      ],
      "stateMutability": "view",
      "type": "function"
    },
    {
      "inputs": [
        {
          "internalType": "address",
          "name": "recipient",
          "type": "address"
        },
        {
          "internalType": "uint256",
          "name": "amount",
          "type": "uint256"
        }
      ],
      "name": "transfer",
      "outputs": [
        {
          "internalType": "bool",
          "name": "",
          "type": "bool"
        }
      ],
      "stateMutability": "nonpayable",
      "type": "function"
    },
    {
      "inputs": [
        {
          "internalType": "address",
          "name": "sender",
          "type": "address"
        },
        {
          "internalType": "address",
          "name": "recipient",
          "type": "address"
        },
        {
          "internalType": "uint256",
          "name": "amount",
          "type": "uint256"
        }
      ],
      "name": "transferFrom",
      "outputs": [
        {
          "internalType": "bool",
          "name": "",
          "type": "bool"
        }
      ],
      "stateMutability": "nonpayable",
      "type": "function"
    },
    {
      "inputs": [
        {
          "internalType": "address",
          "name": "newOwner",
          "type": "address"
        }
      ],
      "name": "transferOwnership",
      "outputs": [],
      "stateMutability": "nonpayable",
      "type": "function"
    }
  ],
  "bytecode": "0x6101606040527f6e71edae12b1b97f4d1f60370fef10105fa2faae0126114a169c64845d6126c9610140908152503480156200003a57600080fd5b506040518060400160405280601681526020017f546573744b7562476f7665726e616e6365546f6b656e00000000000000000000815250806040518060400160405280600181526020017f31000000000000000000000000000000000000000000000000000000000000008152506040518060400160405280600d81526020017f546573744b756220546f6b656e000000000000000000000000000000000000008152506040518060400160405280600481526020017f544b55420000000000000000000000000000000000000000000000000000000081525081600390805190602001906200012c92919062000c9c565b5080600490805190602001906200014592919062000c9c565b505050620001686200015c6200026160201b60201c565b6200026960201b60201c565b60008280519060200120905060008280519060200120905060007f8b73c3c69bb8fe3d512ecc4cf759cc79239f7b179b0ffacaa9a75d522b39400f90508260e081815250508161010081815250504660a08181525050620001d18184846200032f60201b60201c565b608081815250503073ffffffffffffffffffffffffffffffffffffffff1660c08173ffffffffffffffffffffffffffffffffffffffff16815250508061012081815250505050505050506200025b33620002306200036b60201b60201c565b600a6200023e919062000ee6565b6305f5e1006200024f919062000f37565b6200037460201b60201c565b62001427565b600033905090565b6000600560009054906101000a900473ffffffffffffffffffffffffffffffffffffffff16905081600560006101000a81548173ffffffffffffffffffffffffffffffffffffffff021916908373ffffffffffffffffffffffffffffffffffffffff1602179055508173ffffffffffffffffffffffffffffffffffffffff168173ffffffffffffffffffffffffffffffffffffffff167f8be0079c531659141344cd1fd0a4f28419497f9722a3daafe3b4186f6b6457e060405160405180910390a35050565b600083838346306040516020016200034c95949392919062001009565b6040516020818303038152906040528051906020012090509392505050565b60006012905090565b6200038b82826200038f60201b6200133f1760201c565b5050565b620003a682826200044d60201b620013cc1760201c565b620003b6620005c660201b60201c565b7bffffffffffffffffffffffffffffffffffffffffffffffffffffffff16620003e4620005ea60201b60201c565b111562000428576040517f08c379a00000000000000000000000000000000000000000000000000000000081526004016200041f90620010ed565b60405180910390fd5b620004476009620005f460201b6200152c17836200060c60201b60201c565b50505050565b600073ffffffffffffffffffffffffffffffffffffffff168273ffffffffffffffffffffffffffffffffffffffff161415620004c0576040517f08c379a0000000000000000000000000000000000000000000000000000000008152600401620004b7906200115f565b60405180910390fd5b620004d460008383620008bd60201b60201c565b8060026000828254620004e8919062001181565b92505081905550806000808473ffffffffffffffffffffffffffffffffffffffff1673ffffffffffffffffffffffffffffffffffffffff16815260200190815260200160002060008282546200053f919062001181565b925050819055508173ffffffffffffffffffffffffffffffffffffffff16600073ffffffffffffffffffffffffffffffffffffffff167fddf252ad1be2c89b69c2b068fc378daa952ba7f163c4a11628f55a4df523b3ef83604051620005a69190620011de565b60405180910390a3620005c260008383620008c260201b60201c565b5050565b60007bffffffffffffffffffffffffffffffffffffffffffffffffffffffff905090565b6000600254905090565b6000818362000604919062001181565b905092915050565b60008060008580549050905060008114620006815785600182620006319190620011fb565b8154811062000645576200064462001236565b5b9060005260206000200160000160049054906101000a90047bffffffffffffffffffffffffffffffffffffffffffffffffffffffff1662000684565b60005b7bffffffffffffffffffffffffffffffffffffffffffffffffffffffff169250620006b083858760201c565b91506000811180156200070957504386600183620006cf9190620011fb565b81548110620006e357620006e262001236565b5b9060005260206000200160000160009054906101000a900463ffffffff1663ffffffff16145b15620007aa576200072582620008df60201b620015421760201c565b86600183620007359190620011fb565b8154811062000749576200074862001236565b5b9060005260206000200160000160046101000a8154817bffffffffffffffffffffffffffffffffffffffffffffffffffffffff02191690837bffffffffffffffffffffffffffffffffffffffffffffffffffffffff160217905550620008b4565b856040518060400160405280620007cc436200094d60201b620015ad1760201c565b63ffffffff168152602001620007ed85620008df60201b620015421760201c565b7bffffffffffffffffffffffffffffffffffffffffffffffffffffffff168152509080600181540180825580915050600190039060005260206000200160009091909190915060008201518160000160006101000a81548163ffffffff021916908363ffffffff16021790555060208201518160000160046101000a8154817bffffffffffffffffffffffffffffffffffffffffffffffffffffffff02191690837bffffffffffffffffffffffffffffffffffffffffffffffffffffffff16021790555050505b50935093915050565b505050565b620008da838383620009a360201b620016001760201c565b505050565b60007bffffffffffffffffffffffffffffffffffffffffffffffffffffffff801682111562000945576040517f08c379a00000000000000000000000000000000000000000000000000000000081526004016200093c90620012db565b60405180910390fd5b819050919050565b600063ffffffff80168211156200099b576040517f08c379a0000000000000000000000000000000000000000000000000000000008152600401620009929062001373565b60405180910390fd5b819050919050565b620009bb838383620009f360201b6200162b1760201c565b620009ee620009d084620009f860201b60201c565b620009e184620009f860201b60201c565b8362000a6160201b60201c565b505050565b505050565b6000600760008373ffffffffffffffffffffffffffffffffffffffff1673ffffffffffffffffffffffffffffffffffffffff16815260200190815260200160002060009054906101000a900473ffffffffffffffffffffffffffffffffffffffff169050919050565b8173ffffffffffffffffffffffffffffffffffffffff168373ffffffffffffffffffffffffffffffffffffffff161415801562000a9e5750600081115b1562000c7f57600073ffffffffffffffffffffffffffffffffffffffff168373ffffffffffffffffffffffffffffffffffffffff161462000b915760008062000b38600860008773ffffffffffffffffffffffffffffffffffffffff1673ffffffffffffffffffffffffffffffffffffffff16815260200190815260200160002062000c8460201b6200163017856200060c60201b60201c565b915091508473ffffffffffffffffffffffffffffffffffffffff167fdec2bacdd2f05b59de34da9b523dff8be42e5e38e818c82fdb0bae774387a724838360405162000b8692919062001395565b60405180910390a250505b600073ffffffffffffffffffffffffffffffffffffffff168273ffffffffffffffffffffffffffffffffffffffff161462000c7e5760008062000c25600860008673ffffffffffffffffffffffffffffffffffffffff1673ffffffffffffffffffffffffffffffffffffffff168152602001908152602001600020620005f460201b6200152c17856200060c60201b60201c565b915091508373ffffffffffffffffffffffffffffffffffffffff167fdec2bacdd2f05b59de34da9b523dff8be42e5e38e818c82fdb0bae774387a724838360405162000c7392919062001395565b60405180910390a250505b5b505050565b6000818362000c949190620011fb565b905092915050565b82805462000caa90620013f1565b90600052602060002090601f01602090048101928262000cce576000855562000d1a565b82601f1062000ce957805160ff191683800117855562000d1a565b8280016001018555821562000d1a579182015b8281111562000d1957825182559160200191906001019062000cfc565b5b50905062000d29919062000d2d565b5090565b5b8082111562000d4857600081600090555060010162000d2e565b5090565b7f4e487b7100000000000000000000000000000000000000000000000000000000600052601160045260246000fd5b60008160011c9050919050565b6000808291508390505b600185111562000dda5780860481111562000db25762000db162000d4c565b5b600185161562000dc25780820291505b808102905062000dd28562000d7b565b945062000d92565b94509492505050565b60008262000df5576001905062000ec8565b8162000e05576000905062000ec8565b816001811462000e1e576002811462000e295762000e5f565b600191505062000ec8565b60ff84111562000e3e5762000e3d62000d4c565b5b8360020a91508482111562000e585762000e5762000d4c565b5b5062000ec8565b5060208310610133831016604e8410600b841016171562000e995782820a90508381111562000e935762000e9262000d4c565b5b62000ec8565b62000ea8848484600162000d88565b9250905081840481111562000ec25762000ec162000d4c565b5b81810290505b9392505050565b6000819050919050565b600060ff82169050919050565b600062000ef38262000ecf565b915062000f008362000ed9565b925062000f2f7fffffffffffffffffffffffffffffffffffffffffffffffffffffffffffffffff848462000de3565b905092915050565b600062000f448262000ecf565b915062000f518362000ecf565b9250817fffffffffffffffffffffffffffffffffffffffffffffffffffffffffffffffff048311821515161562000f8d5762000f8c62000d4c565b5b828202905092915050565b6000819050919050565b62000fad8162000f98565b82525050565b62000fbe8162000ecf565b82525050565b600073ffffffffffffffffffffffffffffffffffffffff82169050919050565b600062000ff18262000fc4565b9050919050565b620010038162000fe4565b82525050565b600060a08201905062001020600083018862000fa2565b6200102f602083018762000fa2565b6200103e604083018662000fa2565b6200104d606083018562000fb3565b6200105c608083018462000ff8565b9695505050505050565b600082825260208201905092915050565b7f4552433230566f7465733a20746f74616c20737570706c79207269736b73206f60008201527f766572666c6f77696e6720766f74657300000000000000000000000000000000602082015250565b6000620010d560308362001066565b9150620010e28262001077565b604082019050919050565b600060208201905081810360008301526200110881620010c6565b9050919050565b7f45524332303a206d696e7420746f20746865207a65726f206164647265737300600082015250565b600062001147601f8362001066565b915062001154826200110f565b602082019050919050565b600060208201905081810360008301526200117a8162001138565b9050919050565b60006200118e8262000ecf565b91506200119b8362000ecf565b9250827fffffffffffffffffffffffffffffffffffffffffffffffffffffffffffffffff03821115620011d357620011d262000d4c565b5b828201905092915050565b6000602082019050620011f5600083018462000fb3565b92915050565b6000620012088262000ecf565b9150620012158362000ecf565b9250828210156200122b576200122a62000d4c565b5b828203905092915050565b7f4e487b7100000000000000000000000000000000000000000000000000000000600052603260045260246000fd5b7f53616665436173743a2076616c756520646f65736e27742066697420696e203260008201527f3234206269747300000000000000000000000000000000000000000000000000602082015250565b6000620012c360278362001066565b9150620012d08262001265565b604082019050919050565b60006020820190508181036000830152620012f681620012b4565b9050919050565b7f53616665436173743a2076616c756520646f65736e27742066697420696e203360008201527f3220626974730000000000000000000000000000000000000000000000000000602082015250565b60006200135b60268362001066565b91506200136882620012fd565b604082019050919050565b600060208201905081810360008301526200138e816200134c565b9050919050565b6000604082019050620013ac600083018562000fb3565b620013bb602083018462000fb3565b9392505050565b7f4e487b7100000000000000000000000000000000000000000000000000000000600052602260045260246000fd5b600060028204905060018216806200140a57607f821691505b60208210811415620014215762001420620013c2565b5b50919050565b60805160a05160c05160e05161010051610120516101405161410a620014826000396000610fb501526000611b4801526000611b8a01526000611b6901526000611a9e01526000611af401526000611b1d015261410a6000f3fe608060405234801561001057600080fd5b50600436106101a95760003560e01c8063715018a6116100f9578063a457c2d711610097578063d505accf11610071578063d505accf1461051c578063dd62ed3e14610538578063f1127ed814610568578063f2fde38b14610598576101a9565b8063a457c2d7146104a0578063a9059cbb146104d0578063c3cda52014610500576101a9565b80638da5cb5b116100d35780638da5cb5b146104045780638e539e8c1461042257806395d89b41146104525780639ab24eb014610470576101a9565b8063715018a6146103ae57806379cc6790146103b85780637ecebe00146103d4576101a9565b80633950935111610166578063587cde1e11610140578063587cde1e146103025780635c19a95c146103325780636fcfff451461034e57806370a082311461037e576101a9565b806339509351146102865780633a46b1a8146102b657806342966c68146102e6576101a9565b806306fdde03146101ae578063095ea7b3146101cc57806318160ddd146101fc57806323b872dd1461021a578063313ce5671461024a5780633644e51514610268575b600080fd5b6101b66105b4565b6040516101c39190612a60565b60405180910390f35b6101e660048036038101906101e19190612b1b565b610646565b6040516101f39190612b76565b60405180910390f35b610204610664565b6040516102119190612ba0565b60405180910390f35b610234600480360381019061022f9190612bbb565b61066e565b6040516102419190612b76565b60405180910390f35b610252610766565b60405161025f9190612c2a565b60405180910390f35b61027061076f565b60405161027d9190612c5e565b60405180910390f35b6102a0600480360381019061029b9190612b1b565b61077e565b6040516102ad9190612b76565b60405180910390f35b6102d060048036038101906102cb9190612b1b565b61082a565b6040516102dd9190612ba0565b60405180910390f35b61030060048036038101906102fb9190612c79565b6108be565b005b61031c60048036038101906103179190612ca6565b6108d2565b6040516103299190612ce2565b60405180910390f35b61034c60048036038101906103479190612ca6565b61093b565b005b61036860048036038101906103639190612ca6565b61094f565b6040516103759190612d1c565b60405180910390f35b61039860048036038101906103939190612ca6565b6109a3565b6040516103a59190612ba0565b60405180910390f35b6103b66109eb565b005b6103d260048036038101906103cd9190612b1b565b610a73565b005b6103ee60048036038101906103e99190612ca6565b610aee565b6040516103fb9190612ba0565b60405180910390f35b61040c610b3e565b6040516104199190612ce2565b60405180910390f35b61043c60048036038101906104379190612c79565b610b68565b6040516104499190612ba0565b60405180910390f35b61045a610bbe565b6040516104679190612a60565b60405180910390f35b61048a60048036038101906104859190612ca6565b610c50565b6040516104979190612ba0565b60405180910390f35b6104ba60048036038101906104b59190612b1b565b610d61565b6040516104c79190612b76565b60405180910390f35b6104ea60048036038101906104e59190612b1b565b610e4c565b6040516104f79190612b76565b60405180910390f35b61051a60048036038101906105159190612d8f565b610e6a565b005b61053660048036038101906105319190612e1c565b610f6e565b005b610552600480360381019061054d9190612ebe565b6110b0565b60405161055f9190612ba0565b60405180910390f35b610582600480360381019061057d9190612f2a565b611137565b60405161058f9190612fdf565b60405180910390f35b6105b260048036038101906105ad9190612ca6565b611247565b005b6060600380546105c390613029565b80601f01602080910402602001604051908101604052809291908181526020018280546105ef90613029565b801561063c5780601f106106115761010080835404028352916020019161063c565b820191906000526020600020905b81548152906001019060200180831161061f57829003601f168201915b5050505050905090565b600061065a610653611646565b848461164e565b6001905092915050565b6000600254905090565b600061067b848484611819565b6000600160008673ffffffffffffffffffffffffffffffffffffffff1673ffffffffffffffffffffffffffffffffffffffff16815260200190815260200160002060006106c6611646565b73ffffffffffffffffffffffffffffffffffffffff1673ffffffffffffffffffffffffffffffffffffffff16815260200190815260200160002054905082811015610746576040517f08c379a000000000000000000000000000000000000000000000000000000000815260040161073d906130cd565b60405180910390fd5b61075a85610752611646565b85840361164e565b60019150509392505050565b60006012905090565b6000610779611a9a565b905090565b600061082061078b611646565b848460016000610799611646565b73ffffffffffffffffffffffffffffffffffffffff1673ffffffffffffffffffffffffffffffffffffffff16815260200190815260200160002060008873ffffffffffffffffffffffffffffffffffffffff1673ffffffffffffffffffffffffffffffffffffffff1681526020019081526020016000205461081b919061311c565b61164e565b6001905092915050565b600043821061086e576040517f08c379a0000000000000000000000000000000000000000000000000000000008152600401610865906131be565b60405180910390fd5b6108b6600860008573ffffffffffffffffffffffffffffffffffffffff1673ffffffffffffffffffffffffffffffffffffffff16815260200190815260200160002083611bb4565b905092915050565b6108cf6108c9611646565b82611cc0565b50565b6000600760008373ffffffffffffffffffffffffffffffffffffffff1673ffffffffffffffffffffffffffffffffffffffff16815260200190815260200160002060009054906101000a900473ffffffffffffffffffffffffffffffffffffffff169050919050565b61094c610946611646565b82611cce565b50565b600061099c600860008473ffffffffffffffffffffffffffffffffffffffff1673ffffffffffffffffffffffffffffffffffffffff168152602001908152602001600020805490506115ad565b9050919050565b60008060008373ffffffffffffffffffffffffffffffffffffffff1673ffffffffffffffffffffffffffffffffffffffff168152602001908152602001600020549050919050565b6109f3611646565b73ffffffffffffffffffffffffffffffffffffffff16610a11610b3e565b73ffffffffffffffffffffffffffffffffffffffff1614610a67576040517f08c379a0000000000000000000000000000000000000000000000000000000008152600401610a5e9061322a565b60405180910390fd5b610a716000611de8565b565b6000610a8683610a81611646565b6110b0565b905081811015610acb576040517f08c379a0000000000000000000000000000000000000000000000000000000008152600401610ac2906132bc565b60405180910390fd5b610adf83610ad7611646565b84840361164e565b610ae98383611cc0565b505050565b6000610b37600660008473ffffffffffffffffffffffffffffffffffffffff1673ffffffffffffffffffffffffffffffffffffffff168152602001908152602001600020611eae565b9050919050565b6000600560009054906101000a900473ffffffffffffffffffffffffffffffffffffffff16905090565b6000438210610bac576040517f08c379a0000000000000000000000000000000000000000000000000000000008152600401610ba3906131be565b60405180910390fd5b610bb7600983611bb4565b9050919050565b606060048054610bcd90613029565b80601f0160208091040260200160405190810160405280929190818152602001828054610bf990613029565b8015610c465780601f10610c1b57610100808354040283529160200191610c46565b820191906000526020600020905b815481529060010190602001808311610c2957829003601f168201915b5050505050905090565b600080600860008473ffffffffffffffffffffffffffffffffffffffff1673ffffffffffffffffffffffffffffffffffffffff16815260200190815260200160002080549050905060008114610d3857600860008473ffffffffffffffffffffffffffffffffffffffff1673ffffffffffffffffffffffffffffffffffffffff168152602001908152602001600020600182610cec91906132dc565b81548110610cfd57610cfc613310565b5b9060005260206000200160000160049054906101000a90047bffffffffffffffffffffffffffffffffffffffffffffffffffffffff16610d3b565b60005b7bffffffffffffffffffffffffffffffffffffffffffffffffffffffff16915050919050565b60008060016000610d70611646565b73ffffffffffffffffffffffffffffffffffffffff1673ffffffffffffffffffffffffffffffffffffffff16815260200190815260200160002060008573ffffffffffffffffffffffffffffffffffffffff1673ffffffffffffffffffffffffffffffffffffffff16815260200190815260200160002054905082811015610e2d576040517f08c379a0000000000000000000000000000000000000000000000000000000008152600401610e24906133b1565b60405180910390fd5b610e41610e38611646565b8585840361164e565b600191505092915050565b6000610e60610e59611646565b8484611819565b6001905092915050565b83421115610ead576040517f08c379a0000000000000000000000000000000000000000000000000000000008152600401610ea49061341d565b60405180910390fd5b6000610f0f610f077fe48329057bfd03d55e49b547132e39cffd9c1820ad7b9d4c5307691425d15adf898989604051602001610eec949392919061343d565b60405160208183030381529060405280519060200120611ebc565b858585611ed6565b9050610f1a81611f01565b8614610f5b576040517f08c379a0000000000000000000000000000000000000000000000000000000008152600401610f52906134ce565b60405180910390fd5b610f658188611cce565b50505050505050565b83421115610fb1576040517f08c379a0000000000000000000000000000000000000000000000000000000008152600401610fa89061353a565b60405180910390fd5b60007f0000000000000000000000000000000000000000000000000000000000000000888888610fe08c611f01565b89604051602001610ff69695949392919061355a565b604051602081830303815290604052805190602001209050600061101982611ebc565b9050600061102982878787611ed6565b90508973ffffffffffffffffffffffffffffffffffffffff168173ffffffffffffffffffffffffffffffffffffffff1614611099576040517f08c379a000000000000000000000000000000000000000000000000000000000815260040161109090613607565b60405180910390fd5b6110a48a8a8a61164e565b50505050505050505050565b6000600160008473ffffffffffffffffffffffffffffffffffffffff1673ffffffffffffffffffffffffffffffffffffffff16815260200190815260200160002060008373ffffffffffffffffffffffffffffffffffffffff1673ffffffffffffffffffffffffffffffffffffffff16815260200190815260200160002054905092915050565b61113f612989565b600860008473ffffffffffffffffffffffffffffffffffffffff1673ffffffffffffffffffffffffffffffffffffffff1681526020019081526020016000208263ffffffff168154811061119657611195613310565b5b906000526020600020016040518060400160405290816000820160009054906101000a900463ffffffff1663ffffffff1663ffffffff1681526020016000820160049054906101000a90047bffffffffffffffffffffffffffffffffffffffffffffffffffffffff167bffffffffffffffffffffffffffffffffffffffffffffffffffffffff167bffffffffffffffffffffffffffffffffffffffffffffffffffffffff1681525050905092915050565b61124f611646565b73ffffffffffffffffffffffffffffffffffffffff1661126d610b3e565b73ffffffffffffffffffffffffffffffffffffffff16146112c3576040517f08c379a00000000000000000000000000000000000000000000000000000000081526004016112ba9061322a565b60405180910390fd5b600073ffffffffffffffffffffffffffffffffffffffff168173ffffffffffffffffffffffffffffffffffffffff161415611333576040517f08c379a000000000000000000000000000000000000000000000000000000000815260040161132a90613699565b60405180910390fd5b61133c81611de8565b50565b61134982826113cc565b611351611f5f565b7bffffffffffffffffffffffffffffffffffffffffffffffffffffffff16611377610664565b11156113b8576040517f08c379a00000000000000000000000000000000000000000000000000000000081526004016113af9061372b565b60405180910390fd5b6113c6600961152c83611f83565b50505050565b600073ffffffffffffffffffffffffffffffffffffffff168273ffffffffffffffffffffffffffffffffffffffff16141561143c576040517f08c379a000000000000000000000000000000000000000000000000000000000815260040161143390613797565b60405180910390fd5b611448600083836121fb565b806002600082825461145a919061311c565b92505081905550806000808473ffffffffffffffffffffffffffffffffffffffff1673ffffffffffffffffffffffffffffffffffffffff16815260200190815260200160002060008282546114af919061311c565b925050819055508173ffffffffffffffffffffffffffffffffffffffff16600073ffffffffffffffffffffffffffffffffffffffff167fddf252ad1be2c89b69c2b068fc378daa952ba7f163c4a11628f55a4df523b3ef836040516115149190612ba0565b60405180910390a361152860008383612200565b5050565b6000818361153a919061311c565b905092915050565b60007bffffffffffffffffffffffffffffffffffffffffffffffffffffffff80168211156115a5576040517f08c379a000000000000000000000000000000000000000000000000000000000815260040161159c90613829565b60405180910390fd5b819050919050565b600063ffffffff80168211156115f8576040517f08c379a00000000000000000000000000000000000000000000000000000000081526004016115ef906138bb565b60405180910390fd5b819050919050565b61160b83838361162b565b611626611617846108d2565b611620846108d2565b83612210565b505050565b505050565b6000818361163e91906132dc565b905092915050565b600033905090565b600073ffffffffffffffffffffffffffffffffffffffff168373ffffffffffffffffffffffffffffffffffffffff1614156116be576040517f08c379a00000000000000000000000000000000000000000000000000000000081526004016116b59061394d565b60405180910390fd5b600073ffffffffffffffffffffffffffffffffffffffff168273ffffffffffffffffffffffffffffffffffffffff16141561172e576040517f08c379a0000000000000000000000000000000000000000000000000000000008152600401611725906139df565b60405180910390fd5b80600160008573ffffffffffffffffffffffffffffffffffffffff1673ffffffffffffffffffffffffffffffffffffffff16815260200190815260200160002060008473ffffffffffffffffffffffffffffffffffffffff1673ffffffffffffffffffffffffffffffffffffffff168152602001908152602001600020819055508173ffffffffffffffffffffffffffffffffffffffff168373ffffffffffffffffffffffffffffffffffffffff167f8c5be1e5ebec7d5bd14f71427d1e84f3dd0314c0f7b2291e5b200ac8c7c3b9258360405161180c9190612ba0565b60405180910390a3505050565b600073ffffffffffffffffffffffffffffffffffffffff168373ffffffffffffffffffffffffffffffffffffffff161415611889576040517f08c379a000000000000000000000000000000000000000000000000000000000815260040161188090613a71565b60405180910390fd5b600073ffffffffffffffffffffffffffffffffffffffff168273ffffffffffffffffffffffffffffffffffffffff1614156118f9576040517f08c379a00000000000000000000000000000000000000000000000000000000081526004016118f090613b03565b60405180910390fd5b6119048383836121fb565b60008060008573ffffffffffffffffffffffffffffffffffffffff1673ffffffffffffffffffffffffffffffffffffffff1681526020019081526020016000205490508181101561198a576040517f08c379a000000000000000000000000000000000000000000000000000000000815260040161198190613b95565b60405180910390fd5b8181036000808673ffffffffffffffffffffffffffffffffffffffff1673ffffffffffffffffffffffffffffffffffffffff16815260200190815260200160002081905550816000808573ffffffffffffffffffffffffffffffffffffffff1673ffffffffffffffffffffffffffffffffffffffff1681526020019081526020016000206000828254611a1d919061311c565b925050819055508273ffffffffffffffffffffffffffffffffffffffff168473ffffffffffffffffffffffffffffffffffffffff167fddf252ad1be2c89b69c2b068fc378daa952ba7f163c4a11628f55a4df523b3ef84604051611a819190612ba0565b60405180910390a3611a94848484612200565b50505050565b60007f000000000000000000000000000000000000000000000000000000000000000073ffffffffffffffffffffffffffffffffffffffff163073ffffffffffffffffffffffffffffffffffffffff16148015611b1657507f000000000000000000000000000000000000000000000000000000000000000046145b15611b43577f00000000000000000000000000000000000000000000000000000000000000009050611bb1565b611bae7f00000000000000000000000000000000000000000000000000000000000000007f00000000000000000000000000000000000000000000000000000000000000007f0000000000000000000000000000000000000000000000000000000000000000612409565b90505b90565b6000808380549050905060005b81811015611c33576000611bd58284612443565b905084868281548110611beb57611bea613310565b5b9060005260206000200160000160009054906101000a900463ffffffff1663ffffffff161115611c1d57809250611c2d565b600181611c2a919061311c565b91505b50611bc1565b60008214611c955784600183611c4991906132dc565b81548110611c5a57611c59613310565b5b9060005260206000200160000160049054906101000a90047bffffffffffffffffffffffffffffffffffffffffffffffffffffffff16611c98565b60005b7bffffffffffffffffffffffffffffffffffffffffffffffffffffffff169250505092915050565b611cca8282612469565b5050565b6000611cd9836108d2565b90506000611ce6846109a3565b905082600760008673ffffffffffffffffffffffffffffffffffffffff1673ffffffffffffffffffffffffffffffffffffffff16815260200190815260200160002060006101000a81548173ffffffffffffffffffffffffffffffffffffffff021916908373ffffffffffffffffffffffffffffffffffffffff1602179055508273ffffffffffffffffffffffffffffffffffffffff168273ffffffffffffffffffffffffffffffffffffffff168573ffffffffffffffffffffffffffffffffffffffff167f3134e8a2e6d97e929a7e54011ea5485d7d196dd5f0ba4d4ef95803e8e3fc257f60405160405180910390a4611de2828483612210565b50505050565b6000600560009054906101000a900473ffffffffffffffffffffffffffffffffffffffff16905081600560006101000a81548173ffffffffffffffffffffffffffffffffffffffff021916908373ffffffffffffffffffffffffffffffffffffffff1602179055508173ffffffffffffffffffffffffffffffffffffffff168173ffffffffffffffffffffffffffffffffffffffff167f8be0079c531659141344cd1fd0a4f28419497f9722a3daafe3b4186f6b6457e060405160405180910390a35050565b600081600001549050919050565b6000611ecf611ec9611a9a565b83612487565b9050919050565b6000806000611ee7878787876124ba565b91509150611ef4816125c7565b8192505050949350505050565b600080600660008473ffffffffffffffffffffffffffffffffffffffff1673ffffffffffffffffffffffffffffffffffffffff1681526020019081526020016000209050611f4e81611eae565b9150611f598161279c565b50919050565b60007bffffffffffffffffffffffffffffffffffffffffffffffffffffffff905090565b60008060008580549050905060008114611ff15785600182611fa591906132dc565b81548110611fb657611fb5613310565b5b9060005260206000200160000160049054906101000a90047bffffffffffffffffffffffffffffffffffffffffffffffffffffffff16611ff4565b60005b7bffffffffffffffffffffffffffffffffffffffffffffffffffffffff16925061202283858763ffffffff16565b91506000811180156120755750438660018361203e91906132dc565b8154811061204f5761204e613310565b5b9060005260206000200160000160009054906101000a900463ffffffff1663ffffffff16145b156121025761208382611542565b8660018361209191906132dc565b815481106120a2576120a1613310565b5b9060005260206000200160000160046101000a8154817bffffffffffffffffffffffffffffffffffffffffffffffffffffffff02191690837bffffffffffffffffffffffffffffffffffffffffffffffffffffffff1602179055506121f2565b856040518060400160405280612117436115ad565b63ffffffff16815260200161212b85611542565b7bffffffffffffffffffffffffffffffffffffffffffffffffffffffff168152509080600181540180825580915050600190039060005260206000200160009091909190915060008201518160000160006101000a81548163ffffffff021916908363ffffffff16021790555060208201518160000160046101000a8154817bffffffffffffffffffffffffffffffffffffffffffffffffffffffff02191690837bffffffffffffffffffffffffffffffffffffffffffffffffffffffff16021790555050505b50935093915050565b505050565b61220b838383611600565b505050565b8173ffffffffffffffffffffffffffffffffffffffff168373ffffffffffffffffffffffffffffffffffffffff161415801561224c5750600081115b1561240457600073ffffffffffffffffffffffffffffffffffffffff168373ffffffffffffffffffffffffffffffffffffffff161461232a576000806122d3600860008773ffffffffffffffffffffffffffffffffffffffff1673ffffffffffffffffffffffffffffffffffffffff16815260200190815260200160002061163085611f83565b915091508473ffffffffffffffffffffffffffffffffffffffff167fdec2bacdd2f05b59de34da9b523dff8be42e5e38e818c82fdb0bae774387a724838360405161231f929190613bb5565b60405180910390a250505b600073ffffffffffffffffffffffffffffffffffffffff168273ffffffffffffffffffffffffffffffffffffffff1614612403576000806123ac600860008673ffffffffffffffffffffffffffffffffffffffff1673ffffffffffffffffffffffffffffffffffffffff16815260200190815260200160002061152c85611f83565b915091508373ffffffffffffffffffffffffffffffffffffffff167fdec2bacdd2f05b59de34da9b523dff8be42e5e38e818c82fdb0bae774387a72483836040516123f8929190613bb5565b60405180910390a250505b5b505050565b60008383834630604051602001612424959493929190613bde565b6040516020818303038152906040528051906020012090509392505050565b600060028284186124549190613c60565b828416612461919061311c565b905092915050565b61247382826127b2565b612481600961163083611f83565b50505050565b6000828260405160200161249c929190613d09565b60405160208183030381529060405280519060200120905092915050565b6000807f7fffffffffffffffffffffffffffffff5d576e7357a4501ddfe92f46681b20a08360001c11156124f55760006003915091506125be565b601b8560ff161415801561250d5750601c8560ff1614155b1561251f5760006004915091506125be565b6000600187878787604051600081526020016040526040516125449493929190613d40565b6020604051602081039080840390855afa158015612566573d6000803e3d6000fd5b505050602060405103519050600073ffffffffffffffffffffffffffffffffffffffff168173ffffffffffffffffffffffffffffffffffffffff1614156125b5576000600192509250506125be565b80600092509250505b94509492505050565b600060048111156125db576125da613d85565b5b8160048111156125ee576125ed613d85565b5b14156125f957612799565b6001600481111561260d5761260c613d85565b5b8160048111156126205761261f613d85565b5b1415612661576040517f08c379a000000000000000000000000000000000000000000000000000000000815260040161265890613e00565b60405180910390fd5b6002600481111561267557612674613d85565b5b81600481111561268857612687613d85565b5b14156126c9576040517f08c379a00000000000000000000000000000000000000000000000000000000081526004016126c090613e6c565b60405180910390fd5b600360048111156126dd576126dc613d85565b5b8160048111156126f0576126ef613d85565b5b1415612731576040517f08c379a000000000000000000000000000000000000000000000000000000000815260040161272890613efe565b60405180910390fd5b60048081111561274457612743613d85565b5b81600481111561275757612756613d85565b5b1415612798576040517f08c379a000000000000000000000000000000000000000000000000000000000815260040161278f90613f90565b60405180910390fd5b5b50565b6001816000016000828254019250508190555050565b600073ffffffffffffffffffffffffffffffffffffffff168273ffffffffffffffffffffffffffffffffffffffff161415612822576040517f08c379a000000000000000000000000000000000000000000000000000000000815260040161281990614022565b60405180910390fd5b61282e826000836121fb565b60008060008473ffffffffffffffffffffffffffffffffffffffff1673ffffffffffffffffffffffffffffffffffffffff168152602001908152602001600020549050818110156128b4576040517f08c379a00000000000000000000000000000000000000000000000000000000081526004016128ab906140b4565b60405180910390fd5b8181036000808573ffffffffffffffffffffffffffffffffffffffff1673ffffffffffffffffffffffffffffffffffffffff16815260200190815260200160002081905550816002600082825461290b91906132dc565b92505081905550600073ffffffffffffffffffffffffffffffffffffffff168373ffffffffffffffffffffffffffffffffffffffff167fddf252ad1be2c89b69c2b068fc378daa952ba7f163c4a11628f55a4df523b3ef846040516129709190612ba0565b60405180910390a361298483600084612200565b505050565b6040518060400160405280600063ffffffff16815260200160007bffffffffffffffffffffffffffffffffffffffffffffffffffffffff1681525090565b600081519050919050565b600082825260208201905092915050565b60005b83811015612a015780820151818401526020810190506129e6565b83811115612a10576000848401525b50505050565b6000601f19601f8301169050919050565b6000612a32826129c7565b612a3c81856129d2565b9350612a4c8185602086016129e3565b612a5581612a16565b840191505092915050565b60006020820190508181036000830152612a7a8184612a27565b905092915050565b600080fd5b600073ffffffffffffffffffffffffffffffffffffffff82169050919050565b6000612ab282612a87565b9050919050565b612ac281612aa7565b8114612acd57600080fd5b50565b600081359050612adf81612ab9565b92915050565b6000819050919050565b612af881612ae5565b8114612b0357600080fd5b50565b600081359050612b1581612aef565b92915050565b60008060408385031215612b3257612b31612a82565b5b6000612b4085828601612ad0565b9250506020612b5185828601612b06565b9150509250929050565b60008115159050919050565b612b7081612b5b565b82525050565b6000602082019050612b8b6000830184612b67565b92915050565b612b9a81612ae5565b82525050565b6000602082019050612bb56000830184612b91565b92915050565b600080600060608486031215612bd457612bd3612a82565b5b6000612be286828701612ad0565b9350506020612bf386828701612ad0565b9250506040612c0486828701612b06565b9150509250925092565b600060ff82169050919050565b612c2481612c0e565b82525050565b6000602082019050612c3f6000830184612c1b565b92915050565b6000819050919050565b612c5881612c45565b82525050565b6000602082019050612c736000830184612c4f565b92915050565b600060208284031215612c8f57612c8e612a82565b5b6000612c9d84828501612b06565b91505092915050565b600060208284031215612cbc57612cbb612a82565b5b6000612cca84828501612ad0565b91505092915050565b612cdc81612aa7565b82525050565b6000602082019050612cf76000830184612cd3565b92915050565b600063ffffffff82169050919050565b612d1681612cfd565b82525050565b6000602082019050612d316000830184612d0d565b92915050565b612d4081612c0e565b8114612d4b57600080fd5b50565b600081359050612d5d81612d37565b92915050565b612d6c81612c45565b8114612d7757600080fd5b50565b600081359050612d8981612d63565b92915050565b60008060008060008060c08789031215612dac57612dab612a82565b5b6000612dba89828a01612ad0565b9650506020612dcb89828a01612b06565b9550506040612ddc89828a01612b06565b9450506060612ded89828a01612d4e565b9350506080612dfe89828a01612d7a565b92505060a0612e0f89828a01612d7a565b9150509295509295509295565b600080600080600080600060e0888a031215612e3b57612e3a612a82565b5b6000612e498a828b01612ad0565b9750506020612e5a8a828b01612ad0565b9650506040612e6b8a828b01612b06565b9550506060612e7c8a828b01612b06565b9450506080612e8d8a828b01612d4e565b93505060a0612e9e8a828b01612d7a565b92505060c0612eaf8a828b01612d7a565b91505092959891949750929550565b60008060408385031215612ed557612ed4612a82565b5b6000612ee385828601612ad0565b9250506020612ef485828601612ad0565b9150509250929050565b612f0781612cfd565b8114612f1257600080fd5b50565b600081359050612f2481612efe565b92915050565b60008060408385031215612f4157612f40612a82565b5b6000612f4f85828601612ad0565b9250506020612f6085828601612f15565b9150509250929050565b612f7381612cfd565b82525050565b60007bffffffffffffffffffffffffffffffffffffffffffffffffffffffff82169050919050565b612faa81612f79565b82525050565b604082016000820151612fc66000850182612f6a565b506020820151612fd96020850182612fa1565b50505050565b6000604082019050612ff46000830184612fb0565b92915050565b7f4e487b7100000000000000000000000000000000000000000000000000000000600052602260045260246000fd5b6000600282049050600182168061304157607f821691505b6020821081141561305557613054612ffa565b5b50919050565b7f45524332303a207472616e7366657220616d6f756e742065786365656473206160008201527f6c6c6f77616e6365000000000000000000000000000000000000000000000000602082015250565b60006130b76028836129d2565b91506130c28261305b565b604082019050919050565b600060208201905081810360008301526130e6816130aa565b9050919050565b7f4e487b7100000000000000000000000000000000000000000000000000000000600052601160045260246000fd5b600061312782612ae5565b915061313283612ae5565b9250827fffffffffffffffffffffffffffffffffffffffffffffffffffffffffffffffff03821115613167576131666130ed565b5b828201905092915050565b7f4552433230566f7465733a20626c6f636b206e6f7420796574206d696e656400600082015250565b60006131a8601f836129d2565b91506131b382613172565b602082019050919050565b600060208201905081810360008301526131d78161319b565b9050919050565b7f4f776e61626c653a2063616c6c6572206973206e6f7420746865206f776e6572600082015250565b60006132146020836129d2565b915061321f826131de565b602082019050919050565b6000602082019050818103600083015261324381613207565b9050919050565b7f45524332303a206275726e20616d6f756e74206578636565647320616c6c6f7760008201527f616e636500000000000000000000000000000000000000000000000000000000602082015250565b60006132a66024836129d2565b91506132b18261324a565b604082019050919050565b600060208201905081810360008301526132d581613299565b9050919050565b60006132e782612ae5565b91506132f283612ae5565b925082821015613305576133046130ed565b5b828203905092915050565b7f4e487b7100000000000000000000000000000000000000000000000000000000600052603260045260246000fd5b7f45524332303a2064656372656173656420616c6c6f77616e63652062656c6f7760008201527f207a65726f000000000000000000000000000000000000000000000000000000602082015250565b600061339b6025836129d2565b91506133a68261333f565b604082019050919050565b600060208201905081810360008301526133ca8161338e565b9050919050565b7f4552433230566f7465733a207369676e61747572652065787069726564000000600082015250565b6000613407601d836129d2565b9150613412826133d1565b602082019050919050565b60006020820190508181036000830152613436816133fa565b9050919050565b60006080820190506134526000830187612c4f565b61345f6020830186612cd3565b61346c6040830185612b91565b6134796060830184612b91565b95945050505050565b7f4552433230566f7465733a20696e76616c6964206e6f6e636500000000000000600082015250565b60006134b86019836129d2565b91506134c382613482565b602082019050919050565b600060208201905081810360008301526134e7816134ab565b9050919050565b7f45524332305065726d69743a206578706972656420646561646c696e65000000600082015250565b6000613524601d836129d2565b915061352f826134ee565b602082019050919050565b6000602082019050818103600083015261355381613517565b9050919050565b600060c08201905061356f6000830189612c4f565b61357c6020830188612cd3565b6135896040830187612cd3565b6135966060830186612b91565b6135a36080830185612b91565b6135b060a0830184612b91565b979650505050505050565b7f45524332305065726d69743a20696e76616c6964207369676e61747572650000600082015250565b60006135f1601e836129d2565b91506135fc826135bb565b602082019050919050565b60006020820190508181036000830152613620816135e4565b9050919050565b7f4f776e61626c653a206e6577206f776e657220697320746865207a65726f206160008201527f6464726573730000000000000000000000000000000000000000000000000000602082015250565b60006136836026836129d2565b915061368e82613627565b604082019050919050565b600060208201905081810360008301526136b281613676565b9050919050565b7f4552433230566f7465733a20746f74616c20737570706c79207269736b73206f60008201527f766572666c6f77696e6720766f74657300000000000000000000000000000000602082015250565b60006137156030836129d2565b9150613720826136b9565b604082019050919050565b6000602082019050818103600083015261374481613708565b9050919050565b7f45524332303a206d696e7420746f20746865207a65726f206164647265737300600082015250565b6000613781601f836129d2565b915061378c8261374b565b602082019050919050565b600060208201905081810360008301526137b081613774565b9050919050565b7f53616665436173743a2076616c756520646f65736e27742066697420696e203260008201527f3234206269747300000000000000000000000000000000000000000000000000602082015250565b60006138136027836129d2565b915061381e826137b7565b604082019050919050565b6000602082019050818103600083015261384281613806565b9050919050565b7f53616665436173743a2076616c756520646f65736e27742066697420696e203360008201527f3220626974730000000000000000000000000000000000000000000000000000602082015250565b60006138a56026836129d2565b91506138b082613849565b604082019050919050565b600060208201905081810360008301526138d481613898565b9050919050565b7f45524332303a20617070726f76652066726f6d20746865207a65726f2061646460008201527f7265737300000000000000000000000000000000000000000000000000000000602082015250565b60006139376024836129d2565b9150613942826138db565b604082019050919050565b600060208201905081810360008301526139668161392a565b9050919050565b7f45524332303a20617070726f766520746f20746865207a65726f20616464726560008201527f7373000000000000000000000000000000000000000000000000000000000000602082015250565b60006139c96022836129d2565b91506139d48261396d565b604082019050919050565b600060208201905081810360008301526139f8816139bc565b9050919050565b7f45524332303a207472616e736665722066726f6d20746865207a65726f20616460008201527f6472657373000000000000000000000000000000000000000000000000000000602082015250565b6000613a5b6025836129d2565b9150613a66826139ff565b604082019050919050565b60006020820190508181036000830152613a8a81613a4e565b9050919050565b7f45524332303a207472616e7366657220746f20746865207a65726f206164647260008201527f6573730000000000000000000000000000000000000000000000000000000000602082015250565b6000613aed6023836129d2565b9150613af882613a91565b604082019050919050565b60006020820190508181036000830152613b1c81613ae0565b9050919050565b7f45524332303a207472616e7366657220616d6f756e742065786365656473206260008201527f616c616e63650000000000000000000000000000000000000000000000000000602082015250565b6000613b7f6026836129d2565b9150613b8a82613b23565b604082019050919050565b60006020820190508181036000830152613bae81613b72565b9050919050565b6000604082019050613bca6000830185612b91565b613bd76020830184612b91565b9392505050565b600060a082019050613bf36000830188612c4f565b613c006020830187612c4f565b613c0d6040830186612c4f565b613c1a6060830185612b91565b613c276080830184612cd3565b9695505050505050565b7f4e487b7100000000000000000000000000000000000000000000000000000000600052601260045260246000fd5b6000613c6b82612ae5565b9150613c7683612ae5565b925082613c8657613c85613c31565b5b828204905092915050565b600081905092915050565b7f1901000000000000000000000000000000000000000000000000000000000000600082015250565b6000613cd2600283613c91565b9150613cdd82613c9c565b600282019050919050565b6000819050919050565b613d03613cfe82612c45565b613ce8565b82525050565b6000613d1482613cc5565b9150613d208285613cf2565b602082019150613d308284613cf2565b6020820191508190509392505050565b6000608082019050613d556000830187612c4f565b613d626020830186612c1b565b613d6f6040830185612c4f565b613d7c6060830184612c4f565b95945050505050565b7f4e487b7100000000000000000000000000000000000000000000000000000000600052602160045260246000fd5b7f45434453413a20696e76616c6964207369676e61747572650000000000000000600082015250565b6000613dea6018836129d2565b9150613df582613db4565b602082019050919050565b60006020820190508181036000830152613e1981613ddd565b9050919050565b7f45434453413a20696e76616c6964207369676e6174757265206c656e67746800600082015250565b6000613e56601f836129d2565b9150613e6182613e20565b602082019050919050565b60006020820190508181036000830152613e8581613e49565b9050919050565b7f45434453413a20696e76616c6964207369676e6174757265202773272076616c60008201527f7565000000000000000000000000000000000000000000000000000000000000602082015250565b6000613ee86022836129d2565b9150613ef382613e8c565b604082019050919050565b60006020820190508181036000830152613f1781613edb565b9050919050565b7f45434453413a20696e76616c6964207369676e6174757265202776272076616c60008201527f7565000000000000000000000000000000000000000000000000000000000000602082015250565b6000613f7a6022836129d2565b9150613f8582613f1e565b604082019050919050565b60006020820190508181036000830152613fa981613f6d565b9050919050565b7f45524332303a206275726e2066726f6d20746865207a65726f2061646472657360008201527f7300000000000000000000000000000000000000000000000000000000000000602082015250565b600061400c6021836129d2565b915061401782613fb0565b604082019050919050565b6000602082019050818103600083015261403b81613fff565b9050919050565b7f45524332303a206275726e20616d6f756e7420657863656564732062616c616e60008201527f6365000000000000000000000000000000000000000000000000000000000000602082015250565b600061409e6022836129d2565b91506140a982614042565b604082019050919050565b600060208201905081810360008301526140cd81614091565b905091905056fea2646970667358221220523b80ffc54381751fab27a1264280ab14ac75f244deee5723bda1d67eff862264736f6c634300080b0033",
  "immutableReferences": {
    "1489": [
      {
        "length": 32,
        "start": 4021
      }
    ],
    "2361": [
      {
        "length": 32,
        "start": 6941
      }
    ],
    "2363": [
      {
        "length": 32,
        "start": 6900
      }
    ],
    "2365": [
      {
        "length": 32,
        "start": 6814
      }
    ],
    "2367": [
      {
        "length": 32,
        "start": 7017
      }
    ],
    "2369": [
      {
        "length": 32,
        "start": 7050
      }
    ],
    "2371": [
      {
        "length": 32,
        "start": 6984
      }
    ]
  },
  "source": "// SPDX-License-Identifier: MIT\r\npragma solidity ^0.8.9;\r\n\r\nimport '@openzeppelin/contracts/token/ERC20/ERC20.sol';\r\nimport '@openzeppelin/contracts/token/ERC20/extensions/ERC20Burnable.sol';\r\nimport '@openzeppelin/contracts/access/Ownable.sol';\r\nimport '@openzeppelin/contracts/token/ERC20/extensions/draft-ERC20Permit.sol';\r\nimport '@openzeppelin/contracts/token/ERC20/extensions/ERC20Votes.sol';\r\n\r\ncontract TestKubToken is ERC20, ERC20Burnable, Ownable, ERC20Permit, ERC20Votes {\r\n  constructor() ERC20('TestKub Token', 'TKUB') ERC20Permit('TestKubGovernanceToken') {\r\n    _mint(msg.sender, 1e8 * 10**decimals());\r\n  }\r\n\r\n  function _afterTokenTransfer(\r\n    address _from,\r\n    address _to,\r\n    uint256 _amount\r\n  ) internal override(ERC20, ERC20Votes) {\r\n    super._afterTokenTransfer(_from, _to, _amount);\r\n  }\r\n\r\n  function _mint(address _to, uint256 _amount) internal override(ERC20, ERC20Votes) {\r\n    super._mint(_to, _amount);\r\n  }\r\n\r\n  function _burn(address _account, uint256 _amount) internal override(ERC20, ERC20Votes) {\r\n    super._burn(_account, _amount);\r\n  }\r\n}",
  "sourcePath": "G:\\Smart_Contract_Testing\\simple_contract\\contracts\\Token_openzeppelin.sol",
  "compiler": {
    "name": "solc",
    "version": "0.8.11+commit.d7f03943.Emscripten.clang"
  },
  "schemaVersion": "3.4.4",
  "updatedAt": "2022-01-16T14:06:10.253Z",
  "devdoc": {
    "kind": "dev",
    "methods": {
      "DOMAIN_SEPARATOR()": {
        "details": "See {IERC20Permit-DOMAIN_SEPARATOR}."
      },
      "allowance(address,address)": {
        "details": "See {IERC20-allowance}."
      },
      "approve(address,uint256)": {
        "details": "See {IERC20-approve}. Requirements: - `spender` cannot be the zero address."
      },
      "balanceOf(address)": {
        "details": "See {IERC20-balanceOf}."
      },
      "burn(uint256)": {
        "details": "Destroys `amount` tokens from the caller. See {ERC20-_burn}."
      },
      "burnFrom(address,uint256)": {
        "details": "Destroys `amount` tokens from `account`, deducting from the caller's allowance. See {ERC20-_burn} and {ERC20-allowance}. Requirements: - the caller must have allowance for ``accounts``'s tokens of at least `amount`."
      },
      "checkpoints(address,uint32)": {
        "details": "Get the `pos`-th checkpoint for `account`."
      },
      "decimals()": {
        "details": "Returns the number of decimals used to get its user representation. For example, if `decimals` equals `2`, a balance of `505` tokens should be displayed to a user as `5.05` (`505 / 10 ** 2`). Tokens usually opt for a value of 18, imitating the relationship between Ether and Wei. This is the value {ERC20} uses, unless this function is overridden; NOTE: This information is only used for _display_ purposes: it in no way affects any of the arithmetic of the contract, including {IERC20-balanceOf} and {IERC20-transfer}."
      },
      "decreaseAllowance(address,uint256)": {
        "details": "Atomically decreases the allowance granted to `spender` by the caller. This is an alternative to {approve} that can be used as a mitigation for problems described in {IERC20-approve}. Emits an {Approval} event indicating the updated allowance. Requirements: - `spender` cannot be the zero address. - `spender` must have allowance for the caller of at least `subtractedValue`."
      },
      "delegate(address)": {
        "details": "Delegate votes from the sender to `delegatee`."
      },
      "delegateBySig(address,uint256,uint256,uint8,bytes32,bytes32)": {
        "details": "Delegates votes from signer to `delegatee`"
      },
      "delegates(address)": {
        "details": "Get the address `account` is currently delegating to."
      },
      "getPastTotalSupply(uint256)": {
        "details": "Retrieve the `totalSupply` at the end of `blockNumber`. Note, this value is the sum of all balances. It is but NOT the sum of all the delegated votes! Requirements: - `blockNumber` must have been already mined"
      },
      "getPastVotes(address,uint256)": {
        "details": "Retrieve the number of votes for `account` at the end of `blockNumber`. Requirements: - `blockNumber` must have been already mined"
      },
      "getVotes(address)": {
        "details": "Gets the current votes balance for `account`"
      },
      "increaseAllowance(address,uint256)": {
        "details": "Atomically increases the allowance granted to `spender` by the caller. This is an alternative to {approve} that can be used as a mitigation for problems described in {IERC20-approve}. Emits an {Approval} event indicating the updated allowance. Requirements: - `spender` cannot be the zero address."
      },
      "name()": {
        "details": "Returns the name of the token."
      },
      "nonces(address)": {
        "details": "See {IERC20Permit-nonces}."
      },
      "numCheckpoints(address)": {
        "details": "Get number of checkpoints for `account`."
      },
      "owner()": {
        "details": "Returns the address of the current owner."
      },
      "permit(address,address,uint256,uint256,uint8,bytes32,bytes32)": {
        "details": "See {IERC20Permit-permit}."
      },
      "renounceOwnership()": {
        "details": "Leaves the contract without owner. It will not be possible to call `onlyOwner` functions anymore. Can only be called by the current owner. NOTE: Renouncing ownership will leave the contract without an owner, thereby removing any functionality that is only available to the owner."
      },
      "symbol()": {
        "details": "Returns the symbol of the token, usually a shorter version of the name."
      },
      "totalSupply()": {
        "details": "See {IERC20-totalSupply}."
      },
      "transfer(address,uint256)": {
        "details": "See {IERC20-transfer}. Requirements: - `recipient` cannot be the zero address. - the caller must have a balance of at least `amount`."
      },
      "transferFrom(address,address,uint256)": {
        "details": "See {IERC20-transferFrom}. Emits an {Approval} event indicating the updated allowance. This is not required by the EIP. See the note at the beginning of {ERC20}. Requirements: - `sender` and `recipient` cannot be the zero address. - `sender` must have a balance of at least `amount`. - the caller must have allowance for ``sender``'s tokens of at least `amount`."
      },
      "transferOwnership(address)": {
        "details": "Transfers ownership of the contract to a new account (`newOwner`). Can only be called by the current owner."
      }
    },
    "version": 1
  },
  "userdoc": {
    "kind": "user",
    "methods": {},
    "version": 1
  }
}