{
  "contractName": "Token_openzeppelin",
  "abi": [
    {
      "inputs": [],
      "stateMutability": "nonpayable",
      "type": "constructor"
    },
    {
      "anonymous": false,
      "inputs": [
        {
          "indexed": true,
          "internalType": "address",
          "name": "owner",
          "type": "address"
        },
        {
          "indexed": true,
          "internalType": "address",
          "name": "spender",
          "type": "address"
        },
        {
          "indexed": false,
          "internalType": "uint256",
          "name": "value",
          "type": "uint256"
        }
      ],
      "name": "Approval",
      "type": "event"
    },
    {
      "anonymous": false,
      "inputs": [
        {
          "indexed": false,
          "internalType": "address",
          "name": "buyer",
          "type": "address"
        },
        {
          "indexed": false,
          "internalType": "uint256",
          "name": "amountOfETH",
          "type": "uint256"
        },
        {
          "indexed": false,
          "internalType": "uint256",
          "name": "amountOfTokens",
          "type": "uint256"
        }
      ],
      "name": "BuyTokens",
      "type": "event"
    },
    {
      "anonymous": false,
      "inputs": [
        {
          "indexed": true,
          "internalType": "address",
          "name": "delegator",
          "type": "address"
        },
        {
          "indexed": true,
          "internalType": "address",
          "name": "fromDelegate",
          "type": "address"
        },
        {
          "indexed": true,
          "internalType": "address",
          "name": "toDelegate",
          "type": "address"
        }
      ],
      "name": "DelegateChanged",
      "type": "event"
    },
    {
      "anonymous": false,
      "inputs": [
        {
          "indexed": true,
          "internalType": "address",
          "name": "delegate",
          "type": "address"
        },
        {
          "indexed": false,
          "internalType": "uint256",
          "name": "previousBalance",
          "type": "uint256"
        },
        {
          "indexed": false,
          "internalType": "uint256",
          "name": "newBalance",
          "type": "uint256"
        }
      ],
      "name": "DelegateVotesChanged",
      "type": "event"
    },
    {
      "anonymous": false,
      "inputs": [
        {
          "indexed": true,
          "internalType": "address",
          "name": "previousOwner",
          "type": "address"
        },
        {
          "indexed": true,
          "internalType": "address",
          "name": "newOwner",
          "type": "address"
        }
      ],
      "name": "OwnershipTransferred",
      "type": "event"
    },
    {
      "anonymous": false,
      "inputs": [
        {
          "indexed": false,
          "internalType": "address",
          "name": "seller",
          "type": "address"
        },
        {
          "indexed": false,
          "internalType": "uint256",
          "name": "amountOfTokens",
          "type": "uint256"
        },
        {
          "indexed": false,
          "internalType": "uint256",
          "name": "amountOfETH",
          "type": "uint256"
        }
      ],
      "name": "SellTokens",
      "type": "event"
    },
    {
      "anonymous": false,
      "inputs": [
        {
          "indexed": true,
          "internalType": "address",
          "name": "from",
          "type": "address"
        },
        {
          "indexed": true,
          "internalType": "address",
          "name": "to",
          "type": "address"
        },
        {
          "indexed": false,
          "internalType": "uint256",
          "name": "value",
          "type": "uint256"
        }
      ],
      "name": "Transfer",
      "type": "event"
    },
    {
      "inputs": [],
      "name": "DOMAIN_SEPARATOR",
      "outputs": [
        {
          "internalType": "bytes32",
          "name": "",
          "type": "bytes32"
        }
      ],
      "stateMutability": "view",
      "type": "function"
    },
    {
      "inputs": [
        {
          "internalType": "address",
          "name": "owner",
          "type": "address"
        },
        {
          "internalType": "address",
          "name": "spender",
          "type": "address"
        }
      ],
      "name": "allowance",
      "outputs": [
        {
          "internalType": "uint256",
          "name": "",
          "type": "uint256"
        }
      ],
      "stateMutability": "view",
      "type": "function"
    },
    {
      "inputs": [
        {
          "internalType": "address",
          "name": "spender",
          "type": "address"
        },
        {
          "internalType": "uint256",
          "name": "amount",
          "type": "uint256"
        }
      ],
      "name": "approve",
      "outputs": [
        {
          "internalType": "bool",
          "name": "",
          "type": "bool"
        }
      ],
      "stateMutability": "nonpayable",
      "type": "function"
    },
    {
      "inputs": [
        {
          "internalType": "address",
          "name": "account",
          "type": "address"
        }
      ],
      "name": "balanceOf",
      "outputs": [
        {
          "internalType": "uint256",
          "name": "",
          "type": "uint256"
        }
      ],
      "stateMutability": "view",
      "type": "function"
    },
    {
      "inputs": [
        {
          "internalType": "uint256",
          "name": "amount",
          "type": "uint256"
        }
      ],
      "name": "burn",
      "outputs": [],
      "stateMutability": "nonpayable",
      "type": "function"
    },
    {
      "inputs": [
        {
          "internalType": "address",
          "name": "account",
          "type": "address"
        },
        {
          "internalType": "uint256",
          "name": "amount",
          "type": "uint256"
        }
      ],
      "name": "burnFrom",
      "outputs": [],
      "stateMutability": "nonpayable",
      "type": "function"
    },
    {
      "inputs": [
        {
          "internalType": "address",
          "name": "account",
          "type": "address"
        },
        {
          "internalType": "uint32",
          "name": "pos",
          "type": "uint32"
        }
      ],
      "name": "checkpoints",
      "outputs": [
        {
          "components": [
            {
              "internalType": "uint32",
              "name": "fromBlock",
              "type": "uint32"
            },
            {
              "internalType": "uint224",
              "name": "votes",
              "type": "uint224"
            }
          ],
          "internalType": "struct ERC20Votes.Checkpoint",
          "name": "",
          "type": "tuple"
        }
      ],
      "stateMutability": "view",
      "type": "function"
    },
    {
      "inputs": [],
      "name": "decimals",
      "outputs": [
        {
          "internalType": "uint8",
          "name": "",
          "type": "uint8"
        }
      ],
      "stateMutability": "view",
      "type": "function"
    },
    {
      "inputs": [
        {
          "internalType": "address",
          "name": "spender",
          "type": "address"
        },
        {
          "internalType": "uint256",
          "name": "subtractedValue",
          "type": "uint256"
        }
      ],
      "name": "decreaseAllowance",
      "outputs": [
        {
          "internalType": "bool",
          "name": "",
          "type": "bool"
        }
      ],
      "stateMutability": "nonpayable",
      "type": "function"
    },
    {
      "inputs": [
        {
          "internalType": "address",
          "name": "delegatee",
          "type": "address"
        }
      ],
      "name": "delegate",
      "outputs": [],
      "stateMutability": "nonpayable",
      "type": "function"
    },
    {
      "inputs": [
        {
          "internalType": "address",
          "name": "delegatee",
          "type": "address"
        },
        {
          "internalType": "uint256",
          "name": "nonce",
          "type": "uint256"
        },
        {
          "internalType": "uint256",
          "name": "expiry",
          "type": "uint256"
        },
        {
          "internalType": "uint8",
          "name": "v",
          "type": "uint8"
        },
        {
          "internalType": "bytes32",
          "name": "r",
          "type": "bytes32"
        },
        {
          "internalType": "bytes32",
          "name": "s",
          "type": "bytes32"
        }
      ],
      "name": "delegateBySig",
      "outputs": [],
      "stateMutability": "nonpayable",
      "type": "function"
    },
    {
      "inputs": [
        {
          "internalType": "address",
          "name": "account",
          "type": "address"
        }
      ],
      "name": "delegates",
      "outputs": [
        {
          "internalType": "address",
          "name": "",
          "type": "address"
        }
      ],
      "stateMutability": "view",
      "type": "function"
    },
    {
      "inputs": [
        {
          "internalType": "uint256",
          "name": "blockNumber",
          "type": "uint256"
        }
      ],
      "name": "getPastTotalSupply",
      "outputs": [
        {
          "internalType": "uint256",
          "name": "",
          "type": "uint256"
        }
      ],
      "stateMutability": "view",
      "type": "function"
    },
    {
      "inputs": [
        {
          "internalType": "address",
          "name": "account",
          "type": "address"
        },
        {
          "internalType": "uint256",
          "name": "blockNumber",
          "type": "uint256"
        }
      ],
      "name": "getPastVotes",
      "outputs": [
        {
          "internalType": "uint256",
          "name": "",
          "type": "uint256"
        }
      ],
      "stateMutability": "view",
      "type": "function"
    },
    {
      "inputs": [
        {
          "internalType": "address",
          "name": "account",
          "type": "address"
        }
      ],
      "name": "getVotes",
      "outputs": [
        {
          "internalType": "uint256",
          "name": "",
          "type": "uint256"
        }
      ],
      "stateMutability": "view",
      "type": "function"
    },
    {
      "inputs": [
        {
          "internalType": "address",
          "name": "spender",
          "type": "address"
        },
        {
          "internalType": "uint256",
          "name": "addedValue",
          "type": "uint256"
        }
      ],
      "name": "increaseAllowance",
      "outputs": [
        {
          "internalType": "bool",
          "name": "",
          "type": "bool"
        }
      ],
      "stateMutability": "nonpayable",
      "type": "function"
    },
    {
      "inputs": [],
      "name": "name",
      "outputs": [
        {
          "internalType": "string",
          "name": "",
          "type": "string"
        }
      ],
      "stateMutability": "view",
      "type": "function"
    },
    {
      "inputs": [
        {
          "internalType": "address",
          "name": "owner",
          "type": "address"
        }
      ],
      "name": "nonces",
      "outputs": [
        {
          "internalType": "uint256",
          "name": "",
          "type": "uint256"
        }
      ],
      "stateMutability": "view",
      "type": "function"
    },
    {
      "inputs": [
        {
          "internalType": "address",
          "name": "account",
          "type": "address"
        }
      ],
      "name": "numCheckpoints",
      "outputs": [
        {
          "internalType": "uint32",
          "name": "",
          "type": "uint32"
        }
      ],
      "stateMutability": "view",
      "type": "function"
    },
    {
      "inputs": [],
      "name": "owner",
      "outputs": [
        {
          "internalType": "address",
          "name": "",
          "type": "address"
        }
      ],
      "stateMutability": "view",
      "type": "function"
    },
    {
      "inputs": [
        {
          "internalType": "address",
          "name": "owner",
          "type": "address"
        },
        {
          "internalType": "address",
          "name": "spender",
          "type": "address"
        },
        {
          "internalType": "uint256",
          "name": "value",
          "type": "uint256"
        },
        {
          "internalType": "uint256",
          "name": "deadline",
          "type": "uint256"
        },
        {
          "internalType": "uint8",
          "name": "v",
          "type": "uint8"
        },
        {
          "internalType": "bytes32",
          "name": "r",
          "type": "bytes32"
        },
        {
          "internalType": "bytes32",
          "name": "s",
          "type": "bytes32"
        }
      ],
      "name": "permit",
      "outputs": [],
      "stateMutability": "nonpayable",
      "type": "function"
    },
    {
      "inputs": [],
      "name": "renounceOwnership",
      "outputs": [],
      "stateMutability": "nonpayable",
      "type": "function"
    },
    {
      "inputs": [],
      "name": "symbol",
      "outputs": [
        {
          "internalType": "string",
          "name": "",
          "type": "string"
        }
      ],
      "stateMutability": "view",
      "type": "function"
    },
    {
      "inputs": [],
      "name": "tokensPerEth",
      "outputs": [
        {
          "internalType": "uint256",
          "name": "",
          "type": "uint256"
        }
      ],
      "stateMutability": "view",
      "type": "function"
    },
    {
      "inputs": [],
      "name": "totalSupply",
      "outputs": [
        {
          "internalType": "uint256",
          "name": "",
          "type": "uint256"
        }
      ],
      "stateMutability": "view",
      "type": "function"
    },
    {
      "inputs": [
        {
          "internalType": "address",
          "name": "recipient",
          "type": "address"
        },
        {
          "internalType": "uint256",
          "name": "amount",
          "type": "uint256"
        }
      ],
      "name": "transfer",
      "outputs": [
        {
          "internalType": "bool",
          "name": "",
          "type": "bool"
        }
      ],
      "stateMutability": "nonpayable",
      "type": "function"
    },
    {
      "inputs": [
        {
          "internalType": "address",
          "name": "sender",
          "type": "address"
        },
        {
          "internalType": "address",
          "name": "recipient",
          "type": "address"
        },
        {
          "internalType": "uint256",
          "name": "amount",
          "type": "uint256"
        }
      ],
      "name": "transferFrom",
      "outputs": [
        {
          "internalType": "bool",
          "name": "",
          "type": "bool"
        }
      ],
      "stateMutability": "nonpayable",
      "type": "function"
    },
    {
      "inputs": [
        {
          "internalType": "address",
          "name": "newOwner",
          "type": "address"
        }
      ],
      "name": "transferOwnership",
      "outputs": [],
      "stateMutability": "nonpayable",
      "type": "function"
    },
    {
      "inputs": [],
      "name": "buyTokens",
      "outputs": [
        {
          "internalType": "uint256",
          "name": "tokenAmount",
          "type": "uint256"
        }
      ],
      "stateMutability": "payable",
      "type": "function"
    },
    {
      "inputs": [
        {
          "internalType": "address",
          "name": "token",
          "type": "address"
        },
        {
          "internalType": "address",
          "name": "holder",
          "type": "address"
        }
      ],
      "name": "getBalance",
      "outputs": [
        {
          "internalType": "uint256",
          "name": "",
          "type": "uint256"
        }
      ],
      "stateMutability": "view",
      "type": "function"
    }
  ],
  "bytecode": "0x6101606040527f6e71edae12b1b97f4d1f60370fef10105fa2faae0126114a169c64845d6126c9610140908152506064600a553480156200003f57600080fd5b506040518060400160405280601681526020017f546573744b7562476f7665726e616e6365546f6b656e00000000000000000000815250806040518060400160405280600181526020017f31000000000000000000000000000000000000000000000000000000000000008152506040518060400160405280600d81526020017f546573744b756220546f6b656e000000000000000000000000000000000000008152506040518060400160405280600481526020017f544b55420000000000000000000000000000000000000000000000000000000081525081600390805190602001906200013192919062000ca1565b5080600490805190602001906200014a92919062000ca1565b5050506200016d620001616200026660201b60201c565b6200026e60201b60201c565b60008280519060200120905060008280519060200120905060007f8b73c3c69bb8fe3d512ecc4cf759cc79239f7b179b0ffacaa9a75d522b39400f90508260e081815250508161010081815250504660a08181525050620001d68184846200033460201b60201c565b608081815250503073ffffffffffffffffffffffffffffffffffffffff1660c08173ffffffffffffffffffffffffffffffffffffffff16815250508061012081815250505050505050506200026033620002356200037060201b60201c565b600a62000243919062000eeb565b6305f5e10062000254919062000f3c565b6200037960201b60201c565b6200142c565b600033905090565b6000600560009054906101000a900473ffffffffffffffffffffffffffffffffffffffff16905081600560006101000a81548173ffffffffffffffffffffffffffffffffffffffff021916908373ffffffffffffffffffffffffffffffffffffffff1602179055508173ffffffffffffffffffffffffffffffffffffffff168173ffffffffffffffffffffffffffffffffffffffff167f8be0079c531659141344cd1fd0a4f28419497f9722a3daafe3b4186f6b6457e060405160405180910390a35050565b60008383834630604051602001620003519594939291906200100e565b6040516020818303038152906040528051906020012090509392505050565b60006012905090565b6200039082826200039460201b620016be1760201c565b5050565b620003ab82826200045260201b6200174b1760201c565b620003bb620005cb60201b60201c565b7bffffffffffffffffffffffffffffffffffffffffffffffffffffffff16620003e9620005ef60201b60201c565b11156200042d576040517f08c379a00000000000000000000000000000000000000000000000000000000081526004016200042490620010f2565b60405180910390fd5b6200044c6009620005f960201b620018ab17836200061160201b60201c565b50505050565b600073ffffffffffffffffffffffffffffffffffffffff168273ffffffffffffffffffffffffffffffffffffffff161415620004c5576040517f08c379a0000000000000000000000000000000000000000000000000000000008152600401620004bc9062001164565b60405180910390fd5b620004d960008383620008c260201b60201c565b8060026000828254620004ed919062001186565b92505081905550806000808473ffffffffffffffffffffffffffffffffffffffff1673ffffffffffffffffffffffffffffffffffffffff168152602001908152602001600020600082825462000544919062001186565b925050819055508173ffffffffffffffffffffffffffffffffffffffff16600073ffffffffffffffffffffffffffffffffffffffff167fddf252ad1be2c89b69c2b068fc378daa952ba7f163c4a11628f55a4df523b3ef83604051620005ab9190620011e3565b60405180910390a3620005c760008383620008c760201b60201c565b5050565b60007bffffffffffffffffffffffffffffffffffffffffffffffffffffffff905090565b6000600254905090565b6000818362000609919062001186565b905092915050565b6000806000858054905090506000811462000686578560018262000636919062001200565b815481106200064a57620006496200123b565b5b9060005260206000200160000160049054906101000a90047bffffffffffffffffffffffffffffffffffffffffffffffffffffffff1662000689565b60005b7bffffffffffffffffffffffffffffffffffffffffffffffffffffffff169250620006b583858760201c565b91506000811180156200070e57504386600183620006d4919062001200565b81548110620006e857620006e76200123b565b5b9060005260206000200160000160009054906101000a900463ffffffff1663ffffffff16145b15620007af576200072a82620008e460201b620018c11760201c565b866001836200073a919062001200565b815481106200074e576200074d6200123b565b5b9060005260206000200160000160046101000a8154817bffffffffffffffffffffffffffffffffffffffffffffffffffffffff02191690837bffffffffffffffffffffffffffffffffffffffffffffffffffffffff160217905550620008b9565b856040518060400160405280620007d1436200095260201b6200192c1760201c565b63ffffffff168152602001620007f285620008e460201b620018c11760201c565b7bffffffffffffffffffffffffffffffffffffffffffffffffffffffff168152509080600181540180825580915050600190039060005260206000200160009091909190915060008201518160000160006101000a81548163ffffffff021916908363ffffffff16021790555060208201518160000160046101000a8154817bffffffffffffffffffffffffffffffffffffffffffffffffffffffff02191690837bffffffffffffffffffffffffffffffffffffffffffffffffffffffff16021790555050505b50935093915050565b505050565b620008df838383620009a860201b6200197f1760201c565b505050565b60007bffffffffffffffffffffffffffffffffffffffffffffffffffffffff80168211156200094a576040517f08c379a00000000000000000000000000000000000000000000000000000000081526004016200094190620012e0565b60405180910390fd5b819050919050565b600063ffffffff8016821115620009a0576040517f08c379a0000000000000000000000000000000000000000000000000000000008152600401620009979062001378565b60405180910390fd5b819050919050565b620009c0838383620009f860201b620019aa1760201c565b620009f3620009d584620009fd60201b60201c565b620009e684620009fd60201b60201c565b8362000a6660201b60201c565b505050565b505050565b6000600760008373ffffffffffffffffffffffffffffffffffffffff1673ffffffffffffffffffffffffffffffffffffffff16815260200190815260200160002060009054906101000a900473ffffffffffffffffffffffffffffffffffffffff169050919050565b8173ffffffffffffffffffffffffffffffffffffffff168373ffffffffffffffffffffffffffffffffffffffff161415801562000aa35750600081115b1562000c8457600073ffffffffffffffffffffffffffffffffffffffff168373ffffffffffffffffffffffffffffffffffffffff161462000b965760008062000b3d600860008773ffffffffffffffffffffffffffffffffffffffff1673ffffffffffffffffffffffffffffffffffffffff16815260200190815260200160002062000c8960201b620019af17856200061160201b60201c565b915091508473ffffffffffffffffffffffffffffffffffffffff167fdec2bacdd2f05b59de34da9b523dff8be42e5e38e818c82fdb0bae774387a724838360405162000b8b9291906200139a565b60405180910390a250505b600073ffffffffffffffffffffffffffffffffffffffff168273ffffffffffffffffffffffffffffffffffffffff161462000c835760008062000c2a600860008673ffffffffffffffffffffffffffffffffffffffff1673ffffffffffffffffffffffffffffffffffffffff168152602001908152602001600020620005f960201b620018ab17856200061160201b60201c565b915091508373ffffffffffffffffffffffffffffffffffffffff167fdec2bacdd2f05b59de34da9b523dff8be42e5e38e818c82fdb0bae774387a724838360405162000c789291906200139a565b60405180910390a250505b5b505050565b6000818362000c99919062001200565b905092915050565b82805462000caf90620013f6565b90600052602060002090601f01602090048101928262000cd3576000855562000d1f565b82601f1062000cee57805160ff191683800117855562000d1f565b8280016001018555821562000d1f579182015b8281111562000d1e57825182559160200191906001019062000d01565b5b50905062000d2e919062000d32565b5090565b5b8082111562000d4d57600081600090555060010162000d33565b5090565b7f4e487b7100000000000000000000000000000000000000000000000000000000600052601160045260246000fd5b60008160011c9050919050565b6000808291508390505b600185111562000ddf5780860481111562000db75762000db662000d51565b5b600185161562000dc75780820291505b808102905062000dd78562000d80565b945062000d97565b94509492505050565b60008262000dfa576001905062000ecd565b8162000e0a576000905062000ecd565b816001811462000e23576002811462000e2e5762000e64565b600191505062000ecd565b60ff84111562000e435762000e4262000d51565b5b8360020a91508482111562000e5d5762000e5c62000d51565b5b5062000ecd565b5060208310610133831016604e8410600b841016171562000e9e5782820a90508381111562000e985762000e9762000d51565b5b62000ecd565b62000ead848484600162000d8d565b9250905081840481111562000ec75762000ec662000d51565b5b81810290505b9392505050565b6000819050919050565b600060ff82169050919050565b600062000ef88262000ed4565b915062000f058362000ede565b925062000f347fffffffffffffffffffffffffffffffffffffffffffffffffffffffffffffffff848462000de8565b905092915050565b600062000f498262000ed4565b915062000f568362000ed4565b9250817fffffffffffffffffffffffffffffffffffffffffffffffffffffffffffffffff048311821515161562000f925762000f9162000d51565b5b828202905092915050565b6000819050919050565b62000fb28162000f9d565b82525050565b62000fc38162000ed4565b82525050565b600073ffffffffffffffffffffffffffffffffffffffff82169050919050565b600062000ff68262000fc9565b9050919050565b620010088162000fe9565b82525050565b600060a08201905062001025600083018862000fa7565b62001034602083018762000fa7565b62001043604083018662000fa7565b62001052606083018562000fb8565b62001061608083018462000ffd565b9695505050505050565b600082825260208201905092915050565b7f4552433230566f7465733a20746f74616c20737570706c79207269736b73206f60008201527f766572666c6f77696e6720766f74657300000000000000000000000000000000602082015250565b6000620010da6030836200106b565b9150620010e7826200107c565b604082019050919050565b600060208201905081810360008301526200110d81620010cb565b9050919050565b7f45524332303a206d696e7420746f20746865207a65726f206164647265737300600082015250565b60006200114c601f836200106b565b9150620011598262001114565b602082019050919050565b600060208201905081810360008301526200117f816200113d565b9050919050565b6000620011938262000ed4565b9150620011a08362000ed4565b9250827fffffffffffffffffffffffffffffffffffffffffffffffffffffffffffffffff03821115620011d857620011d762000d51565b5b828201905092915050565b6000602082019050620011fa600083018462000fb8565b92915050565b60006200120d8262000ed4565b91506200121a8362000ed4565b92508282101562001230576200122f62000d51565b5b828203905092915050565b7f4e487b7100000000000000000000000000000000000000000000000000000000600052603260045260246000fd5b7f53616665436173743a2076616c756520646f65736e27742066697420696e203260008201527f3234206269747300000000000000000000000000000000000000000000000000602082015250565b6000620012c86027836200106b565b9150620012d5826200126a565b604082019050919050565b60006020820190508181036000830152620012fb81620012b9565b9050919050565b7f53616665436173743a2076616c756520646f65736e27742066697420696e203360008201527f3220626974730000000000000000000000000000000000000000000000000000602082015250565b6000620013606026836200106b565b91506200136d8262001302565b604082019050919050565b60006020820190508181036000830152620013938162001351565b9050919050565b6000604082019050620013b1600083018562000fb8565b620013c0602083018462000fb8565b9392505050565b7f4e487b7100000000000000000000000000000000000000000000000000000000600052602260045260246000fd5b600060028204905060018216806200140f57607f821691505b60208210811415620014265762001425620013c7565b5b50919050565b60805160a05160c05160e05161010051610120516101405161463462001487600039600061133401526000611ec701526000611f0901526000611ee801526000611e1d01526000611e7301526000611e9c01526146346000f3fe6080604052600436106101cd5760003560e01c80637ecebe00116100f7578063c3cda52011610095578063d505accf11610064578063d505accf146106f1578063dd62ed3e1461071a578063f1127ed814610757578063f2fde38b14610794576101cd565b8063c3cda52014610642578063cbdd69b51461066b578063d0febe4c14610696578063d4fac45d146106b4576101cd565b806395d89b41116100d157806395d89b41146105605780639ab24eb01461058b578063a457c2d7146105c8578063a9059cbb14610605576101cd565b80637ecebe00146104bb5780638da5cb5b146104f85780638e539e8c14610523576101cd565b80633a46b1a81161016f5780636fcfff451161013e5780636fcfff451461040157806370a082311461043e578063715018a61461047b57806379cc679014610492576101cd565b80633a46b1a81461033557806342966c6814610372578063587cde1e1461039b5780635c19a95c146103d8576101cd565b806323b872dd116101ab57806323b872dd14610265578063313ce567146102a25780633644e515146102cd57806339509351146102f8576101cd565b806306fdde03146101d2578063095ea7b3146101fd57806318160ddd1461023a575b600080fd5b3480156101de57600080fd5b506101e76107bd565b6040516101f49190612ddf565b60405180910390f35b34801561020957600080fd5b50610224600480360381019061021f9190612e9a565b61084f565b6040516102319190612ef5565b60405180910390f35b34801561024657600080fd5b5061024f61086d565b60405161025c9190612f1f565b60405180910390f35b34801561027157600080fd5b5061028c60048036038101906102879190612f3a565b610877565b6040516102999190612ef5565b60405180910390f35b3480156102ae57600080fd5b506102b761096f565b6040516102c49190612fa9565b60405180910390f35b3480156102d957600080fd5b506102e2610978565b6040516102ef9190612fdd565b60405180910390f35b34801561030457600080fd5b5061031f600480360381019061031a9190612e9a565b610987565b60405161032c9190612ef5565b60405180910390f35b34801561034157600080fd5b5061035c60048036038101906103579190612e9a565b610a33565b6040516103699190612f1f565b60405180910390f35b34801561037e57600080fd5b5061039960048036038101906103949190612ff8565b610ac7565b005b3480156103a757600080fd5b506103c260048036038101906103bd9190613025565b610adb565b6040516103cf9190613061565b60405180910390f35b3480156103e457600080fd5b506103ff60048036038101906103fa9190613025565b610b44565b005b34801561040d57600080fd5b5061042860048036038101906104239190613025565b610b58565b604051610435919061309b565b60405180910390f35b34801561044a57600080fd5b5061046560048036038101906104609190613025565b610bac565b6040516104729190612f1f565b60405180910390f35b34801561048757600080fd5b50610490610bf4565b005b34801561049e57600080fd5b506104b960048036038101906104b49190612e9a565b610c7c565b005b3480156104c757600080fd5b506104e260048036038101906104dd9190613025565b610cf7565b6040516104ef9190612f1f565b60405180910390f35b34801561050457600080fd5b5061050d610d47565b60405161051a9190613061565b60405180910390f35b34801561052f57600080fd5b5061054a60048036038101906105459190612ff8565b610d71565b6040516105579190612f1f565b60405180910390f35b34801561056c57600080fd5b50610575610dc7565b6040516105829190612ddf565b60405180910390f35b34801561059757600080fd5b506105b260048036038101906105ad9190613025565b610e59565b6040516105bf9190612f1f565b60405180910390f35b3480156105d457600080fd5b506105ef60048036038101906105ea9190612e9a565b610f6a565b6040516105fc9190612ef5565b60405180910390f35b34801561061157600080fd5b5061062c60048036038101906106279190612e9a565b611055565b6040516106399190612ef5565b60405180910390f35b34801561064e57600080fd5b506106696004803603810190610664919061310e565b611073565b005b34801561067757600080fd5b50610680611177565b60405161068d9190612f1f565b60405180910390f35b61069e61117d565b6040516106ab9190612f1f565b60405180910390f35b3480156106c057600080fd5b506106db60048036038101906106d6919061319b565b611264565b6040516106e89190612f1f565b60405180910390f35b3480156106fd57600080fd5b50610718600480360381019061071391906131db565b6112ed565b005b34801561072657600080fd5b50610741600480360381019061073c919061319b565b61142f565b60405161074e9190612f1f565b60405180910390f35b34801561076357600080fd5b5061077e600480360381019061077991906132a9565b6114b6565b60405161078b919061335e565b60405180910390f35b3480156107a057600080fd5b506107bb60048036038101906107b69190613025565b6115c6565b005b6060600380546107cc906133a8565b80601f01602080910402602001604051908101604052809291908181526020018280546107f8906133a8565b80156108455780601f1061081a57610100808354040283529160200191610845565b820191906000526020600020905b81548152906001019060200180831161082857829003601f168201915b5050505050905090565b600061086361085c6119c5565b84846119cd565b6001905092915050565b6000600254905090565b6000610884848484611b98565b6000600160008673ffffffffffffffffffffffffffffffffffffffff1673ffffffffffffffffffffffffffffffffffffffff16815260200190815260200160002060006108cf6119c5565b73ffffffffffffffffffffffffffffffffffffffff1673ffffffffffffffffffffffffffffffffffffffff1681526020019081526020016000205490508281101561094f576040517f08c379a00000000000000000000000000000000000000000000000000000000081526004016109469061344c565b60405180910390fd5b6109638561095b6119c5565b8584036119cd565b60019150509392505050565b60006012905090565b6000610982611e19565b905090565b6000610a296109946119c5565b8484600160006109a26119c5565b73ffffffffffffffffffffffffffffffffffffffff1673ffffffffffffffffffffffffffffffffffffffff16815260200190815260200160002060008873ffffffffffffffffffffffffffffffffffffffff1673ffffffffffffffffffffffffffffffffffffffff16815260200190815260200160002054610a24919061349b565b6119cd565b6001905092915050565b6000438210610a77576040517f08c379a0000000000000000000000000000000000000000000000000000000008152600401610a6e9061353d565b60405180910390fd5b610abf600860008573ffffffffffffffffffffffffffffffffffffffff1673ffffffffffffffffffffffffffffffffffffffff16815260200190815260200160002083611f33565b905092915050565b610ad8610ad26119c5565b8261203f565b50565b6000600760008373ffffffffffffffffffffffffffffffffffffffff1673ffffffffffffffffffffffffffffffffffffffff16815260200190815260200160002060009054906101000a900473ffffffffffffffffffffffffffffffffffffffff169050919050565b610b55610b4f6119c5565b8261204d565b50565b6000610ba5600860008473ffffffffffffffffffffffffffffffffffffffff1673ffffffffffffffffffffffffffffffffffffffff1681526020019081526020016000208054905061192c565b9050919050565b60008060008373ffffffffffffffffffffffffffffffffffffffff1673ffffffffffffffffffffffffffffffffffffffff168152602001908152602001600020549050919050565b610bfc6119c5565b73ffffffffffffffffffffffffffffffffffffffff16610c1a610d47565b73ffffffffffffffffffffffffffffffffffffffff1614610c70576040517f08c379a0000000000000000000000000000000000000000000000000000000008152600401610c67906135a9565b60405180910390fd5b610c7a6000612167565b565b6000610c8f83610c8a6119c5565b61142f565b905081811015610cd4576040517f08c379a0000000000000000000000000000000000000000000000000000000008152600401610ccb9061363b565b60405180910390fd5b610ce883610ce06119c5565b8484036119cd565b610cf2838361203f565b505050565b6000610d40600660008473ffffffffffffffffffffffffffffffffffffffff1673ffffffffffffffffffffffffffffffffffffffff16815260200190815260200160002061222d565b9050919050565b6000600560009054906101000a900473ffffffffffffffffffffffffffffffffffffffff16905090565b6000438210610db5576040517f08c379a0000000000000000000000000000000000000000000000000000000008152600401610dac9061353d565b60405180910390fd5b610dc0600983611f33565b9050919050565b606060048054610dd6906133a8565b80601f0160208091040260200160405190810160405280929190818152602001828054610e02906133a8565b8015610e4f5780601f10610e2457610100808354040283529160200191610e4f565b820191906000526020600020905b815481529060010190602001808311610e3257829003601f168201915b5050505050905090565b600080600860008473ffffffffffffffffffffffffffffffffffffffff1673ffffffffffffffffffffffffffffffffffffffff16815260200190815260200160002080549050905060008114610f4157600860008473ffffffffffffffffffffffffffffffffffffffff1673ffffffffffffffffffffffffffffffffffffffff168152602001908152602001600020600182610ef5919061365b565b81548110610f0657610f0561368f565b5b9060005260206000200160000160049054906101000a90047bffffffffffffffffffffffffffffffffffffffffffffffffffffffff16610f44565b60005b7bffffffffffffffffffffffffffffffffffffffffffffffffffffffff16915050919050565b60008060016000610f796119c5565b73ffffffffffffffffffffffffffffffffffffffff1673ffffffffffffffffffffffffffffffffffffffff16815260200190815260200160002060008573ffffffffffffffffffffffffffffffffffffffff1673ffffffffffffffffffffffffffffffffffffffff16815260200190815260200160002054905082811015611036576040517f08c379a000000000000000000000000000000000000000000000000000000000815260040161102d90613730565b60405180910390fd5b61104a6110416119c5565b858584036119cd565b600191505092915050565b60006110696110626119c5565b8484611b98565b6001905092915050565b834211156110b6576040517f08c379a00000000000000000000000000000000000000000000000000000000081526004016110ad9061379c565b60405180910390fd5b60006111186111107fe48329057bfd03d55e49b547132e39cffd9c1820ad7b9d4c5307691425d15adf8989896040516020016110f594939291906137bc565b6040516020818303038152906040528051906020012061223b565b858585612255565b905061112381612280565b8614611164576040517f08c379a000000000000000000000000000000000000000000000000000000000815260040161115b9061384d565b60405180910390fd5b61116e818861204d565b50505050505050565b600a5481565b60008034116111c1576040517f08c379a00000000000000000000000000000000000000000000000000000000081526004016111b8906138b9565b60405180910390fd5b6000600a54346111d191906138d9565b905060006111df3383611055565b905080611221576040517f08c379a00000000000000000000000000000000000000000000000000000000081526004016112189061397f565b60405180910390fd5b7f0a37b72bb67eee30e09084cf386f8a17817c57f620c3ab95fb25d6a20356ec773334846040516112549392919061399f565b60405180910390a1819250505090565b6000808390508073ffffffffffffffffffffffffffffffffffffffff166370a08231846040518263ffffffff1660e01b81526004016112a39190613061565b602060405180830381865afa1580156112c0573d6000803e3d6000fd5b505050506040513d601f19601f820116820180604052508101906112e491906139eb565b91505092915050565b83421115611330576040517f08c379a000000000000000000000000000000000000000000000000000000000815260040161132790613a64565b60405180910390fd5b60007f000000000000000000000000000000000000000000000000000000000000000088888861135f8c612280565b8960405160200161137596959493929190613a84565b60405160208183030381529060405280519060200120905060006113988261223b565b905060006113a882878787612255565b90508973ffffffffffffffffffffffffffffffffffffffff168173ffffffffffffffffffffffffffffffffffffffff1614611418576040517f08c379a000000000000000000000000000000000000000000000000000000000815260040161140f90613b31565b60405180910390fd5b6114238a8a8a6119cd565b50505050505050505050565b6000600160008473ffffffffffffffffffffffffffffffffffffffff1673ffffffffffffffffffffffffffffffffffffffff16815260200190815260200160002060008373ffffffffffffffffffffffffffffffffffffffff1673ffffffffffffffffffffffffffffffffffffffff16815260200190815260200160002054905092915050565b6114be612d08565b600860008473ffffffffffffffffffffffffffffffffffffffff1673ffffffffffffffffffffffffffffffffffffffff1681526020019081526020016000208263ffffffff16815481106115155761151461368f565b5b906000526020600020016040518060400160405290816000820160009054906101000a900463ffffffff1663ffffffff1663ffffffff1681526020016000820160049054906101000a90047bffffffffffffffffffffffffffffffffffffffffffffffffffffffff167bffffffffffffffffffffffffffffffffffffffffffffffffffffffff167bffffffffffffffffffffffffffffffffffffffffffffffffffffffff1681525050905092915050565b6115ce6119c5565b73ffffffffffffffffffffffffffffffffffffffff166115ec610d47565b73ffffffffffffffffffffffffffffffffffffffff1614611642576040517f08c379a0000000000000000000000000000000000000000000000000000000008152600401611639906135a9565b60405180910390fd5b600073ffffffffffffffffffffffffffffffffffffffff168173ffffffffffffffffffffffffffffffffffffffff1614156116b2576040517f08c379a00000000000000000000000000000000000000000000000000000000081526004016116a990613bc3565b60405180910390fd5b6116bb81612167565b50565b6116c8828261174b565b6116d06122de565b7bffffffffffffffffffffffffffffffffffffffffffffffffffffffff166116f661086d565b1115611737576040517f08c379a000000000000000000000000000000000000000000000000000000000815260040161172e90613c55565b60405180910390fd5b61174560096118ab83612302565b50505050565b600073ffffffffffffffffffffffffffffffffffffffff168273ffffffffffffffffffffffffffffffffffffffff1614156117bb576040517f08c379a00000000000000000000000000000000000000000000000000000000081526004016117b290613cc1565b60405180910390fd5b6117c76000838361257a565b80600260008282546117d9919061349b565b92505081905550806000808473ffffffffffffffffffffffffffffffffffffffff1673ffffffffffffffffffffffffffffffffffffffff168152602001908152602001600020600082825461182e919061349b565b925050819055508173ffffffffffffffffffffffffffffffffffffffff16600073ffffffffffffffffffffffffffffffffffffffff167fddf252ad1be2c89b69c2b068fc378daa952ba7f163c4a11628f55a4df523b3ef836040516118939190612f1f565b60405180910390a36118a76000838361257f565b5050565b600081836118b9919061349b565b905092915050565b60007bffffffffffffffffffffffffffffffffffffffffffffffffffffffff8016821115611924576040517f08c379a000000000000000000000000000000000000000000000000000000000815260040161191b90613d53565b60405180910390fd5b819050919050565b600063ffffffff8016821115611977576040517f08c379a000000000000000000000000000000000000000000000000000000000815260040161196e90613de5565b60405180910390fd5b819050919050565b61198a8383836119aa565b6119a561199684610adb565b61199f84610adb565b8361258f565b505050565b505050565b600081836119bd919061365b565b905092915050565b600033905090565b600073ffffffffffffffffffffffffffffffffffffffff168373ffffffffffffffffffffffffffffffffffffffff161415611a3d576040517f08c379a0000000000000000000000000000000000000000000000000000000008152600401611a3490613e77565b60405180910390fd5b600073ffffffffffffffffffffffffffffffffffffffff168273ffffffffffffffffffffffffffffffffffffffff161415611aad576040517f08c379a0000000000000000000000000000000000000000000000000000000008152600401611aa490613f09565b60405180910390fd5b80600160008573ffffffffffffffffffffffffffffffffffffffff1673ffffffffffffffffffffffffffffffffffffffff16815260200190815260200160002060008473ffffffffffffffffffffffffffffffffffffffff1673ffffffffffffffffffffffffffffffffffffffff168152602001908152602001600020819055508173ffffffffffffffffffffffffffffffffffffffff168373ffffffffffffffffffffffffffffffffffffffff167f8c5be1e5ebec7d5bd14f71427d1e84f3dd0314c0f7b2291e5b200ac8c7c3b92583604051611b8b9190612f1f565b60405180910390a3505050565b600073ffffffffffffffffffffffffffffffffffffffff168373ffffffffffffffffffffffffffffffffffffffff161415611c08576040517f08c379a0000000000000000000000000000000000000000000000000000000008152600401611bff90613f9b565b60405180910390fd5b600073ffffffffffffffffffffffffffffffffffffffff168273ffffffffffffffffffffffffffffffffffffffff161415611c78576040517f08c379a0000000000000000000000000000000000000000000000000000000008152600401611c6f9061402d565b60405180910390fd5b611c8383838361257a565b60008060008573ffffffffffffffffffffffffffffffffffffffff1673ffffffffffffffffffffffffffffffffffffffff16815260200190815260200160002054905081811015611d09576040517f08c379a0000000000000000000000000000000000000000000000000000000008152600401611d00906140bf565b60405180910390fd5b8181036000808673ffffffffffffffffffffffffffffffffffffffff1673ffffffffffffffffffffffffffffffffffffffff16815260200190815260200160002081905550816000808573ffffffffffffffffffffffffffffffffffffffff1673ffffffffffffffffffffffffffffffffffffffff1681526020019081526020016000206000828254611d9c919061349b565b925050819055508273ffffffffffffffffffffffffffffffffffffffff168473ffffffffffffffffffffffffffffffffffffffff167fddf252ad1be2c89b69c2b068fc378daa952ba7f163c4a11628f55a4df523b3ef84604051611e009190612f1f565b60405180910390a3611e1384848461257f565b50505050565b60007f000000000000000000000000000000000000000000000000000000000000000073ffffffffffffffffffffffffffffffffffffffff163073ffffffffffffffffffffffffffffffffffffffff16148015611e9557507f000000000000000000000000000000000000000000000000000000000000000046145b15611ec2577f00000000000000000000000000000000000000000000000000000000000000009050611f30565b611f2d7f00000000000000000000000000000000000000000000000000000000000000007f00000000000000000000000000000000000000000000000000000000000000007f0000000000000000000000000000000000000000000000000000000000000000612788565b90505b90565b6000808380549050905060005b81811015611fb2576000611f5482846127c2565b905084868281548110611f6a57611f6961368f565b5b9060005260206000200160000160009054906101000a900463ffffffff1663ffffffff161115611f9c57809250611fac565b600181611fa9919061349b565b91505b50611f40565b600082146120145784600183611fc8919061365b565b81548110611fd957611fd861368f565b5b9060005260206000200160000160049054906101000a90047bffffffffffffffffffffffffffffffffffffffffffffffffffffffff16612017565b60005b7bffffffffffffffffffffffffffffffffffffffffffffffffffffffff169250505092915050565b61204982826127e8565b5050565b600061205883610adb565b9050600061206584610bac565b905082600760008673ffffffffffffffffffffffffffffffffffffffff1673ffffffffffffffffffffffffffffffffffffffff16815260200190815260200160002060006101000a81548173ffffffffffffffffffffffffffffffffffffffff021916908373ffffffffffffffffffffffffffffffffffffffff1602179055508273ffffffffffffffffffffffffffffffffffffffff168273ffffffffffffffffffffffffffffffffffffffff168573ffffffffffffffffffffffffffffffffffffffff167f3134e8a2e6d97e929a7e54011ea5485d7d196dd5f0ba4d4ef95803e8e3fc257f60405160405180910390a461216182848361258f565b50505050565b6000600560009054906101000a900473ffffffffffffffffffffffffffffffffffffffff16905081600560006101000a81548173ffffffffffffffffffffffffffffffffffffffff021916908373ffffffffffffffffffffffffffffffffffffffff1602179055508173ffffffffffffffffffffffffffffffffffffffff168173ffffffffffffffffffffffffffffffffffffffff167f8be0079c531659141344cd1fd0a4f28419497f9722a3daafe3b4186f6b6457e060405160405180910390a35050565b600081600001549050919050565b600061224e612248611e19565b83612806565b9050919050565b600080600061226687878787612839565b9150915061227381612946565b8192505050949350505050565b600080600660008473ffffffffffffffffffffffffffffffffffffffff1673ffffffffffffffffffffffffffffffffffffffff16815260200190815260200160002090506122cd8161222d565b91506122d881612b1b565b50919050565b60007bffffffffffffffffffffffffffffffffffffffffffffffffffffffff905090565b600080600085805490509050600081146123705785600182612324919061365b565b815481106123355761233461368f565b5b9060005260206000200160000160049054906101000a90047bffffffffffffffffffffffffffffffffffffffffffffffffffffffff16612373565b60005b7bffffffffffffffffffffffffffffffffffffffffffffffffffffffff1692506123a183858763ffffffff16565b91506000811180156123f4575043866001836123bd919061365b565b815481106123ce576123cd61368f565b5b9060005260206000200160000160009054906101000a900463ffffffff1663ffffffff16145b1561248157612402826118c1565b86600183612410919061365b565b815481106124215761242061368f565b5b9060005260206000200160000160046101000a8154817bffffffffffffffffffffffffffffffffffffffffffffffffffffffff02191690837bffffffffffffffffffffffffffffffffffffffffffffffffffffffff160217905550612571565b8560405180604001604052806124964361192c565b63ffffffff1681526020016124aa856118c1565b7bffffffffffffffffffffffffffffffffffffffffffffffffffffffff168152509080600181540180825580915050600190039060005260206000200160009091909190915060008201518160000160006101000a81548163ffffffff021916908363ffffffff16021790555060208201518160000160046101000a8154817bffffffffffffffffffffffffffffffffffffffffffffffffffffffff02191690837bffffffffffffffffffffffffffffffffffffffffffffffffffffffff16021790555050505b50935093915050565b505050565b61258a83838361197f565b505050565b8173ffffffffffffffffffffffffffffffffffffffff168373ffffffffffffffffffffffffffffffffffffffff16141580156125cb5750600081115b1561278357600073ffffffffffffffffffffffffffffffffffffffff168373ffffffffffffffffffffffffffffffffffffffff16146126a957600080612652600860008773ffffffffffffffffffffffffffffffffffffffff1673ffffffffffffffffffffffffffffffffffffffff1681526020019081526020016000206119af85612302565b915091508473ffffffffffffffffffffffffffffffffffffffff167fdec2bacdd2f05b59de34da9b523dff8be42e5e38e818c82fdb0bae774387a724838360405161269e9291906140df565b60405180910390a250505b600073ffffffffffffffffffffffffffffffffffffffff168273ffffffffffffffffffffffffffffffffffffffff16146127825760008061272b600860008673ffffffffffffffffffffffffffffffffffffffff1673ffffffffffffffffffffffffffffffffffffffff1681526020019081526020016000206118ab85612302565b915091508373ffffffffffffffffffffffffffffffffffffffff167fdec2bacdd2f05b59de34da9b523dff8be42e5e38e818c82fdb0bae774387a72483836040516127779291906140df565b60405180910390a250505b5b505050565b600083838346306040516020016127a3959493929190614108565b6040516020818303038152906040528051906020012090509392505050565b600060028284186127d3919061418a565b8284166127e0919061349b565b905092915050565b6127f28282612b31565b61280060096119af83612302565b50505050565b6000828260405160200161281b929190614233565b60405160208183030381529060405280519060200120905092915050565b6000807f7fffffffffffffffffffffffffffffff5d576e7357a4501ddfe92f46681b20a08360001c111561287457600060039150915061293d565b601b8560ff161415801561288c5750601c8560ff1614155b1561289e57600060049150915061293d565b6000600187878787604051600081526020016040526040516128c3949392919061426a565b6020604051602081039080840390855afa1580156128e5573d6000803e3d6000fd5b505050602060405103519050600073ffffffffffffffffffffffffffffffffffffffff168173ffffffffffffffffffffffffffffffffffffffff1614156129345760006001925092505061293d565b80600092509250505b94509492505050565b6000600481111561295a576129596142af565b5b81600481111561296d5761296c6142af565b5b141561297857612b18565b6001600481111561298c5761298b6142af565b5b81600481111561299f5761299e6142af565b5b14156129e0576040517f08c379a00000000000000000000000000000000000000000000000000000000081526004016129d79061432a565b60405180910390fd5b600260048111156129f4576129f36142af565b5b816004811115612a0757612a066142af565b5b1415612a48576040517f08c379a0000000000000000000000000000000000000000000000000000000008152600401612a3f90614396565b60405180910390fd5b60036004811115612a5c57612a5b6142af565b5b816004811115612a6f57612a6e6142af565b5b1415612ab0576040517f08c379a0000000000000000000000000000000000000000000000000000000008152600401612aa790614428565b60405180910390fd5b600480811115612ac357612ac26142af565b5b816004811115612ad657612ad56142af565b5b1415612b17576040517f08c379a0000000000000000000000000000000000000000000000000000000008152600401612b0e906144ba565b60405180910390fd5b5b50565b6001816000016000828254019250508190555050565b600073ffffffffffffffffffffffffffffffffffffffff168273ffffffffffffffffffffffffffffffffffffffff161415612ba1576040517f08c379a0000000000000000000000000000000000000000000000000000000008152600401612b989061454c565b60405180910390fd5b612bad8260008361257a565b60008060008473ffffffffffffffffffffffffffffffffffffffff1673ffffffffffffffffffffffffffffffffffffffff16815260200190815260200160002054905081811015612c33576040517f08c379a0000000000000000000000000000000000000000000000000000000008152600401612c2a906145de565b60405180910390fd5b8181036000808573ffffffffffffffffffffffffffffffffffffffff1673ffffffffffffffffffffffffffffffffffffffff168152602001908152602001600020819055508160026000828254612c8a919061365b565b92505081905550600073ffffffffffffffffffffffffffffffffffffffff168373ffffffffffffffffffffffffffffffffffffffff167fddf252ad1be2c89b69c2b068fc378daa952ba7f163c4a11628f55a4df523b3ef84604051612cef9190612f1f565b60405180910390a3612d038360008461257f565b505050565b6040518060400160405280600063ffffffff16815260200160007bffffffffffffffffffffffffffffffffffffffffffffffffffffffff1681525090565b600081519050919050565b600082825260208201905092915050565b60005b83811015612d80578082015181840152602081019050612d65565b83811115612d8f576000848401525b50505050565b6000601f19601f8301169050919050565b6000612db182612d46565b612dbb8185612d51565b9350612dcb818560208601612d62565b612dd481612d95565b840191505092915050565b60006020820190508181036000830152612df98184612da6565b905092915050565b600080fd5b600073ffffffffffffffffffffffffffffffffffffffff82169050919050565b6000612e3182612e06565b9050919050565b612e4181612e26565b8114612e4c57600080fd5b50565b600081359050612e5e81612e38565b92915050565b6000819050919050565b612e7781612e64565b8114612e8257600080fd5b50565b600081359050612e9481612e6e565b92915050565b60008060408385031215612eb157612eb0612e01565b5b6000612ebf85828601612e4f565b9250506020612ed085828601612e85565b9150509250929050565b60008115159050919050565b612eef81612eda565b82525050565b6000602082019050612f0a6000830184612ee6565b92915050565b612f1981612e64565b82525050565b6000602082019050612f346000830184612f10565b92915050565b600080600060608486031215612f5357612f52612e01565b5b6000612f6186828701612e4f565b9350506020612f7286828701612e4f565b9250506040612f8386828701612e85565b9150509250925092565b600060ff82169050919050565b612fa381612f8d565b82525050565b6000602082019050612fbe6000830184612f9a565b92915050565b6000819050919050565b612fd781612fc4565b82525050565b6000602082019050612ff26000830184612fce565b92915050565b60006020828403121561300e5761300d612e01565b5b600061301c84828501612e85565b91505092915050565b60006020828403121561303b5761303a612e01565b5b600061304984828501612e4f565b91505092915050565b61305b81612e26565b82525050565b60006020820190506130766000830184613052565b92915050565b600063ffffffff82169050919050565b6130958161307c565b82525050565b60006020820190506130b0600083018461308c565b92915050565b6130bf81612f8d565b81146130ca57600080fd5b50565b6000813590506130dc816130b6565b92915050565b6130eb81612fc4565b81146130f657600080fd5b50565b600081359050613108816130e2565b92915050565b60008060008060008060c0878903121561312b5761312a612e01565b5b600061313989828a01612e4f565b965050602061314a89828a01612e85565b955050604061315b89828a01612e85565b945050606061316c89828a016130cd565b935050608061317d89828a016130f9565b92505060a061318e89828a016130f9565b9150509295509295509295565b600080604083850312156131b2576131b1612e01565b5b60006131c085828601612e4f565b92505060206131d185828601612e4f565b9150509250929050565b600080600080600080600060e0888a0312156131fa576131f9612e01565b5b60006132088a828b01612e4f565b97505060206132198a828b01612e4f565b965050604061322a8a828b01612e85565b955050606061323b8a828b01612e85565b945050608061324c8a828b016130cd565b93505060a061325d8a828b016130f9565b92505060c061326e8a828b016130f9565b91505092959891949750929550565b6132868161307c565b811461329157600080fd5b50565b6000813590506132a38161327d565b92915050565b600080604083850312156132c0576132bf612e01565b5b60006132ce85828601612e4f565b92505060206132df85828601613294565b9150509250929050565b6132f28161307c565b82525050565b60007bffffffffffffffffffffffffffffffffffffffffffffffffffffffff82169050919050565b613329816132f8565b82525050565b60408201600082015161334560008501826132e9565b5060208201516133586020850182613320565b50505050565b6000604082019050613373600083018461332f565b92915050565b7f4e487b7100000000000000000000000000000000000000000000000000000000600052602260045260246000fd5b600060028204905060018216806133c057607f821691505b602082108114156133d4576133d3613379565b5b50919050565b7f45524332303a207472616e7366657220616d6f756e742065786365656473206160008201527f6c6c6f77616e6365000000000000000000000000000000000000000000000000602082015250565b6000613436602883612d51565b9150613441826133da565b604082019050919050565b6000602082019050818103600083015261346581613429565b9050919050565b7f4e487b7100000000000000000000000000000000000000000000000000000000600052601160045260246000fd5b60006134a682612e64565b91506134b183612e64565b9250827fffffffffffffffffffffffffffffffffffffffffffffffffffffffffffffffff038211156134e6576134e561346c565b5b828201905092915050565b7f4552433230566f7465733a20626c6f636b206e6f7420796574206d696e656400600082015250565b6000613527601f83612d51565b9150613532826134f1565b602082019050919050565b600060208201905081810360008301526135568161351a565b9050919050565b7f4f776e61626c653a2063616c6c6572206973206e6f7420746865206f776e6572600082015250565b6000613593602083612d51565b915061359e8261355d565b602082019050919050565b600060208201905081810360008301526135c281613586565b9050919050565b7f45524332303a206275726e20616d6f756e74206578636565647320616c6c6f7760008201527f616e636500000000000000000000000000000000000000000000000000000000602082015250565b6000613625602483612d51565b9150613630826135c9565b604082019050919050565b6000602082019050818103600083015261365481613618565b9050919050565b600061366682612e64565b915061367183612e64565b9250828210156136845761368361346c565b5b828203905092915050565b7f4e487b7100000000000000000000000000000000000000000000000000000000600052603260045260246000fd5b7f45524332303a2064656372656173656420616c6c6f77616e63652062656c6f7760008201527f207a65726f000000000000000000000000000000000000000000000000000000602082015250565b600061371a602583612d51565b9150613725826136be565b604082019050919050565b600060208201905081810360008301526137498161370d565b9050919050565b7f4552433230566f7465733a207369676e61747572652065787069726564000000600082015250565b6000613786601d83612d51565b915061379182613750565b602082019050919050565b600060208201905081810360008301526137b581613779565b9050919050565b60006080820190506137d16000830187612fce565b6137de6020830186613052565b6137eb6040830185612f10565b6137f86060830184612f10565b95945050505050565b7f4552433230566f7465733a20696e76616c6964206e6f6e636500000000000000600082015250565b6000613837601983612d51565b915061384282613801565b602082019050919050565b600060208201905081810360008301526138668161382a565b9050919050565b7f53656e642045544820746f2062757920736f6d6520746f6b656e730000000000600082015250565b60006138a3601b83612d51565b91506138ae8261386d565b602082019050919050565b600060208201905081810360008301526138d281613896565b9050919050565b60006138e482612e64565b91506138ef83612e64565b9250817fffffffffffffffffffffffffffffffffffffffffffffffffffffffffffffffff04831182151516156139285761392761346c565b5b828202905092915050565b7f4661696c656420746f207472616e7366657220746f6b656e20746f2075736572600082015250565b6000613969602083612d51565b915061397482613933565b602082019050919050565b600060208201905081810360008301526139988161395c565b9050919050565b60006060820190506139b46000830186613052565b6139c16020830185612f10565b6139ce6040830184612f10565b949350505050565b6000815190506139e581612e6e565b92915050565b600060208284031215613a0157613a00612e01565b5b6000613a0f848285016139d6565b91505092915050565b7f45524332305065726d69743a206578706972656420646561646c696e65000000600082015250565b6000613a4e601d83612d51565b9150613a5982613a18565b602082019050919050565b60006020820190508181036000830152613a7d81613a41565b9050919050565b600060c082019050613a996000830189612fce565b613aa66020830188613052565b613ab36040830187613052565b613ac06060830186612f10565b613acd6080830185612f10565b613ada60a0830184612f10565b979650505050505050565b7f45524332305065726d69743a20696e76616c6964207369676e61747572650000600082015250565b6000613b1b601e83612d51565b9150613b2682613ae5565b602082019050919050565b60006020820190508181036000830152613b4a81613b0e565b9050919050565b7f4f776e61626c653a206e6577206f776e657220697320746865207a65726f206160008201527f6464726573730000000000000000000000000000000000000000000000000000602082015250565b6000613bad602683612d51565b9150613bb882613b51565b604082019050919050565b60006020820190508181036000830152613bdc81613ba0565b9050919050565b7f4552433230566f7465733a20746f74616c20737570706c79207269736b73206f60008201527f766572666c6f77696e6720766f74657300000000000000000000000000000000602082015250565b6000613c3f603083612d51565b9150613c4a82613be3565b604082019050919050565b60006020820190508181036000830152613c6e81613c32565b9050919050565b7f45524332303a206d696e7420746f20746865207a65726f206164647265737300600082015250565b6000613cab601f83612d51565b9150613cb682613c75565b602082019050919050565b60006020820190508181036000830152613cda81613c9e565b9050919050565b7f53616665436173743a2076616c756520646f65736e27742066697420696e203260008201527f3234206269747300000000000000000000000000000000000000000000000000602082015250565b6000613d3d602783612d51565b9150613d4882613ce1565b604082019050919050565b60006020820190508181036000830152613d6c81613d30565b9050919050565b7f53616665436173743a2076616c756520646f65736e27742066697420696e203360008201527f3220626974730000000000000000000000000000000000000000000000000000602082015250565b6000613dcf602683612d51565b9150613dda82613d73565b604082019050919050565b60006020820190508181036000830152613dfe81613dc2565b9050919050565b7f45524332303a20617070726f76652066726f6d20746865207a65726f2061646460008201527f7265737300000000000000000000000000000000000000000000000000000000602082015250565b6000613e61602483612d51565b9150613e6c82613e05565b604082019050919050565b60006020820190508181036000830152613e9081613e54565b9050919050565b7f45524332303a20617070726f766520746f20746865207a65726f20616464726560008201527f7373000000000000000000000000000000000000000000000000000000000000602082015250565b6000613ef3602283612d51565b9150613efe82613e97565b604082019050919050565b60006020820190508181036000830152613f2281613ee6565b9050919050565b7f45524332303a207472616e736665722066726f6d20746865207a65726f20616460008201527f6472657373000000000000000000000000000000000000000000000000000000602082015250565b6000613f85602583612d51565b9150613f9082613f29565b604082019050919050565b60006020820190508181036000830152613fb481613f78565b9050919050565b7f45524332303a207472616e7366657220746f20746865207a65726f206164647260008201527f6573730000000000000000000000000000000000000000000000000000000000602082015250565b6000614017602383612d51565b915061402282613fbb565b604082019050919050565b600060208201905081810360008301526140468161400a565b9050919050565b7f45524332303a207472616e7366657220616d6f756e742065786365656473206260008201527f616c616e63650000000000000000000000000000000000000000000000000000602082015250565b60006140a9602683612d51565b91506140b48261404d565b604082019050919050565b600060208201905081810360008301526140d88161409c565b9050919050565b60006040820190506140f46000830185612f10565b6141016020830184612f10565b9392505050565b600060a08201905061411d6000830188612fce565b61412a6020830187612fce565b6141376040830186612fce565b6141446060830185612f10565b6141516080830184613052565b9695505050505050565b7f4e487b7100000000000000000000000000000000000000000000000000000000600052601260045260246000fd5b600061419582612e64565b91506141a083612e64565b9250826141b0576141af61415b565b5b828204905092915050565b600081905092915050565b7f1901000000000000000000000000000000000000000000000000000000000000600082015250565b60006141fc6002836141bb565b9150614207826141c6565b600282019050919050565b6000819050919050565b61422d61422882612fc4565b614212565b82525050565b600061423e826141ef565b915061424a828561421c565b60208201915061425a828461421c565b6020820191508190509392505050565b600060808201905061427f6000830187612fce565b61428c6020830186612f9a565b6142996040830185612fce565b6142a66060830184612fce565b95945050505050565b7f4e487b7100000000000000000000000000000000000000000000000000000000600052602160045260246000fd5b7f45434453413a20696e76616c6964207369676e61747572650000000000000000600082015250565b6000614314601883612d51565b915061431f826142de565b602082019050919050565b6000602082019050818103600083015261434381614307565b9050919050565b7f45434453413a20696e76616c6964207369676e6174757265206c656e67746800600082015250565b6000614380601f83612d51565b915061438b8261434a565b602082019050919050565b600060208201905081810360008301526143af81614373565b9050919050565b7f45434453413a20696e76616c6964207369676e6174757265202773272076616c60008201527f7565000000000000000000000000000000000000000000000000000000000000602082015250565b6000614412602283612d51565b915061441d826143b6565b604082019050919050565b6000602082019050818103600083015261444181614405565b9050919050565b7f45434453413a20696e76616c6964207369676e6174757265202776272076616c60008201527f7565000000000000000000000000000000000000000000000000000000000000602082015250565b60006144a4602283612d51565b91506144af82614448565b604082019050919050565b600060208201905081810360008301526144d381614497565b9050919050565b7f45524332303a206275726e2066726f6d20746865207a65726f2061646472657360008201527f7300000000000000000000000000000000000000000000000000000000000000602082015250565b6000614536602183612d51565b9150614541826144da565b604082019050919050565b6000602082019050818103600083015261456581614529565b9050919050565b7f45524332303a206275726e20616d6f756e7420657863656564732062616c616e60008201527f6365000000000000000000000000000000000000000000000000000000000000602082015250565b60006145c8602283612d51565b91506145d38261456c565b604082019050919050565b600060208201905081810360008301526145f7816145bb565b905091905056fea2646970667358221220c9b8887aab23e32404afb7139797c4652090f71c869c27840f02023e0e49373864736f6c634300080b0033",
  "immutableReferences": {
    "1489": [
      {
        "length": 32,
        "start": 4916
      }
    ],
    "2361": [
      {
        "length": 32,
        "start": 7836
      }
    ],
    "2363": [
      {
        "length": 32,
        "start": 7795
      }
    ],
    "2365": [
      {
        "length": 32,
        "start": 7709
      }
    ],
    "2367": [
      {
        "length": 32,
        "start": 7912
      }
    ],
    "2369": [
      {
        "length": 32,
        "start": 7945
      }
    ],
    "2371": [
      {
        "length": 32,
        "start": 7879
      }
    ]
  },
  "source": "// SPDX-License-Identifier: MIT\r\npragma solidity ^0.8.9;\r\n\r\nimport '@openzeppelin/contracts/token/ERC20/ERC20.sol';\r\nimport '@openzeppelin/contracts/token/ERC20/IERC20.sol';\r\nimport '@openzeppelin/contracts/token/ERC20/extensions/ERC20Burnable.sol';\r\nimport '@openzeppelin/contracts/access/Ownable.sol';\r\nimport '@openzeppelin/contracts/token/ERC20/extensions/draft-ERC20Permit.sol';\r\nimport '@openzeppelin/contracts/token/ERC20/extensions/ERC20Votes.sol';\r\n\r\ncontract Token_openzeppelin is ERC20, ERC20Burnable, Ownable, ERC20Permit, ERC20Votes {\r\n\r\n  // token price for ETH\r\n  uint256 public tokensPerEth = 100;\r\n\r\n  event BuyTokens(address buyer, uint256 amountOfETH, uint256 amountOfTokens);\r\n  event SellTokens(address seller, uint256 amountOfTokens, uint256 amountOfETH);\r\n\r\n  constructor() ERC20('TestKub Token', 'TKUB') ERC20Permit('TestKubGovernanceToken') {\r\n    _mint(msg.sender, 1e8 * 10**decimals());\r\n  }\r\n\r\n  function _afterTokenTransfer(\r\n    address _from,\r\n    address _to,\r\n    uint256 _amount\r\n  ) internal override(ERC20, ERC20Votes) {\r\n    super._afterTokenTransfer(_from, _to, _amount);\r\n  }\r\n\r\n  function _mint(address _to, uint256 _amount) internal override(ERC20, ERC20Votes) {\r\n    super._mint(_to, _amount);\r\n  }\r\n\r\n  function _burn(address _account, uint256 _amount) internal override(ERC20, ERC20Votes) {\r\n    super._burn(_account, _amount);\r\n  }\r\n\r\n  function buyTokens() public payable returns (uint256 tokenAmount) {\r\n    require(msg.value > 0, \"Send ETH to buy some tokens\");\r\n\r\n    uint256 amountToBuy = msg.value * tokensPerEth;\r\n\r\n    // // check if the Vendor Contract has enough amount of tokens for the transaction\r\n    // uint256 vendorBalance = balanceOf(address(this));\r\n    // require(vendorBalance >= amountToBuy, \"Vendor contract has not enough tokens in its balance\");\r\n\r\n    // Transfer token to the msg.sender\r\n    (bool sent) = transfer(msg.sender, amountToBuy);\r\n    require(sent, \"Failed to transfer token to user\");\r\n\r\n    // emit the event\r\n    emit BuyTokens(msg.sender, msg.value, amountToBuy);\r\n\r\n    return amountToBuy;\r\n  }\r\n\r\n  //Get balance by token address and holder address\r\n  function getBalance(address token, address holder) public view returns(uint) {\r\n    IERC20 token = IERC20(token);\r\n    return token.balanceOf(holder);\r\n  }\r\n}",
  "sourcePath": "G:\\Smart_Contract_Testing\\simple_contract\\contracts\\Token_openzeppelin.sol",
  "compiler": {
    "name": "solc",
    "version": "0.8.11+commit.d7f03943.Emscripten.clang"
  },
  "schemaVersion": "3.4.4",
  "updatedAt": "2022-04-01T10:55:58.201Z",
  "devdoc": {
    "kind": "dev",
    "methods": {
      "DOMAIN_SEPARATOR()": {
        "details": "See {IERC20Permit-DOMAIN_SEPARATOR}."
      },
      "allowance(address,address)": {
        "details": "See {IERC20-allowance}."
      },
      "approve(address,uint256)": {
        "details": "See {IERC20-approve}. Requirements: - `spender` cannot be the zero address."
      },
      "balanceOf(address)": {
        "details": "See {IERC20-balanceOf}."
      },
      "burn(uint256)": {
        "details": "Destroys `amount` tokens from the caller. See {ERC20-_burn}."
      },
      "burnFrom(address,uint256)": {
        "details": "Destroys `amount` tokens from `account`, deducting from the caller's allowance. See {ERC20-_burn} and {ERC20-allowance}. Requirements: - the caller must have allowance for ``accounts``'s tokens of at least `amount`."
      },
      "checkpoints(address,uint32)": {
        "details": "Get the `pos`-th checkpoint for `account`."
      },
      "decimals()": {
        "details": "Returns the number of decimals used to get its user representation. For example, if `decimals` equals `2`, a balance of `505` tokens should be displayed to a user as `5.05` (`505 / 10 ** 2`). Tokens usually opt for a value of 18, imitating the relationship between Ether and Wei. This is the value {ERC20} uses, unless this function is overridden; NOTE: This information is only used for _display_ purposes: it in no way affects any of the arithmetic of the contract, including {IERC20-balanceOf} and {IERC20-transfer}."
      },
      "decreaseAllowance(address,uint256)": {
        "details": "Atomically decreases the allowance granted to `spender` by the caller. This is an alternative to {approve} that can be used as a mitigation for problems described in {IERC20-approve}. Emits an {Approval} event indicating the updated allowance. Requirements: - `spender` cannot be the zero address. - `spender` must have allowance for the caller of at least `subtractedValue`."
      },
      "delegate(address)": {
        "details": "Delegate votes from the sender to `delegatee`."
      },
      "delegateBySig(address,uint256,uint256,uint8,bytes32,bytes32)": {
        "details": "Delegates votes from signer to `delegatee`"
      },
      "delegates(address)": {
        "details": "Get the address `account` is currently delegating to."
      },
      "getPastTotalSupply(uint256)": {
        "details": "Retrieve the `totalSupply` at the end of `blockNumber`. Note, this value is the sum of all balances. It is but NOT the sum of all the delegated votes! Requirements: - `blockNumber` must have been already mined"
      },
      "getPastVotes(address,uint256)": {
        "details": "Retrieve the number of votes for `account` at the end of `blockNumber`. Requirements: - `blockNumber` must have been already mined"
      },
      "getVotes(address)": {
        "details": "Gets the current votes balance for `account`"
      },
      "increaseAllowance(address,uint256)": {
        "details": "Atomically increases the allowance granted to `spender` by the caller. This is an alternative to {approve} that can be used as a mitigation for problems described in {IERC20-approve}. Emits an {Approval} event indicating the updated allowance. Requirements: - `spender` cannot be the zero address."
      },
      "name()": {
        "details": "Returns the name of the token."
      },
      "nonces(address)": {
        "details": "See {IERC20Permit-nonces}."
      },
      "numCheckpoints(address)": {
        "details": "Get number of checkpoints for `account`."
      },
      "owner()": {
        "details": "Returns the address of the current owner."
      },
      "permit(address,address,uint256,uint256,uint8,bytes32,bytes32)": {
        "details": "See {IERC20Permit-permit}."
      },
      "renounceOwnership()": {
        "details": "Leaves the contract without owner. It will not be possible to call `onlyOwner` functions anymore. Can only be called by the current owner. NOTE: Renouncing ownership will leave the contract without an owner, thereby removing any functionality that is only available to the owner."
      },
      "symbol()": {
        "details": "Returns the symbol of the token, usually a shorter version of the name."
      },
      "totalSupply()": {
        "details": "See {IERC20-totalSupply}."
      },
      "transfer(address,uint256)": {
        "details": "See {IERC20-transfer}. Requirements: - `recipient` cannot be the zero address. - the caller must have a balance of at least `amount`."
      },
      "transferFrom(address,address,uint256)": {
        "details": "See {IERC20-transferFrom}. Emits an {Approval} event indicating the updated allowance. This is not required by the EIP. See the note at the beginning of {ERC20}. Requirements: - `sender` and `recipient` cannot be the zero address. - `sender` must have a balance of at least `amount`. - the caller must have allowance for ``sender``'s tokens of at least `amount`."
      },
      "transferOwnership(address)": {
        "details": "Transfers ownership of the contract to a new account (`newOwner`). Can only be called by the current owner."
      }
    },
    "version": 1
  },
  "userdoc": {
    "kind": "user",
    "methods": {},
    "version": 1
  }
}