{
  "contractName": "Token",
  "abi": [
    {
      "inputs": [
        {
          "internalType": "uint256",
          "name": "initialSupply",
          "type": "uint256"
        }
      ],
      "stateMutability": "nonpayable",
      "type": "constructor"
    },
    {
      "inputs": [
        {
          "internalType": "address",
          "name": "",
          "type": "address"
        }
      ],
      "name": "balanceOf",
      "outputs": [
        {
          "internalType": "uint256",
          "name": "",
          "type": "uint256"
        }
      ],
      "stateMutability": "view",
      "type": "function"
    },
    {
      "inputs": [
        {
          "internalType": "address",
          "name": "_from",
          "type": "address"
        },
        {
          "internalType": "address",
          "name": "_to",
          "type": "address"
        },
        {
          "internalType": "uint256",
          "name": "_value",
          "type": "uint256"
        }
      ],
      "name": "transfer",
      "outputs": [
        {
          "internalType": "bool",
          "name": "success",
          "type": "bool"
        }
      ],
      "stateMutability": "nonpayable",
      "type": "function"
    }
  ],
  "bytecode": "0x608060405234801561001057600080fd5b506040516105a33803806105a3833981810160405281019061003291906100b6565b806000803373ffffffffffffffffffffffffffffffffffffffff1673ffffffffffffffffffffffffffffffffffffffff16815260200190815260200160002081905550506100e3565b600080fd5b6000819050919050565b61009381610080565b811461009e57600080fd5b50565b6000815190506100b08161008a565b92915050565b6000602082840312156100cc576100cb61007b565b5b60006100da848285016100a1565b91505092915050565b6104b1806100f26000396000f3fe608060405234801561001057600080fd5b50600436106100365760003560e01c806370a082311461003b578063beabacc81461006b575b600080fd5b610055600480360381019061005091906102ac565b61009b565b60405161006291906102f2565b60405180910390f35b61008560048036038101906100809190610339565b6100b3565b60405161009291906103a7565b60405180910390f35b60006020528060005260406000206000915090505481565b6000816000808673ffffffffffffffffffffffffffffffffffffffff1673ffffffffffffffffffffffffffffffffffffffff16815260200190815260200160002054101561010057600080fd5b6000808473ffffffffffffffffffffffffffffffffffffffff1673ffffffffffffffffffffffffffffffffffffffff16815260200190815260200160002054826000808673ffffffffffffffffffffffffffffffffffffffff1673ffffffffffffffffffffffffffffffffffffffff1681526020019081526020016000205461018991906103f1565b101561019457600080fd5b816000808673ffffffffffffffffffffffffffffffffffffffff1673ffffffffffffffffffffffffffffffffffffffff16815260200190815260200160002060008282546101e29190610447565b92505081905550816000808573ffffffffffffffffffffffffffffffffffffffff1673ffffffffffffffffffffffffffffffffffffffff168152602001908152602001600020600082825461023791906103f1565b92505081905550600190509392505050565b600080fd5b600073ffffffffffffffffffffffffffffffffffffffff82169050919050565b60006102798261024e565b9050919050565b6102898161026e565b811461029457600080fd5b50565b6000813590506102a681610280565b92915050565b6000602082840312156102c2576102c1610249565b5b60006102d084828501610297565b91505092915050565b6000819050919050565b6102ec816102d9565b82525050565b600060208201905061030760008301846102e3565b92915050565b610316816102d9565b811461032157600080fd5b50565b6000813590506103338161030d565b92915050565b60008060006060848603121561035257610351610249565b5b600061036086828701610297565b935050602061037186828701610297565b925050604061038286828701610324565b9150509250925092565b60008115159050919050565b6103a18161038c565b82525050565b60006020820190506103bc6000830184610398565b92915050565b7f4e487b7100000000000000000000000000000000000000000000000000000000600052601160045260246000fd5b60006103fc826102d9565b9150610407836102d9565b9250827fffffffffffffffffffffffffffffffffffffffffffffffffffffffffffffffff0382111561043c5761043b6103c2565b5b828201905092915050565b6000610452826102d9565b915061045d836102d9565b9250828210156104705761046f6103c2565b5b82820390509291505056fea2646970667358221220ed1dbabdffae49e8ccdd863d95b4adf4adfe784afde34bac351cbe4d3cdd373364736f6c634300080b0033",
  "immutableReferences": {},
  "source": "// SPDX-License-Identifier: MIT\r\npragma solidity ^0.8.11;\r\ncontract Token {\r\n    mapping (address => uint256) public balanceOf;\r\n\r\n    constructor(uint256 initialSupply) public {\r\n        balanceOf[msg.sender] = initialSupply;\r\n    }\r\n\r\n    function transfer(address _from, address _to, uint256 _value) public returns (bool success) {\r\n        require(balanceOf[_from] >= _value);                // Check if the sender has enough\r\n        require(balanceOf[_to] + _value >= balanceOf[_to]); // Check for overflows\r\n        balanceOf[_from] -= _value;\r\n        balanceOf[_to] += _value;\r\n        return true;\r\n    }\r\n}",
  "sourcePath": "G:\\Smart_Contract_Testing\\simple_contract\\contracts\\Token.sol",
  "compiler": {
    "name": "solc",
    "version": "0.8.11+commit.d7f03943.Emscripten.clang"
  },
  "schemaVersion": "3.4.4",
  "updatedAt": "2022-01-10T07:08:16.366Z",
  "devdoc": {
    "kind": "dev",
    "methods": {},
    "version": 1
  },
  "userdoc": {
    "kind": "user",
    "methods": {},
    "version": 1
  }
}