{
  "contractName": "Token",
  "abi": [
    {
      "inputs": [
        {
          "internalType": "uint256",
          "name": "initialSupply",
          "type": "uint256"
        }
      ],
      "stateMutability": "nonpayable",
      "type": "constructor"
    },
    {
      "inputs": [
        {
          "internalType": "address",
          "name": "",
          "type": "address"
        }
      ],
      "name": "balanceOf",
      "outputs": [
        {
          "internalType": "uint256",
          "name": "",
          "type": "uint256"
        }
      ],
      "stateMutability": "view",
      "type": "function",
      "constant": true
    },
    {
      "inputs": [
        {
          "internalType": "address",
          "name": "_from",
          "type": "address"
        },
        {
          "internalType": "address",
          "name": "_to",
          "type": "address"
        },
        {
          "internalType": "uint256",
          "name": "_value",
          "type": "uint256"
        }
      ],
      "name": "transfer",
      "outputs": [
        {
          "internalType": "bool",
          "name": "success",
          "type": "bool"
        }
      ],
      "stateMutability": "nonpayable",
      "type": "function"
    },
    {
      "inputs": [],
      "name": "getBalance",
      "outputs": [
        {
          "internalType": "string",
          "name": "",
          "type": "string"
        }
      ],
      "stateMutability": "view",
      "type": "function",
      "constant": true
    }
  ],
  "bytecode": "0x608060405234801561001057600080fd5b506040516108ca3803806108ca833981810160405281019061003291906101a5565b806000803373ffffffffffffffffffffffffffffffffffffffff1673ffffffffffffffffffffffffffffffffffffffff168152602001908152602001600020819055506040518060400160405280600b81526020017f48656c6c6f20576f726c64000000000000000000000000000000000000000000815250600190805190602001906100c09291906100c7565b5050610233565b8280546100d390610201565b90600052602060002090601f0160209004810192826100f5576000855561013c565b82601f1061010e57805160ff191683800117855561013c565b8280016001018555821561013c579182015b8281111561013b578251825591602001919060010190610120565b5b509050610149919061014d565b5090565b5b8082111561016657600081600090555060010161014e565b5090565b600080fd5b6000819050919050565b6101828161016f565b811461018d57600080fd5b50565b60008151905061019f81610179565b92915050565b6000602082840312156101bb576101ba61016a565b5b60006101c984828501610190565b91505092915050565b7f4e487b7100000000000000000000000000000000000000000000000000000000600052602260045260246000fd5b6000600282049050600182168061021957607f821691505b6020821081141561022d5761022c6101d2565b5b50919050565b610688806102426000396000f3fe608060405234801561001057600080fd5b50600436106100415760003560e01c806312065fe01461004657806370a0823114610064578063beabacc814610094575b600080fd5b61004e6100c4565b60405161005b919061039d565b60405180910390f35b61007e60048036038101906100799190610422565b610156565b60405161008b9190610468565b60405180910390f35b6100ae60048036038101906100a991906104af565b61016e565b6040516100bb919061051d565b60405180910390f35b6060600180546100d390610567565b80601f01602080910402602001604051908101604052809291908181526020018280546100ff90610567565b801561014c5780601f106101215761010080835404028352916020019161014c565b820191906000526020600020905b81548152906001019060200180831161012f57829003601f168201915b5050505050905090565b60006020528060005260406000206000915090505481565b6000816000808673ffffffffffffffffffffffffffffffffffffffff1673ffffffffffffffffffffffffffffffffffffffff1681526020019081526020016000205410156101bb57600080fd5b6000808473ffffffffffffffffffffffffffffffffffffffff1673ffffffffffffffffffffffffffffffffffffffff16815260200190815260200160002054826000808673ffffffffffffffffffffffffffffffffffffffff1673ffffffffffffffffffffffffffffffffffffffff1681526020019081526020016000205461024491906105c8565b101561024f57600080fd5b816000808673ffffffffffffffffffffffffffffffffffffffff1673ffffffffffffffffffffffffffffffffffffffff168152602001908152602001600020600082825461029d919061061e565b92505081905550816000808573ffffffffffffffffffffffffffffffffffffffff1673ffffffffffffffffffffffffffffffffffffffff16815260200190815260200160002060008282546102f291906105c8565b92505081905550600190509392505050565b600081519050919050565b600082825260208201905092915050565b60005b8381101561033e578082015181840152602081019050610323565b8381111561034d576000848401525b50505050565b6000601f19601f8301169050919050565b600061036f82610304565b610379818561030f565b9350610389818560208601610320565b61039281610353565b840191505092915050565b600060208201905081810360008301526103b78184610364565b905092915050565b600080fd5b600073ffffffffffffffffffffffffffffffffffffffff82169050919050565b60006103ef826103c4565b9050919050565b6103ff816103e4565b811461040a57600080fd5b50565b60008135905061041c816103f6565b92915050565b600060208284031215610438576104376103bf565b5b60006104468482850161040d565b91505092915050565b6000819050919050565b6104628161044f565b82525050565b600060208201905061047d6000830184610459565b92915050565b61048c8161044f565b811461049757600080fd5b50565b6000813590506104a981610483565b92915050565b6000806000606084860312156104c8576104c76103bf565b5b60006104d68682870161040d565b93505060206104e78682870161040d565b92505060406104f88682870161049a565b9150509250925092565b60008115159050919050565b61051781610502565b82525050565b6000602082019050610532600083018461050e565b92915050565b7f4e487b7100000000000000000000000000000000000000000000000000000000600052602260045260246000fd5b6000600282049050600182168061057f57607f821691505b6020821081141561059357610592610538565b5b50919050565b7f4e487b7100000000000000000000000000000000000000000000000000000000600052601160045260246000fd5b60006105d38261044f565b91506105de8361044f565b9250827fffffffffffffffffffffffffffffffffffffffffffffffffffffffffffffffff0382111561061357610612610599565b5b828201905092915050565b60006106298261044f565b91506106348361044f565b92508282101561064757610646610599565b5b82820390509291505056fea264697066735822122009310a3c5ce0854f1356779fae58584df938fa39129bed7c81ddd358a632a4a564736f6c634300080b0033",
  "immutableReferences": {},
  "source": "// SPDX-License-Identifier: MIT\r\npragma solidity ^0.8.9;\r\ncontract Token {\r\n    mapping (address => uint256) public balanceOf;\r\n\r\n    string private hello;\r\n\r\n    constructor(uint256 initialSupply) public {\r\n        balanceOf[msg.sender] = initialSupply;\r\n        hello = \"Hello World\";\r\n    }\r\n\r\n    function transfer(address _from, address _to, uint256 _value) public returns (bool success) {\r\n        require(balanceOf[_from] >= _value);                // Check if the sender has enough\r\n        require(balanceOf[_to] + _value >= balanceOf[_to]); // Check for overflows\r\n        balanceOf[_from] -= _value;\r\n        balanceOf[_to] += _value;\r\n        return true;\r\n    }\r\n\r\n    function getBalance() public view returns(string memory){\r\n        return hello;   \r\n    }\r\n}",
  "sourcePath": "G:\\Smart_Contract_Testing\\simple_contract\\contracts\\Token.sol",
  "compiler": {
    "name": "solc",
    "version": "0.8.11+commit.d7f03943.Emscripten.clang"
  },
  "schemaVersion": "3.4.4",
  "updatedAt": "2022-01-16T15:14:47.852Z",
  "networkType": "ethereum",
  "devdoc": {
    "kind": "dev",
    "methods": {},
    "version": 1
  },
  "userdoc": {
    "kind": "user",
    "methods": {},
    "version": 1
  }
}